{
  "_format": "hh-sol-artifact-1",
  "contractName": "MockPledgePool",
  "sourceName": "contracts/mock/MockPledgePool.sol",
  "abi": [
    {
      "inputs": [
        {
          "internalType": "address",
          "name": "_oracle",
          "type": "address"
        },
        {
          "internalType": "address",
          "name": "_swapRouter",
          "type": "address"
        },
        {
          "internalType": "address payable",
          "name": "_feeAddress",
          "type": "address"
        }
      ],
      "stateMutability": "nonpayable",
      "type": "constructor"
    },
    {
      "anonymous": false,
      "inputs": [
        {
          "indexed": true,
          "internalType": "address",
          "name": "from",
          "type": "address"
        },
        {
          "indexed": true,
          "internalType": "address",
          "name": "token",
          "type": "address"
        },
        {
          "indexed": false,
          "internalType": "uint256",
          "name": "amount",
          "type": "uint256"
        }
      ],
      "name": "ClaimBorrow",
      "type": "event"
    },
    {
      "anonymous": false,
      "inputs": [
        {
          "indexed": true,
          "internalType": "address",
          "name": "from",
          "type": "address"
        },
        {
          "indexed": true,
          "internalType": "address",
          "name": "token",
          "type": "address"
        },
        {
          "indexed": false,
          "internalType": "uint256",
          "name": "amount",
          "type": "uint256"
        }
      ],
      "name": "ClaimLend",
      "type": "event"
    },
    {
      "anonymous": false,
      "inputs": [
        {
          "indexed": true,
          "internalType": "address",
          "name": "from",
          "type": "address"
        },
        {
          "indexed": true,
          "internalType": "address",
          "name": "token",
          "type": "address"
        },
        {
          "indexed": false,
          "internalType": "uint256",
          "name": "amount",
          "type": "uint256"
        },
        {
          "indexed": false,
          "internalType": "uint256",
          "name": "mintAmount",
          "type": "uint256"
        }
      ],
      "name": "DepositBorrow",
      "type": "event"
    },
    {
      "anonymous": false,
      "inputs": [
        {
          "indexed": true,
          "internalType": "address",
          "name": "from",
          "type": "address"
        },
        {
          "indexed": true,
          "internalType": "address",
          "name": "token",
          "type": "address"
        },
        {
          "indexed": false,
          "internalType": "uint256",
          "name": "amount",
          "type": "uint256"
        },
        {
          "indexed": false,
          "internalType": "uint256",
          "name": "mintAmount",
          "type": "uint256"
        }
      ],
      "name": "DepositLend",
      "type": "event"
    },
    {
      "anonymous": false,
      "inputs": [
        {
          "indexed": true,
          "internalType": "address",
          "name": "from",
          "type": "address"
        },
        {
          "indexed": true,
          "internalType": "address",
          "name": "token",
          "type": "address"
        },
        {
          "indexed": false,
          "internalType": "uint256",
          "name": "amount",
          "type": "uint256"
        }
      ],
      "name": "EmergencyBorrowWithdrawal",
      "type": "event"
    },
    {
      "anonymous": false,
      "inputs": [
        {
          "indexed": true,
          "internalType": "address",
          "name": "from",
          "type": "address"
        },
        {
          "indexed": true,
          "internalType": "address",
          "name": "token",
          "type": "address"
        },
        {
          "indexed": false,
          "internalType": "uint256",
          "name": "amount",
          "type": "uint256"
        }
      ],
      "name": "EmergencyLendWithdrawal",
      "type": "event"
    },
    {
      "anonymous": false,
      "inputs": [
        {
          "indexed": true,
          "internalType": "address",
          "name": "previousOwner",
          "type": "address"
        },
        {
          "indexed": true,
          "internalType": "address",
          "name": "newOwner",
          "type": "address"
        }
      ],
      "name": "OwnershipTransferred",
      "type": "event"
    },
    {
      "anonymous": false,
      "inputs": [
        {
          "indexed": true,
          "internalType": "address",
          "name": "recieptor",
          "type": "address"
        },
        {
          "indexed": true,
          "internalType": "address",
          "name": "token",
          "type": "address"
        },
        {
          "indexed": false,
          "internalType": "uint256",
          "name": "amount",
          "type": "uint256"
        }
      ],
      "name": "Redeem",
      "type": "event"
    },
    {
      "anonymous": false,
      "inputs": [
        {
          "indexed": true,
          "internalType": "address",
          "name": "from",
          "type": "address"
        },
        {
          "indexed": true,
          "internalType": "address",
          "name": "token",
          "type": "address"
        },
        {
          "indexed": false,
          "internalType": "uint256",
          "name": "refund",
          "type": "uint256"
        }
      ],
      "name": "RefundBorrow",
      "type": "event"
    },
    {
      "anonymous": false,
      "inputs": [
        {
          "indexed": true,
          "internalType": "address",
          "name": "from",
          "type": "address"
        },
        {
          "indexed": true,
          "internalType": "address",
          "name": "token",
          "type": "address"
        },
        {
          "indexed": false,
          "internalType": "uint256",
          "name": "refund",
          "type": "uint256"
        }
      ],
      "name": "RefundLend",
      "type": "event"
    },
    {
      "anonymous": false,
      "inputs": [
        {
          "indexed": true,
          "internalType": "address",
          "name": "fromCoin",
          "type": "address"
        },
        {
          "indexed": true,
          "internalType": "address",
          "name": "toCoin",
          "type": "address"
        },
        {
          "indexed": false,
          "internalType": "uint256",
          "name": "fromValue",
          "type": "uint256"
        },
        {
          "indexed": false,
          "internalType": "uint256",
          "name": "toValue",
          "type": "uint256"
        }
      ],
      "name": "Swap",
      "type": "event"
    },
    {
      "anonymous": false,
      "inputs": [
        {
          "indexed": true,
          "internalType": "address",
          "name": "from",
          "type": "address"
        },
        {
          "indexed": true,
          "internalType": "address",
          "name": "token",
          "type": "address"
        },
        {
          "indexed": false,
          "internalType": "uint256",
          "name": "amount",
          "type": "uint256"
        },
        {
          "indexed": false,
          "internalType": "uint256",
          "name": "burnAmount",
          "type": "uint256"
        }
      ],
      "name": "WithdrawBorrow",
      "type": "event"
    },
    {
      "anonymous": false,
      "inputs": [
        {
          "indexed": true,
          "internalType": "address",
          "name": "from",
          "type": "address"
        },
        {
          "indexed": true,
          "internalType": "address",
          "name": "token",
          "type": "address"
        },
        {
          "indexed": false,
          "internalType": "uint256",
          "name": "amount",
          "type": "uint256"
        },
        {
          "indexed": false,
          "internalType": "uint256",
          "name": "burnAmount",
          "type": "uint256"
        }
      ],
      "name": "WithdrawLend",
      "type": "event"
    },
    {
      "inputs": [],
      "name": "borrowFee",
      "outputs": [
        {
          "internalType": "uint256",
          "name": "",
          "type": "uint256"
        }
      ],
      "stateMutability": "view",
      "type": "function"
    },
    {
      "inputs": [
        {
          "internalType": "uint256",
          "name": "_pid",
          "type": "uint256"
        }
      ],
      "name": "checkoutFinish",
      "outputs": [
        {
          "internalType": "bool",
          "name": "",
          "type": "bool"
        }
      ],
      "stateMutability": "view",
      "type": "function"
    },
    {
      "inputs": [
        {
          "internalType": "uint256",
          "name": "_pid",
          "type": "uint256"
        }
      ],
      "name": "checkoutLiquidate",
      "outputs": [
        {
          "internalType": "bool",
          "name": "",
          "type": "bool"
        }
      ],
      "stateMutability": "view",
      "type": "function"
    },
    {
      "inputs": [
        {
          "internalType": "uint256",
          "name": "_pid",
          "type": "uint256"
        }
      ],
      "name": "checkoutSettle",
      "outputs": [
        {
          "internalType": "bool",
          "name": "",
          "type": "bool"
        }
      ],
      "stateMutability": "view",
      "type": "function"
    },
    {
      "inputs": [
        {
          "internalType": "uint256",
          "name": "_pid",
          "type": "uint256"
        }
      ],
      "name": "claimBorrow",
      "outputs": [],
      "stateMutability": "nonpayable",
      "type": "function"
    },
    {
      "inputs": [
        {
          "internalType": "uint256",
          "name": "_pid",
          "type": "uint256"
        }
      ],
      "name": "claimLend",
      "outputs": [],
      "stateMutability": "nonpayable",
      "type": "function"
    },
    {
      "inputs": [
        {
          "internalType": "uint256",
          "name": "_settleTime",
          "type": "uint256"
        },
        {
          "internalType": "uint256",
          "name": "_endTime",
          "type": "uint256"
        },
        {
          "internalType": "uint64",
          "name": "_interestRate",
          "type": "uint64"
        },
        {
          "internalType": "uint256",
          "name": "_maxSupply",
          "type": "uint256"
        },
        {
          "internalType": "uint256",
          "name": "_martgageRate",
          "type": "uint256"
        },
        {
          "internalType": "address",
          "name": "_lendToken",
          "type": "address"
        },
        {
          "internalType": "address",
          "name": "_borrowToken",
          "type": "address"
        },
        {
          "internalType": "address",
          "name": "_spToken",
          "type": "address"
        },
        {
          "internalType": "address",
          "name": "_jpToken",
          "type": "address"
        },
        {
          "internalType": "uint256",
          "name": "_autoLiquidateThreshold",
          "type": "uint256"
        }
      ],
      "name": "createPoolInfo",
      "outputs": [],
      "stateMutability": "nonpayable",
      "type": "function"
    },
    {
      "inputs": [
        {
          "internalType": "uint256",
          "name": "_pid",
          "type": "uint256"
        },
        {
          "internalType": "uint256",
          "name": "_stakeAmount",
          "type": "uint256"
        },
        {
          "internalType": "uint256",
          "name": "_deadLine",
          "type": "uint256"
        }
      ],
      "name": "depositBorrow",
      "outputs": [],
      "stateMutability": "payable",
      "type": "function"
    },
    {
      "inputs": [
        {
          "internalType": "uint256",
          "name": "_pid",
          "type": "uint256"
        },
        {
          "internalType": "uint256",
          "name": "_stakeAmount",
          "type": "uint256"
        }
      ],
      "name": "depositLend",
      "outputs": [],
      "stateMutability": "payable",
      "type": "function"
    },
    {
      "inputs": [
        {
          "internalType": "uint256",
          "name": "_pid",
          "type": "uint256"
        }
      ],
      "name": "emergencyBorrowWithdrawal",
      "outputs": [],
      "stateMutability": "nonpayable",
      "type": "function"
    },
    {
      "inputs": [
        {
          "internalType": "uint256",
          "name": "_pid",
          "type": "uint256"
        }
      ],
      "name": "emergencyLendWithdrawal",
      "outputs": [],
      "stateMutability": "nonpayable",
      "type": "function"
    },
    {
      "inputs": [],
      "name": "feeAddress",
      "outputs": [
        {
          "internalType": "address payable",
          "name": "",
          "type": "address"
        }
      ],
      "stateMutability": "view",
      "type": "function"
    },
    {
      "inputs": [
        {
          "internalType": "uint256",
          "name": "_pid",
          "type": "uint256"
        }
      ],
      "name": "finish",
      "outputs": [],
      "stateMutability": "nonpayable",
      "type": "function"
    },
    {
      "inputs": [
        {
          "internalType": "uint256",
          "name": "_pid",
          "type": "uint256"
        }
      ],
      "name": "getPoolState",
      "outputs": [
        {
          "internalType": "uint256",
          "name": "",
          "type": "uint256"
        }
      ],
      "stateMutability": "view",
      "type": "function"
    },
    {
      "inputs": [
        {
          "internalType": "uint256",
          "name": "_pid",
          "type": "uint256"
        }
      ],
      "name": "getUnderlyingPriceView",
      "outputs": [
        {
          "internalType": "uint256[2]",
          "name": "",
          "type": "uint256[2]"
        }
      ],
      "stateMutability": "view",
      "type": "function"
    },
    {
      "inputs": [],
      "name": "globalPaused",
      "outputs": [
        {
          "internalType": "bool",
          "name": "",
          "type": "bool"
        }
      ],
      "stateMutability": "view",
      "type": "function"
    },
    {
      "inputs": [],
      "name": "lendFee",
      "outputs": [
        {
          "internalType": "uint256",
          "name": "",
          "type": "uint256"
        }
      ],
      "stateMutability": "view",
      "type": "function"
    },
    {
      "inputs": [
        {
          "internalType": "uint256",
          "name": "_pid",
          "type": "uint256"
        }
      ],
      "name": "liquidate",
      "outputs": [],
      "stateMutability": "nonpayable",
      "type": "function"
    },
    {
      "inputs": [],
      "name": "minAmount",
      "outputs": [
        {
          "internalType": "uint256",
          "name": "",
          "type": "uint256"
        }
      ],
      "stateMutability": "view",
      "type": "function"
    },
    {
      "inputs": [],
      "name": "oracle",
      "outputs": [
        {
          "internalType": "contract IBscPledgeOracle",
          "name": "",
          "type": "address"
        }
      ],
      "stateMutability": "view",
      "type": "function"
    },
    {
      "inputs": [],
      "name": "owner",
      "outputs": [
        {
          "internalType": "address",
          "name": "",
          "type": "address"
        }
      ],
      "stateMutability": "view",
      "type": "function"
    },
    {
      "inputs": [
        {
          "internalType": "uint256",
          "name": "",
          "type": "uint256"
        }
      ],
      "name": "poolBaseInfo",
      "outputs": [
        {
          "internalType": "uint256",
          "name": "settleTime",
          "type": "uint256"
        },
        {
          "internalType": "uint256",
          "name": "endTime",
          "type": "uint256"
        },
        {
          "internalType": "uint256",
          "name": "interestRate",
          "type": "uint256"
        },
        {
          "internalType": "uint256",
          "name": "maxSupply",
          "type": "uint256"
        },
        {
          "internalType": "uint256",
          "name": "lendSupply",
          "type": "uint256"
        },
        {
          "internalType": "uint256",
          "name": "borrowSupply",
          "type": "uint256"
        },
        {
          "internalType": "uint256",
          "name": "martgageRate",
          "type": "uint256"
        },
        {
          "internalType": "address",
          "name": "lendToken",
          "type": "address"
        },
        {
          "internalType": "address",
          "name": "borrowToken",
          "type": "address"
        },
        {
          "internalType": "enum MockPledgePool.PoolState",
          "name": "state",
          "type": "uint8"
        },
        {
          "internalType": "contract IDebtToken",
          "name": "spCoin",
          "type": "address"
        },
        {
          "internalType": "contract IDebtToken",
          "name": "jpCoin",
          "type": "address"
        },
        {
          "internalType": "uint256",
          "name": "autoLiquidateThreshold",
          "type": "uint256"
        }
      ],
      "stateMutability": "view",
      "type": "function"
    },
    {
      "inputs": [
        {
          "internalType": "uint256",
          "name": "",
          "type": "uint256"
        }
      ],
      "name": "poolDataInfo",
      "outputs": [
        {
          "internalType": "uint256",
          "name": "settleAmountLend",
          "type": "uint256"
        },
        {
          "internalType": "uint256",
          "name": "settleAmountBorrow",
          "type": "uint256"
        },
        {
          "internalType": "uint256",
          "name": "finishAmountLend",
          "type": "uint256"
        },
        {
          "internalType": "uint256",
          "name": "finishAmountBorrow",
          "type": "uint256"
        },
        {
          "internalType": "uint256",
          "name": "liquidationAmounLend",
          "type": "uint256"
        },
        {
          "internalType": "uint256",
          "name": "liquidationAmounBorrow",
          "type": "uint256"
        }
      ],
      "stateMutability": "view",
      "type": "function"
    },
    {
      "inputs": [],
      "name": "poolLength",
      "outputs": [
        {
          "internalType": "uint256",
          "name": "",
          "type": "uint256"
        }
      ],
      "stateMutability": "view",
      "type": "function"
    },
    {
      "inputs": [
        {
          "internalType": "uint256",
          "name": "_pid",
          "type": "uint256"
        }
      ],
      "name": "refundBorrow",
      "outputs": [],
      "stateMutability": "nonpayable",
      "type": "function"
    },
    {
      "inputs": [
        {
          "internalType": "uint256",
          "name": "_pid",
          "type": "uint256"
        }
      ],
      "name": "refundLend",
      "outputs": [],
      "stateMutability": "nonpayable",
      "type": "function"
    },
    {
      "inputs": [],
      "name": "renounceOwnership",
      "outputs": [],
      "stateMutability": "nonpayable",
      "type": "function"
    },
    {
      "inputs": [
        {
          "internalType": "uint256",
          "name": "_lendFee",
          "type": "uint256"
        },
        {
          "internalType": "uint256",
          "name": "_borrowFee",
          "type": "uint256"
        }
      ],
      "name": "setFee",
      "outputs": [],
      "stateMutability": "nonpayable",
      "type": "function"
    },
    {
      "inputs": [
        {
          "internalType": "address payable",
          "name": "_feeAddress",
          "type": "address"
        }
      ],
      "name": "setFeeAddress",
      "outputs": [],
      "stateMutability": "nonpayable",
      "type": "function"
    },
    {
      "inputs": [
        {
          "internalType": "uint256",
          "name": "_minAmount",
          "type": "uint256"
        }
      ],
      "name": "setMinAmount",
      "outputs": [],
      "stateMutability": "nonpayable",
      "type": "function"
    },
    {
      "inputs": [],
      "name": "setPause",
      "outputs": [],
      "stateMutability": "nonpayable",
      "type": "function"
    },
    {
      "inputs": [
        {
          "internalType": "uint256",
          "name": "_pid",
          "type": "uint256"
        },
        {
          "internalType": "uint256",
          "name": "_state",
          "type": "uint256"
        }
      ],
      "name": "setPoolState",
      "outputs": [],
      "stateMutability": "nonpayable",
      "type": "function"
    },
    {
      "inputs": [
        {
          "internalType": "address",
          "name": "_swapRouter",
          "type": "address"
        }
      ],
      "name": "setSwapRouterAddress",
      "outputs": [],
      "stateMutability": "nonpayable",
      "type": "function"
    },
    {
      "inputs": [
        {
          "internalType": "uint256",
          "name": "_pid",
          "type": "uint256"
        }
      ],
      "name": "settle",
      "outputs": [],
      "stateMutability": "nonpayable",
      "type": "function"
    },
    {
      "inputs": [],
      "name": "swapRouter",
      "outputs": [
        {
          "internalType": "address",
          "name": "",
          "type": "address"
        }
      ],
      "stateMutability": "view",
      "type": "function"
    },
    {
      "inputs": [
        {
          "internalType": "address",
          "name": "newOwner",
          "type": "address"
        }
      ],
      "name": "transferOwnership",
      "outputs": [],
      "stateMutability": "nonpayable",
      "type": "function"
    },
    {
      "inputs": [
        {
          "internalType": "uint256",
          "name": "_pid",
          "type": "uint256"
        },
        {
          "internalType": "uint64",
          "name": "_interestRate",
          "type": "uint64"
        },
        {
          "internalType": "uint256",
          "name": "_maxSupply",
          "type": "uint256"
        },
        {
          "internalType": "uint256",
          "name": "_autoLiquidateThreshold",
          "type": "uint256"
        }
      ],
      "name": "updatePoolBaseInfo",
      "outputs": [],
      "stateMutability": "nonpayable",
      "type": "function"
    },
    {
      "inputs": [
        {
          "internalType": "address",
          "name": "",
          "type": "address"
        },
        {
          "internalType": "uint256",
          "name": "",
          "type": "uint256"
        }
      ],
      "name": "userBorrowInfo",
      "outputs": [
        {
          "internalType": "uint256",
          "name": "stakeAmount",
          "type": "uint256"
        },
        {
          "internalType": "uint256",
          "name": "refundAmount",
          "type": "uint256"
        },
        {
          "internalType": "bool",
          "name": "hasNoRefund",
          "type": "bool"
        },
        {
          "internalType": "bool",
          "name": "hasNoClaim",
          "type": "bool"
        }
      ],
      "stateMutability": "view",
      "type": "function"
    },
    {
      "inputs": [
        {
          "internalType": "address",
          "name": "",
          "type": "address"
        },
        {
          "internalType": "uint256",
          "name": "",
          "type": "uint256"
        }
      ],
      "name": "userLendInfo",
      "outputs": [
        {
          "internalType": "uint256",
          "name": "stakeAmount",
          "type": "uint256"
        },
        {
          "internalType": "uint256",
          "name": "refundAmount",
          "type": "uint256"
        },
        {
          "internalType": "bool",
          "name": "hasNoRefund",
          "type": "bool"
        },
        {
          "internalType": "bool",
          "name": "hasNoClaim",
          "type": "bool"
        }
      ],
      "stateMutability": "view",
      "type": "function"
    },
    {
      "inputs": [
        {
          "internalType": "uint256",
          "name": "_pid",
          "type": "uint256"
        },
        {
          "internalType": "uint256",
          "name": "_jpAmount",
          "type": "uint256"
        },
        {
          "internalType": "uint256",
          "name": "_deadLine",
          "type": "uint256"
        }
      ],
      "name": "withdrawBorrow",
      "outputs": [],
      "stateMutability": "nonpayable",
      "type": "function"
    },
    {
      "inputs": [
        {
          "internalType": "uint256",
          "name": "_pid",
          "type": "uint256"
        },
        {
          "internalType": "uint256",
          "name": "_spAmount",
          "type": "uint256"
        }
      ],
      "name": "withdrawLend",
      "outputs": [],
      "stateMutability": "nonpayable",
      "type": "function"
    }
  ],
  "bytecode": "0x608060405268056bc75e2d631000006002556000600360006101000a81548160ff0219169083151502179055503480156200003957600080fd5b506040516200908c3803806200908c833981810160405260608110156200005f57600080fd5b81019080805190602001909291908051906020019092919080519060200190929190505050600160008190555060006200009e6200040560201b60201c565b905080600160006101000a81548173ffffffffffffffffffffffffffffffffffffffff021916908373ffffffffffffffffffffffffffffffffffffffff1602179055508073ffffffffffffffffffffffffffffffffffffffff16600073ffffffffffffffffffffffffffffffffffffffff167f8be0079c531659141344cd1fd0a4f28419497f9722a3daafe3b4186f6b6457e060405160405180910390a350600073ffffffffffffffffffffffffffffffffffffffff168373ffffffffffffffffffffffffffffffffffffffff161415620001e1576040517f08c379a000000000000000000000000000000000000000000000000000000000815260040180806020018281038252600f8152602001807f4973207a65726f2061646472657373000000000000000000000000000000000081525060200191505060405180910390fd5b600073ffffffffffffffffffffffffffffffffffffffff168273ffffffffffffffffffffffffffffffffffffffff16141562000285576040517f08c379a000000000000000000000000000000000000000000000000000000000815260040180806020018281038252600f8152602001807f4973207a65726f2061646472657373000000000000000000000000000000000081525060200191505060405180910390fd5b600073ffffffffffffffffffffffffffffffffffffffff168173ffffffffffffffffffffffffffffffffffffffff16141562000329576040517f08c379a000000000000000000000000000000000000000000000000000000000815260040180806020018281038252600f8152602001807f4973207a65726f2061646472657373000000000000000000000000000000000081525060200191505060405180910390fd5b82600560006101000a81548173ffffffffffffffffffffffffffffffffffffffff021916908373ffffffffffffffffffffffffffffffffffffffff16021790555081600360016101000a81548173ffffffffffffffffffffffffffffffffffffffff021916908373ffffffffffffffffffffffffffffffffffffffff16021790555080600460006101000a81548173ffffffffffffffffffffffffffffffffffffffff021916908373ffffffffffffffffffffffffffffffffffffffff160217905550600060068190555060006007819055505050506200040d565b600033905090565b618c6f806200041d6000396000f3fe6080604052600436106102465760003560e01c80637dc0d1d011610139578063bf38b8f6116100b6578063d431b1ac1161007a578063d431b1ac14610cca578063e271fa0c14610ce1578063e626648a14610d1c578063ebded01714610d47578063eec8d50614610e3f578063f2fde38b14610e7a57610246565b8063bf38b8f614610b4d578063c31c9c0714610b88578063c933375614610bc9578063c9bf047c14610c40578063d353a1cb14610c8f57610246565b806390590da0116100fd57806390590da0146109d85780639b2cb5d814610a10578063a62ff16414610a3b578063b159751714610a76578063bb176a6414610ac557610246565b80637dc0d1d01461088f5780638705fcd4146108d0578063897b0637146109215780638da5cb5b1461095c5780638df828001461099d57610246565b80634aea0aec116101c757806361a552dc1161018b57806361a552dc1461075c5780636abd7f29146107895780636c42fed2146107da578063715018a61461081557806373effaf11461082c57610246565b80634aea0aec146105535780635249961b1461057e57806352f7c988146105cf578063593f4cb7146106145780635a5a971e1461065657610246565b806338f2aa761161020e57806338f2aa76146103cf5780633ab4a445146104145780633c9fadc31461044f57806341275358146104d7578063415f12401461051857610246565b80630177b68c1461024b57806303593097146102bd578063081e3eda1461030257806308e7305f1461032d57806314c090cc1461037e575b600080fd5b34801561025757600080fd5b506102846004803603602081101561026e57600080fd5b8101908080359060200190929190505050610ecb565b60405180878152602001868152602001858152602001848152602001838152602001828152602001965050505050505060405180910390f35b3480156102c957600080fd5b50610300600480360360408110156102e057600080fd5b810190808035906020019092919080359060200190929190505050610f14565b005b34801561030e57600080fd5b50610317611183565b6040518082815260200191505060405180910390f35b34801561033957600080fd5b506103666004803603602081101561035057600080fd5b8101908080359060200190929190505050611190565b60405180821515815260200191505060405180910390f35b34801561038a57600080fd5b506103b7600480360360208110156103a157600080fd5b81019080803590602001909291905050506112bf565b60405180821515815260200191505060405180910390f35b3480156103db57600080fd5b50610412600480360360408110156103f257600080fd5b8101908080359060200190929190803590602001909291905050506112e9565b005b34801561042057600080fd5b5061044d6004803603602081101561043757600080fd5b81019080803590602001909291905050506119a9565b005b34801561045b57600080fd5b506104a86004803603604081101561047257600080fd5b81019080803573ffffffffffffffffffffffffffffffffffffffff16906020019092919080359060200190929190505050612092565b604051808581526020018481526020018315158152602001821515815260200194505050505060405180910390f35b3480156104e357600080fd5b506104ec6120e9565b604051808273ffffffffffffffffffffffffffffffffffffffff16815260200191505060405180910390f35b34801561052457600080fd5b506105516004803603602081101561053b57600080fd5b810190808035906020019092919050505061210f565b005b34801561055f57600080fd5b50610568612532565b6040518082815260200191505060405180910390f35b34801561058a57600080fd5b506105cd600480360360208110156105a157600080fd5b81019080803573ffffffffffffffffffffffffffffffffffffffff169060200190929190505050612538565b005b3480156105db57600080fd5b50610612600480360360408110156105f257600080fd5b8101908080359060200190929190803590602001909291905050506126ce565b005b6106546004803603606081101561062a57600080fd5b8101908080359060200190929190803590602001909291908035906020019092919050505061278f565b005b34801561066257600080fd5b5061068f6004803603602081101561067957600080fd5b8101908080359060200190929190505050612cf6565b604051808e81526020018d81526020018c81526020018b81526020018a81526020018981526020018881526020018773ffffffffffffffffffffffffffffffffffffffff1681526020018673ffffffffffffffffffffffffffffffffffffffff16815260200185600481111561070157fe5b81526020018473ffffffffffffffffffffffffffffffffffffffff1681526020018373ffffffffffffffffffffffffffffffffffffffff1681526020018281526020019d505050505050505050505050505060405180910390f35b34801561076857600080fd5b50610771612df6565b60405180821515815260200191505060405180910390f35b34801561079557600080fd5b506107c2600480360360208110156107ac57600080fd5b8101908080359060200190929190505050612e09565b60405180821515815260200191505060405180910390f35b3480156107e657600080fd5b50610813600480360360208110156107fd57600080fd5b8101908080359060200190929190505050612e33565b005b34801561082157600080fd5b5061082a61348b565b005b34801561083857600080fd5b5061088d6004803603608081101561084f57600080fd5b8101908080359060200190929190803567ffffffffffffffff16906020019092919080359060200190929190803590602001909291905050506135fb565b005b34801561089b57600080fd5b506108a461378a565b604051808273ffffffffffffffffffffffffffffffffffffffff16815260200191505060405180910390f35b3480156108dc57600080fd5b5061091f600480360360208110156108f357600080fd5b81019080803573ffffffffffffffffffffffffffffffffffffffff1690602001909291905050506137b0565b005b34801561092d57600080fd5b5061095a6004803603602081101561094457600080fd5b8101908080359060200190929190505050613946565b005b34801561096857600080fd5b506109716139ff565b604051808273ffffffffffffffffffffffffffffffffffffffff16815260200191505060405180910390f35b3480156109a957600080fd5b506109d6600480360360208110156109c057600080fd5b8101908080359060200190929190505050613a29565b005b610a0e600480360360408110156109ee57600080fd5b810190808035906020019092919080359060200190929190505050613e52565b005b348015610a1c57600080fd5b50610a256143b4565b6040518082815260200191505060405180910390f35b348015610a4757600080fd5b50610a7460048036036020811015610a5e57600080fd5b81019080803590602001909291905050506143ba565b005b348015610a8257600080fd5b50610aaf60048036036020811015610a9957600080fd5b8101908080359060200190929190505050614a53565b6040518082815260200191505060405180910390f35b348015610ad157600080fd5b50610b1e60048036036040811015610ae857600080fd5b81019080803573ffffffffffffffffffffffffffffffffffffffff16906020019092919080359060200190929190505050614a98565b604051808581526020018481526020018315158152602001821515815260200194505050505060405180910390f35b348015610b5957600080fd5b50610b8660048036036020811015610b7057600080fd5b8101908080359060200190929190505050614aef565b005b348015610b9457600080fd5b50610b9d614f87565b604051808273ffffffffffffffffffffffffffffffffffffffff16815260200191505060405180910390f35b348015610bd557600080fd5b50610c0260048036036020811015610bec57600080fd5b8101908080359060200190929190505050614fad565b6040518082600260200280838360005b83811015610c2d578082015181840152602081019050610c12565b5050505090500191505060405180910390f35b348015610c4c57600080fd5b50610c8d60048036036060811015610c6357600080fd5b8101908080359060200190929190803590602001909291908035906020019092919050505061529c565b005b348015610c9b57600080fd5b50610cc860048036036020811015610cb257600080fd5b81019080803590602001909291905050506159e4565b005b348015610cd657600080fd5b50610cdf615e97565b005b348015610ced57600080fd5b50610d1a60048036036020811015610d0457600080fd5b8101908080359060200190929190505050615f72565b005b348015610d2857600080fd5b50610d3161640a565b6040518082815260200191505060405180910390f35b348015610d5357600080fd5b50610e3d6004803603610140811015610d6b57600080fd5b810190808035906020019092919080359060200190929190803567ffffffffffffffff1690602001909291908035906020019092919080359060200190929190803573ffffffffffffffffffffffffffffffffffffffff169060200190929190803573ffffffffffffffffffffffffffffffffffffffff169060200190929190803573ffffffffffffffffffffffffffffffffffffffff169060200190929190803573ffffffffffffffffffffffffffffffffffffffff16906020019092919080359060200190929190505050616410565b005b348015610e4b57600080fd5b50610e7860048036036020811015610e6257600080fd5b8101908080359060200190929190505050616994565b005b348015610e8657600080fd5b50610ec960048036036020811015610e9d57600080fd5b81019080803573ffffffffffffffffffffffffffffffffffffffff16906020019092919050505061702d565b005b60098181548110610ed857fe5b90600052602060002090600602016000915090508060000154908060010154908060020154908060030154908060040154908060050154905086565b610f1c617222565b73ffffffffffffffffffffffffffffffffffffffff16610f3a6139ff565b73ffffffffffffffffffffffffffffffffffffffff1614610fc3576040517f08c379a00000000000000000000000000000000000000000000000000000000081526004018080602001828103825260208152602001807f4f776e61626c653a2063616c6c6572206973206e6f7420746865206f776e657281525060200191505060405180910390fd5b600060088381548110610fd257fe5b90600052602060002090600c020190506000821480610ff15750600182145b80610ffc5750600282145b806110075750600382145b806110125750600482145b611084576040517f08c379a00000000000000000000000000000000000000000000000000000000081526004018080602001828103825260198152602001807f736574506f6f6c53746174653a207374617465206572726f720000000000000081525060200191505060405180910390fd5b60008214156110b85760008160080160146101000a81548160ff021916908360048111156110ae57fe5b021790555061117e565b60018214156110ec5760018160080160146101000a81548160ff021916908360048111156110e257fe5b021790555061117d565b60028214156111205760028160080160146101000a81548160ff0219169083600481111561111657fe5b021790555061117c565b60038214156111545760038160080160146101000a81548160ff0219169083600481111561114a57fe5b021790555061117b565b60048160080160146101000a81548160ff0219169083600481111561117557fe5b02179055505b5b5b5b505050565b6000600880549050905090565b600080600883815481106111a057fe5b90600052602060002090600c020190506000600984815481106111bf57fe5b906000526020600020906006020190506111d76189be565b6111e085614fad565b90506000611263670de0b6b3a76400006112556112428560006002811061120357fe5b6020020151611234670de0b6b3a76400008860016002811061122157fe5b602002015161722a90919063ffffffff16565b6172b090919063ffffffff16565b866001015461722a90919063ffffffff16565b6172b090919063ffffffff16565b905060006112ae6305f5e1006112a061128d88600b01546305f5e1006172fa90919063ffffffff16565b876000015461722a90919063ffffffff16565b6172b090919063ffffffff16565b905080821095505050505050919050565b6000600882815481106112ce57fe5b90600052602060002090600c02016000015442119050919050565b60026000541415611362576040517f08c379a000000000000000000000000000000000000000000000000000000000815260040180806020018281038252601f8152602001807f5265656e7472616e637947756172643a207265656e7472616e742063616c6c0081525060200191505060405180910390fd5b600260008190555060001515600360009054906101000a900460ff161515146113f3576040517f08c379a00000000000000000000000000000000000000000000000000000000081526004018080602001828103825260188152602001807f5374616b6520686173206265656e2073757370656e646564000000000000000081525060200191505060405180910390fd5b816002600481111561140157fe5b6008828154811061140e57fe5b90600052602060002090600c020160080160149054906101000a900460ff16600481111561143857fe5b148061148557506003600481111561144c57fe5b6008828154811061145957fe5b90600052602060002090600c020160080160149054906101000a900460ff16600481111561148357fe5b145b6114f7576040517f08c379a00000000000000000000000000000000000000000000000000000000081526004018080602001828103825260198152602001807f73746174653a2066696e697368206c69717569646174696f6e0000000000000081525060200191505060405180910390fd5b60006008848154811061150657fe5b90600052602060002090600c0201905060006009858154811061152557fe5b906000526020600020906006020190506000841161158e576040517f08c379a0000000000000000000000000000000000000000000000000000000008152600401808060200182810382526025815260200180618a056025913960400191505060405180910390fd5b8160090160009054906101000a900473ffffffffffffffffffffffffffffffffffffffff1673ffffffffffffffffffffffffffffffffffffffff16639dc29fac33866040518363ffffffff1660e01b8152600401808373ffffffffffffffffffffffffffffffffffffffff16815260200182815260200192505050600060405180830381600087803b15801561162357600080fd5b505af1158015611637573d6000803e3d6000fd5b50505050600081600001549050600061167382611665670de0b6b3a76400008961722a90919063ffffffff16565b6172b090919063ffffffff16565b90506002600481111561168257fe5b8460080160149054906101000a900460ff16600481111561169f57fe5b1415611815578360010154421161171e576040517f08c379a00000000000000000000000000000000000000000000000000000000081526004018080602001828103825260208152602001807f77697468647261774c656e643a206c657373207468616e20656e642074696d6581525060200191505060405180910390fd5b6000611751670de0b6b3a764000061174384876002015461722a90919063ffffffff16565b6172b090919063ffffffff16565b9050611782338660070160009054906101000a900473ffffffffffffffffffffffffffffffffffffffff1683617382565b8460070160009054906101000a900473ffffffffffffffffffffffffffffffffffffffff1673ffffffffffffffffffffffffffffffffffffffff163373ffffffffffffffffffffffffffffffffffffffff167f690f32ccf3e832d5ff975d781039bc2affebee9c973939c9b710091b87954c9d838a604051808381526020018281526020019250505060405180910390a3505b6003600481111561182257fe5b8460080160149054906101000a900460ff16600481111561183f57fe5b141561199857836000015442116118a1576040517f08c379a0000000000000000000000000000000000000000000000000000000008152600401808060200182810382526022815260200180618acc6022913960400191505060405180910390fd5b60006118d4670de0b6b3a76400006118c684876004015461722a90919063ffffffff16565b6172b090919063ffffffff16565b9050611905338660070160009054906101000a900473ffffffffffffffffffffffffffffffffffffffff1683617382565b8460070160009054906101000a900473ffffffffffffffffffffffffffffffffffffffff1673ffffffffffffffffffffffffffffffffffffffff163373ffffffffffffffffffffffffffffffffffffffff167f690f32ccf3e832d5ff975d781039bc2affebee9c973939c9b710091b87954c9d838a604051808381526020018281526020019250505060405180910390a3505b505050505060016000819055505050565b60026000541415611a22576040517f08c379a000000000000000000000000000000000000000000000000000000000815260040180806020018281038252601f8152602001807f5265656e7472616e637947756172643a207265656e7472616e742063616c6c0081525060200191505060405180910390fd5b600260008190555060001515600360009054906101000a900460ff16151514611ab3576040517f08c379a00000000000000000000000000000000000000000000000000000000081526004018080602001828103825260188152602001807f5374616b6520686173206265656e2073757370656e646564000000000000000081525060200191505060405180910390fd5b8060088181548110611ac157fe5b90600052602060002090600c0201600001544211611b47576040517f08c379a00000000000000000000000000000000000000000000000000000000081526004018080602001828103825260158152602001807f477265617465207468616e20746869732074696d65000000000000000000000081525060200191505060405180910390fd5b8160016004811115611b5557fe5b60088281548110611b6257fe5b90600052602060002090600c020160080160149054906101000a900460ff166004811115611b8c57fe5b1480611bd9575060026004811115611ba057fe5b60088281548110611bad57fe5b90600052602060002090600c020160080160149054906101000a900460ff166004811115611bd757fe5b145b80611c25575060036004811115611bec57fe5b60088281548110611bf957fe5b90600052602060002090600c020160080160149054906101000a900460ff166004811115611c2357fe5b145b611c97576040517f08c379a000000000000000000000000000000000000000000000000000000000815260040180806020018281038252601b8152602001807f73746174653a206e6f74206d6174636820616e6420756e646f6e65000000000081525060200191505060405180910390fd5b600060088481548110611ca657fe5b90600052602060002090600c02019050600060098581548110611cc557fe5b906000526020600020906006020190506000600a60003373ffffffffffffffffffffffffffffffffffffffff1673ffffffffffffffffffffffffffffffffffffffff168152602001908152602001600020600087815260200190815260200160002090506000816000015411611da3576040517f08c379a000000000000000000000000000000000000000000000000000000000815260040180806020018281038252601f8152602001807f636c61696d426f72726f773a206e6f7420636c61696d206a705f746f6b656e0081525060200191505060405180910390fd5b8060020160019054906101000a900460ff1615611e28576040517f08c379a00000000000000000000000000000000000000000000000000000000081526004018080602001828103825260188152602001807f636c61696d426f72726f773a20616761696e20636c61696d000000000000000081525060200191505060405180910390fd5b6000611e5b6305f5e100611e4d8660060154866000015461722a90919063ffffffff16565b6172b090919063ffffffff16565b90506000611e948560050154611e86670de0b6b3a7640000866000015461722a90919063ffffffff16565b6172b090919063ffffffff16565b90506000611ec5670de0b6b3a7640000611eb7848661722a90919063ffffffff16565b6172b090919063ffffffff16565b905085600a0160009054906101000a900473ffffffffffffffffffffffffffffffffffffffff1673ffffffffffffffffffffffffffffffffffffffff166340c10f1933836040518363ffffffff1660e01b8152600401808373ffffffffffffffffffffffffffffffffffffffff16815260200182815260200192505050600060405180830381600087803b158015611f5c57600080fd5b505af1158015611f70573d6000803e3d6000fd5b505050506000611fa7670de0b6b3a7640000611f9985896000015461722a90919063ffffffff16565b6172b090919063ffffffff16565b9050611fd8338860070160009054906101000a900473ffffffffffffffffffffffffffffffffffffffff1683617382565b60018560020160016101000a81548160ff0219169083151502179055508660080160009054906101000a900473ffffffffffffffffffffffffffffffffffffffff1673ffffffffffffffffffffffffffffffffffffffff163373ffffffffffffffffffffffffffffffffffffffff167f3ddafe3ebb4d0c818317027aabfa82dc9983942ceeb80523167e2de047b17fbd846040518082815260200191505060405180910390a3505050505050505050600160008190555050565b600a602052816000526040600020602052806000526040600020600091509150508060000154908060010154908060020160009054906101000a900460ff16908060020160019054906101000a900460ff16905084565b600460009054906101000a900473ffffffffffffffffffffffffffffffffffffffff1681565b612117617222565b73ffffffffffffffffffffffffffffffffffffffff166121356139ff565b73ffffffffffffffffffffffffffffffffffffffff16146121be576040517f08c379a00000000000000000000000000000000000000000000000000000000081526004018080602001828103825260208152602001807f4f776e61626c653a2063616c6c6572206973206e6f7420746865206f776e657281525060200191505060405180910390fd5b6000600982815481106121cd57fe5b906000526020600020906006020190506000600883815481106121ec57fe5b90600052602060002090600c0201905080600001544211612275576040517f08c379a00000000000000000000000000000000000000000000000000000000081526004018080602001828103825260208152602001807f6e6f772074696d65206973206c657373207468616e206d617463682074696d6581525060200191505060405180910390fd5b6001600481111561228257fe5b8160080160149054906101000a900460ff16600481111561229f57fe5b146122f5576040517f08c379a0000000000000000000000000000000000000000000000000000000008152600401808060200182810382526027815260200180618b136027913960400191505060405180910390fd5b6000808260080160009054906101000a900473ffffffffffffffffffffffffffffffffffffffff168360070160009054906101000a900473ffffffffffffffffffffffffffffffffffffffff1691509150600061238f6305f5e10061238161236e6305f5e10088600201546172fa90919063ffffffff16565b886000015461722a90919063ffffffff16565b6172b090919063ffffffff16565b905060006123d46305f5e1006123c66123b76305f5e1006006546172fa90919063ffffffff16565b8561722a90919063ffffffff16565b6172b090919063ffffffff16565b9050600080612407600360019054906101000a900473ffffffffffffffffffffffffffffffffffffffff1687878661749f565b915091508381111561249c57600061242885836174fe90919063ffffffff16565b905061247b600460009054906101000a900473ffffffffffffffffffffffffffffffffffffffff168960070160009054906101000a900473ffffffffffffffffffffffffffffffffffffffff1683617382565b61248e81836174fe90919063ffffffff16565b8960040181905550506124a6565b8088600401819055505b60006124bf838a600101546174fe90919063ffffffff16565b905060006124f46007548a60080160009054906101000a900473ffffffffffffffffffffffffffffffffffffffff1684617548565b9050808a6005018190555060038960080160146101000a81548160ff0219169083600481111561252057fe5b02179055505050505050505050505050565b60065481565b612540617222565b73ffffffffffffffffffffffffffffffffffffffff1661255e6139ff565b73ffffffffffffffffffffffffffffffffffffffff16146125e7576040517f08c379a00000000000000000000000000000000000000000000000000000000081526004018080602001828103825260208152602001807f4f776e61626c653a2063616c6c6572206973206e6f7420746865206f776e657281525060200191505060405180910390fd5b600073ffffffffffffffffffffffffffffffffffffffff168173ffffffffffffffffffffffffffffffffffffffff16141561268a576040517f08c379a000000000000000000000000000000000000000000000000000000000815260040180806020018281038252600f8152602001807f4973207a65726f2061646472657373000000000000000000000000000000000081525060200191505060405180910390fd5b80600360016101000a81548173ffffffffffffffffffffffffffffffffffffffff021916908373ffffffffffffffffffffffffffffffffffffffff16021790555050565b6126d6617222565b73ffffffffffffffffffffffffffffffffffffffff166126f46139ff565b73ffffffffffffffffffffffffffffffffffffffff161461277d576040517f08c379a00000000000000000000000000000000000000000000000000000000081526004018080602001828103825260208152602001807f4f776e61626c653a2063616c6c6572206973206e6f7420746865206f776e657281525060200191505060405180910390fd5b81600681905550806007819055505050565b60026000541415612808576040517f08c379a000000000000000000000000000000000000000000000000000000000815260040180806020018281038252601f8152602001807f5265656e7472616e637947756172643a207265656e7472616e742063616c6c0081525060200191505060405180910390fd5b600260008190555060001515600360009054906101000a900460ff16151514612899576040517f08c379a00000000000000000000000000000000000000000000000000000000081526004018080602001828103825260188152602001807f5374616b6520686173206265656e2073757370656e646564000000000000000081525060200191505060405180910390fd5b82600881815481106128a757fe5b90600052602060002090600c020160000154421061292d576040517f08c379a00000000000000000000000000000000000000000000000000000000081526004018080602001828103825260138152602001807f4c657373207468616e20746869732074696d650000000000000000000000000081525060200191505060405180910390fd5b836000600481111561293b57fe5b6008828154811061294857fe5b90600052602060002090600c020160080160149054906101000a900460ff16600481111561297257fe5b146129c8576040517f08c379a0000000000000000000000000000000000000000000000000000000008152600401808060200182810382526028815260200180618b606028913960400191505060405180910390fd5b8242811015612a3f576040517f08c379a000000000000000000000000000000000000000000000000000000000815260040180806020018281038252600e8152602001807f7374616b653a204558504952454400000000000000000000000000000000000081525060200191505060405180910390fd5b600060088781548110612a4e57fe5b90600052602060002090600c020190506000600a60003373ffffffffffffffffffffffffffffffffffffffff1673ffffffffffffffffffffffffffffffffffffffff168152602001908152602001600020600089815260200190815260200160002090506000612ae28360080160009054906101000a900473ffffffffffffffffffffffffffffffffffffffff16896175c1565b905060008111612b3d576040517f08c379a0000000000000000000000000000000000000000000000000000000008152600401808060200182810382526025815260200180618aee6025913960400191505060405180910390fd5b60008260020160016101000a81548160ff02191690831515021790555060008260020160006101000a81548160ff021916908315150217905550600073ffffffffffffffffffffffffffffffffffffffff168360080160009054906101000a900473ffffffffffffffffffffffffffffffffffffffff1673ffffffffffffffffffffffffffffffffffffffff161415612c1357612be73483600001546172fa90919063ffffffff16565b8260000181905550612c063484600501546172fa90919063ffffffff16565b8360050181905550612c52565b612c2a8883600001546172fa90919063ffffffff16565b8260000181905550612c498884600501546172fa90919063ffffffff16565b83600501819055505b8260080160009054906101000a900473ffffffffffffffffffffffffffffffffffffffff1673ffffffffffffffffffffffffffffffffffffffff163373ffffffffffffffffffffffffffffffffffffffff167f1d7b72e666a0b6217efe7cfa1b604ea5c7b39219563ce48b30c9da77045247a58a84604051808381526020018281526020019250505060405180910390a35050505050506001600081905550505050565b60088181548110612d0357fe5b90600052602060002090600c02016000915090508060000154908060010154908060020154908060030154908060040154908060050154908060060154908060070160009054906101000a900473ffffffffffffffffffffffffffffffffffffffff16908060080160009054906101000a900473ffffffffffffffffffffffffffffffffffffffff16908060080160149054906101000a900460ff16908060090160009054906101000a900473ffffffffffffffffffffffffffffffffffffffff169080600a0160009054906101000a900473ffffffffffffffffffffffffffffffffffffffff169080600b015490508d565b600360009054906101000a900460ff1681565b600060088281548110612e1857fe5b90600052602060002090600c02016001015442119050919050565b60026000541415612eac576040517f08c379a000000000000000000000000000000000000000000000000000000000815260040180806020018281038252601f8152602001807f5265656e7472616e637947756172643a207265656e7472616e742063616c6c0081525060200191505060405180910390fd5b600260008190555060001515600360009054906101000a900460ff16151514612f3d576040517f08c379a00000000000000000000000000000000000000000000000000000000081526004018080602001828103825260188152602001807f5374616b6520686173206265656e2073757370656e646564000000000000000081525060200191505060405180910390fd5b8060088181548110612f4b57fe5b90600052602060002090600c0201600001544211612fd1576040517f08c379a00000000000000000000000000000000000000000000000000000000081526004018080602001828103825260158152602001807f477265617465207468616e20746869732074696d65000000000000000000000081525060200191505060405180910390fd5b8160016004811115612fdf57fe5b60088281548110612fec57fe5b90600052602060002090600c020160080160149054906101000a900460ff16600481111561301657fe5b148061306357506002600481111561302a57fe5b6008828154811061303757fe5b90600052602060002090600c020160080160149054906101000a900460ff16600481111561306157fe5b145b806130af57506003600481111561307657fe5b6008828154811061308357fe5b90600052602060002090600c020160080160149054906101000a900460ff1660048111156130ad57fe5b145b613121576040517f08c379a000000000000000000000000000000000000000000000000000000000815260040180806020018281038252601b8152602001807f73746174653a206e6f74206d6174636820616e6420756e646f6e65000000000081525060200191505060405180910390fd5b60006008848154811061313057fe5b90600052602060002090600c0201905060006009858154811061314f57fe5b906000526020600020906006020190506000600b60003373ffffffffffffffffffffffffffffffffffffffff1673ffffffffffffffffffffffffffffffffffffffff16815260200190815260200160002060008781526020019081526020016000209050600081600001541161322d576040517f08c379a000000000000000000000000000000000000000000000000000000000815260040180806020018281038252601d8152602001807f636c61696d4c656e643a206e6f7420636c61696d2073705f746f6b656e00000081525060200191505060405180910390fd5b8060020160019054906101000a900460ff16156132b2576040517f08c379a00000000000000000000000000000000000000000000000000000000081526004018080602001828103825260168152602001807f636c61696d4c656e643a20616761696e20636c61696d0000000000000000000081525060200191505060405180910390fd5b60006132e984600401546132db670de0b6b3a7640000856000015461722a90919063ffffffff16565b6172b090919063ffffffff16565b90506000836000015490506000613323670de0b6b3a7640000613315858561722a90919063ffffffff16565b6172b090919063ffffffff16565b90508560090160009054906101000a900473ffffffffffffffffffffffffffffffffffffffff1673ffffffffffffffffffffffffffffffffffffffff166340c10f1933836040518363ffffffff1660e01b8152600401808373ffffffffffffffffffffffffffffffffffffffff16815260200182815260200192505050600060405180830381600087803b1580156133ba57600080fd5b505af11580156133ce573d6000803e3d6000fd5b5050505060018460020160016101000a81548160ff0219169083151502179055508560080160009054906101000a900473ffffffffffffffffffffffffffffffffffffffff1673ffffffffffffffffffffffffffffffffffffffff163373ffffffffffffffffffffffffffffffffffffffff167f6f4dd2687b3c3bfa99d39742b01d6e0ad9604c48559791d5df4ff5df44b41dfd836040518082815260200191505060405180910390a35050505050505050600160008190555050565b613493617222565b73ffffffffffffffffffffffffffffffffffffffff166134b16139ff565b73ffffffffffffffffffffffffffffffffffffffff161461353a576040517f08c379a00000000000000000000000000000000000000000000000000000000081526004018080602001828103825260208152602001807f4f776e61626c653a2063616c6c6572206973206e6f7420746865206f776e657281525060200191505060405180910390fd5b600073ffffffffffffffffffffffffffffffffffffffff16600160009054906101000a900473ffffffffffffffffffffffffffffffffffffffff1673ffffffffffffffffffffffffffffffffffffffff167f8be0079c531659141344cd1fd0a4f28419497f9722a3daafe3b4186f6b6457e060405160405180910390a36000600160006101000a81548173ffffffffffffffffffffffffffffffffffffffff021916908373ffffffffffffffffffffffffffffffffffffffff160217905550565b613603617222565b73ffffffffffffffffffffffffffffffffffffffff166136216139ff565b73ffffffffffffffffffffffffffffffffffffffff16146136aa576040517f08c379a00000000000000000000000000000000000000000000000000000000081526004018080602001828103825260208152602001807f4f776e61626c653a2063616c6c6572206973206e6f7420746865206f776e657281525060200191505060405180910390fd5b83600881815481106136b857fe5b90600052602060002090600c020160000154421061373e576040517f08c379a00000000000000000000000000000000000000000000000000000000081526004018080602001828103825260138152602001807f4c657373207468616e20746869732074696d650000000000000000000000000081525060200191505060405180910390fd5b60006008868154811061374d57fe5b90600052602060002090600c020190508467ffffffffffffffff1681600201819055508381600301819055508281600b0181905550505050505050565b600560009054906101000a900473ffffffffffffffffffffffffffffffffffffffff1681565b6137b8617222565b73ffffffffffffffffffffffffffffffffffffffff166137d66139ff565b73ffffffffffffffffffffffffffffffffffffffff161461385f576040517f08c379a00000000000000000000000000000000000000000000000000000000081526004018080602001828103825260208152602001807f4f776e61626c653a2063616c6c6572206973206e6f7420746865206f776e657281525060200191505060405180910390fd5b600073ffffffffffffffffffffffffffffffffffffffff168173ffffffffffffffffffffffffffffffffffffffff161415613902576040517f08c379a000000000000000000000000000000000000000000000000000000000815260040180806020018281038252600f8152602001807f4973207a65726f2061646472657373000000000000000000000000000000000081525060200191505060405180910390fd5b80600460006101000a81548173ffffffffffffffffffffffffffffffffffffffff021916908373ffffffffffffffffffffffffffffffffffffffff16021790555050565b61394e617222565b73ffffffffffffffffffffffffffffffffffffffff1661396c6139ff565b73ffffffffffffffffffffffffffffffffffffffff16146139f5576040517f08c379a00000000000000000000000000000000000000000000000000000000081526004018080602001828103825260208152602001807f4f776e61626c653a2063616c6c6572206973206e6f7420746865206f776e657281525060200191505060405180910390fd5b8060028190555050565b6000600160009054906101000a900473ffffffffffffffffffffffffffffffffffffffff16905090565b613a31617222565b73ffffffffffffffffffffffffffffffffffffffff16613a4f6139ff565b73ffffffffffffffffffffffffffffffffffffffff1614613ad8576040517f08c379a00000000000000000000000000000000000000000000000000000000081526004018080602001828103825260208152602001807f4f776e61626c653a2063616c6c6572206973206e6f7420746865206f776e657281525060200191505060405180910390fd5b600060088281548110613ae757fe5b90600052602060002090600c02019050600060098381548110613b0657fe5b9060005260206000209060060201905060088381548110613b2357fe5b90600052602060002090600c0201600001544211613ba9576040517f08c379a000000000000000000000000000000000000000000000000000000000815260040180806020018281038252601c8152602001807f736574746c653a206c657373207468616e20736574746c6554696d650000000081525060200191505060405180910390fd5b60006004811115613bb657fe5b8260080160149054906101000a900460ff166004811115613bd357fe5b14613c46576040517f08c379a00000000000000000000000000000000000000000000000000000000081526004018080602001828103825260208152602001807f736574746c653a20706f6f6c207374617465206d757374206265206d6174636881525060200191505060405180910390fd5b60008260040154118015613c5e575060008260050154115b15613e0c57613c6b6189be565b613c7484614fad565b90506000613cf7670de0b6b3a7640000613ce9613cd685600060028110613c9757fe5b6020020151613cc8670de0b6b3a764000088600160028110613cb557fe5b602002015161722a90919063ffffffff16565b6172b090919063ffffffff16565b876005015461722a90919063ffffffff16565b6172b090919063ffffffff16565b90506000613d288560060154613d1a6305f5e1008561722a90919063ffffffff16565b6172b090919063ffffffff16565b90508085600401541115613d515780846000018190555084600501548460010181905550613dde565b84600401548460000181905550613dd5613dac84600060028110613d7157fe5b6020020151613d9e6305f5e10087600160028110613d8b57fe5b602002015161722a90919063ffffffff16565b6172b090919063ffffffff16565b613dc78760060154886004015461722a90919063ffffffff16565b6172b090919063ffffffff16565b84600101819055505b60018560080160146101000a81548160ff02191690836004811115613dff57fe5b0217905550505050613e4d565b60048260080160146101000a81548160ff02191690836004811115613e2d57fe5b021790555081600401548160000181905550816005015481600101819055505b505050565b60026000541415613ecb576040517f08c379a000000000000000000000000000000000000000000000000000000000815260040180806020018281038252601f8152602001807f5265656e7472616e637947756172643a207265656e7472616e742063616c6c0081525060200191505060405180910390fd5b600260008190555060001515600360009054906101000a900460ff16151514613f5c576040517f08c379a00000000000000000000000000000000000000000000000000000000081526004018080602001828103825260188152602001807f5374616b6520686173206265656e2073757370656e646564000000000000000081525060200191505060405180910390fd5b8160088181548110613f6a57fe5b90600052602060002090600c0201600001544210613ff0576040517f08c379a00000000000000000000000000000000000000000000000000000000081526004018080602001828103825260138152602001807f4c657373207468616e20746869732074696d650000000000000000000000000081525060200191505060405180910390fd5b8260006004811115613ffe57fe5b6008828154811061400b57fe5b90600052602060002090600c020160080160149054906101000a900460ff16600481111561403557fe5b1461408b576040517f08c379a0000000000000000000000000000000000000000000000000000000008152600401808060200182810382526028815260200180618b606028913960400191505060405180910390fd5b60006008858154811061409a57fe5b90600052602060002090600c020190506000600b60003373ffffffffffffffffffffffffffffffffffffffff1673ffffffffffffffffffffffffffffffffffffffff16815260200190815260200160002060008781526020019081526020016000209050614119826004015483600301546174fe90919063ffffffff16565b851115614171576040517f08c379a000000000000000000000000000000000000000000000000000000000815260040180806020018281038252602b815260200180618a7a602b913960400191505060405180910390fd5b60006141a18360070160009054906101000a900473ffffffffffffffffffffffffffffffffffffffff16876175c1565b905060025481116141fd576040517f08c379a0000000000000000000000000000000000000000000000000000000008152600401808060200182810382526021815260200180618ba96021913960400191505060405180910390fd5b60008260020160016101000a81548160ff02191690831515021790555060008260020160006101000a81548160ff021916908315150217905550600073ffffffffffffffffffffffffffffffffffffffff168360070160009054906101000a900473ffffffffffffffffffffffffffffffffffffffff1673ffffffffffffffffffffffffffffffffffffffff1614156142d3576142a73483600001546172fa90919063ffffffff16565b82600001819055506142c63484600401546172fa90919063ffffffff16565b8360040181905550614312565b6142ea8683600001546172fa90919063ffffffff16565b82600001819055506143098684600401546172fa90919063ffffffff16565b83600401819055505b8260070160009054906101000a900473ffffffffffffffffffffffffffffffffffffffff1673ffffffffffffffffffffffffffffffffffffffff163373ffffffffffffffffffffffffffffffffffffffff167f129e8c18c2f7baf99c7eb257934c21f038c72412803512dcf0a942a4562a82ea8884604051808381526020018281526020019250505060405180910390a3505050505060016000819055505050565b60025481565b60026000541415614433576040517f08c379a000000000000000000000000000000000000000000000000000000000815260040180806020018281038252601f8152602001807f5265656e7472616e637947756172643a207265656e7472616e742063616c6c0081525060200191505060405180910390fd5b600260008190555060001515600360009054906101000a900460ff161515146144c4576040517f08c379a00000000000000000000000000000000000000000000000000000000081526004018080602001828103825260188152602001807f5374616b6520686173206265656e2073757370656e646564000000000000000081525060200191505060405180910390fd5b80600881815481106144d257fe5b90600052602060002090600c0201600001544211614558576040517f08c379a00000000000000000000000000000000000000000000000000000000081526004018080602001828103825260158152602001807f477265617465207468616e20746869732074696d65000000000000000000000081525060200191505060405180910390fd5b816001600481111561456657fe5b6008828154811061457357fe5b90600052602060002090600c020160080160149054906101000a900460ff16600481111561459d57fe5b14806145ea5750600260048111156145b157fe5b600882815481106145be57fe5b90600052602060002090600c020160080160149054906101000a900460ff1660048111156145e857fe5b145b806146365750600360048111156145fd57fe5b6008828154811061460a57fe5b90600052602060002090600c020160080160149054906101000a900460ff16600481111561463457fe5b145b6146a8576040517f08c379a000000000000000000000000000000000000000000000000000000000815260040180806020018281038252601b8152602001807f73746174653a206e6f74206d6174636820616e6420756e646f6e65000000000081525060200191505060405180910390fd5b6000600884815481106146b757fe5b90600052602060002090600c020190506000600985815481106146d657fe5b906000526020600020906006020190506000600a60003373ffffffffffffffffffffffffffffffffffffffff1673ffffffffffffffffffffffffffffffffffffffff168152602001908152602001600020600087815260200190815260200160002090506000614757836001015485600501546174fe90919063ffffffff16565b116147ca576040517f08c379a00000000000000000000000000000000000000000000000000000000081526004018080602001828103825260188152602001807f726566756e64426f72726f773a206e6f7420726566756e64000000000000000081525060200191505060405180910390fd5b6000816000015411614844576040517f08c379a00000000000000000000000000000000000000000000000000000000081526004018080602001828103825260198152602001807f726566756e64426f72726f773a206e6f7420706c65646765640000000000000081525060200191505060405180910390fd5b8060020160009054906101000a900460ff16156148c9576040517f08c379a000000000000000000000000000000000000000000000000000000000815260040180806020018281038252601a8152602001807f726566756e64426f72726f773a20616761696e20726566756e6400000000000081525060200191505060405180910390fd5b600061490084600501546148f2670de0b6b3a7640000856000015461722a90919063ffffffff16565b6172b090919063ffffffff16565b9050600061494b670de0b6b3a764000061493d8461492f88600101548a600501546174fe90919063ffffffff16565b61722a90919063ffffffff16565b6172b090919063ffffffff16565b905061497c338660080160009054906101000a900473ffffffffffffffffffffffffffffffffffffffff1683617382565b6149938184600101546172fa90919063ffffffff16565b836001018190555060018360020160006101000a81548160ff0219169083151502179055508460080160009054906101000a900473ffffffffffffffffffffffffffffffffffffffff1673ffffffffffffffffffffffffffffffffffffffff163373ffffffffffffffffffffffffffffffffffffffff167f732816f48de550f238bd0d4f5b79819c7b24a49d6132928978e3cd36568dd5db836040518082815260200191505060405180910390a350505050505050600160008190555050565b60008060088381548110614a6357fe5b90600052602060002090600c020190508060080160149054906101000a900460ff166004811115614a9057fe5b915050919050565b600b602052816000526040600020602052806000526040600020600091509150508060000154908060010154908060020160009054906101000a900460ff16908060020160019054906101000a900460ff16905084565b60026000541415614b68576040517f08c379a000000000000000000000000000000000000000000000000000000000815260040180806020018281038252601f8152602001807f5265656e7472616e637947756172643a207265656e7472616e742063616c6c0081525060200191505060405180910390fd5b600260008190555060001515600360009054906101000a900460ff16151514614bf9576040517f08c379a00000000000000000000000000000000000000000000000000000000081526004018080602001828103825260188152602001807f5374616b6520686173206265656e2073757370656e646564000000000000000081525060200191505060405180910390fd5b80600480811115614c0657fe5b60088281548110614c1357fe5b90600052602060002090600c020160080160149054906101000a900460ff166004811115614c3d57fe5b14614cb0576040517f08c379a000000000000000000000000000000000000000000000000000000000815260040180806020018281038252601b8152602001807f73746174653a207374617465206d75737420626520756e646f6e65000000000081525060200191505060405180910390fd5b600060088381548110614cbf57fe5b90600052602060002090600c020190506000816004015411614d49576040517f08c379a000000000000000000000000000000000000000000000000000000000815260040180806020018281038252601c8152602001807f656d657267656e634c656e643a206e6f74207769746864726177616c0000000081525060200191505060405180910390fd5b6000600b60003373ffffffffffffffffffffffffffffffffffffffff1673ffffffffffffffffffffffffffffffffffffffff168152602001908152602001600020600085815260200190815260200160002090506000816000015411614e17576040517f08c379a00000000000000000000000000000000000000000000000000000000081526004018080602001828103825260178152602001807f726566756e644c656e643a206e6f7420706c656467656400000000000000000081525060200191505060405180910390fd5b8060020160009054906101000a900460ff1615614e9c576040517f08c379a00000000000000000000000000000000000000000000000000000000081526004018080602001828103825260188152602001807f726566756e644c656e643a20616761696e20726566756e64000000000000000081525060200191505060405180910390fd5b614ecf338360070160009054906101000a900473ffffffffffffffffffffffffffffffffffffffff168360000154617382565b60018160020160006101000a81548160ff0219169083151502179055508160070160009054906101000a900473ffffffffffffffffffffffffffffffffffffffff1673ffffffffffffffffffffffffffffffffffffffff163373ffffffffffffffffffffffffffffffffffffffff167f71d14c5f08cb34cbfb59c06ea5151aafbf742d0b6ed00fdb83addd9afb5c0fd083600001546040518082815260200191505060405180910390a3505050600160008190555050565b600360019054906101000a900473ffffffffffffffffffffffffffffffffffffffff1681565b614fb56189be565b600060088381548110614fc457fe5b90600052602060002090600c020190506060600267ffffffffffffffff81118015614fee57600080fd5b5060405190808252806020026020018201604052801561501d5781602001602082028036833780820191505090505b5090508160070160009054906101000a900473ffffffffffffffffffffffffffffffffffffffff1673ffffffffffffffffffffffffffffffffffffffff168160008151811061506857fe5b6020026020010181815250508160080160009054906101000a900473ffffffffffffffffffffffffffffffffffffffff1673ffffffffffffffffffffffffffffffffffffffff16816001815181106150bc57fe5b6020026020010181815250506060600560009054906101000a900473ffffffffffffffffffffffffffffffffffffffff1673ffffffffffffffffffffffffffffffffffffffff166309cb3a4e836040518263ffffffff1660e01b81526004018080602001828103825283818151815260200191508051906020019060200280838360005b8381101561515b578082015181840152602081019050615140565b505050509050019250505060006040518083038186803b15801561517e57600080fd5b505afa158015615192573d6000803e3d6000fd5b505050506040513d6000823e3d601f19601f8201168201806040525060208110156151bc57600080fd5b81019080805160405193929190846401000000008211156151dc57600080fd5b838201915060208201858111156151f257600080fd5b825186602082028301116401000000008211171561520f57600080fd5b8083526020830192505050908051906020019060200280838360005b8381101561524657808201518184015260208101905061522b565b50505050905001604052505050905060405180604001604052808260008151811061526d57fe5b602002602001015181526020018260018151811061528757fe5b60200260200101518152509350505050919050565b60026000541415615315576040517f08c379a000000000000000000000000000000000000000000000000000000000815260040180806020018281038252601f8152602001807f5265656e7472616e637947756172643a207265656e7472616e742063616c6c0081525060200191505060405180910390fd5b600260008190555060001515600360009054906101000a900460ff161515146153a6576040517f08c379a00000000000000000000000000000000000000000000000000000000081526004018080602001828103825260188152602001807f5374616b6520686173206265656e2073757370656e646564000000000000000081525060200191505060405180910390fd5b804281101561541d576040517f08c379a000000000000000000000000000000000000000000000000000000000815260040180806020018281038252600e8152602001807f7374616b653a204558504952454400000000000000000000000000000000000081525060200191505060405180910390fd5b836002600481111561542b57fe5b6008828154811061543857fe5b90600052602060002090600c020160080160149054906101000a900460ff16600481111561546257fe5b14806154af57506003600481111561547657fe5b6008828154811061548357fe5b90600052602060002090600c020160080160149054906101000a900460ff1660048111156154ad57fe5b145b615521576040517f08c379a00000000000000000000000000000000000000000000000000000000081526004018080602001828103825260198152602001807f73746174653a2066696e697368206c69717569646174696f6e0000000000000081525060200191505060405180910390fd5b60006008868154811061553057fe5b90600052602060002090600c0201905060006009878154811061554f57fe5b90600052602060002090600602019050600086116155b8576040517f08c379a0000000000000000000000000000000000000000000000000000000008152600401808060200182810382526027815260200180618aa56027913960400191505060405180910390fd5b81600a0160009054906101000a900473ffffffffffffffffffffffffffffffffffffffff1673ffffffffffffffffffffffffffffffffffffffff16639dc29fac33886040518363ffffffff1660e01b8152600401808373ffffffffffffffffffffffffffffffffffffffff16815260200182815260200192505050600060405180830381600087803b15801561564d57600080fd5b505af1158015615661573d6000803e3d6000fd5b5050505060006156986305f5e10061568a8560060154856000015461722a90919063ffffffff16565b6172b090919063ffffffff16565b905060006156c9826156bb670de0b6b3a76400008b61722a90919063ffffffff16565b6172b090919063ffffffff16565b9050600260048111156156d857fe5b8460080160149054906101000a900460ff1660048111156156f557fe5b141561584e5783600101544211615757576040517f08c379a0000000000000000000000000000000000000000000000000000000008152600401808060200182810382526022815260200180618c186022913960400191505060405180910390fd5b600061578a670de0b6b3a764000061577c86600301548561722a90919063ffffffff16565b6172b090919063ffffffff16565b90506157bb338660080160009054906101000a900473ffffffffffffffffffffffffffffffffffffffff1683617382565b8460080160009054906101000a900473ffffffffffffffffffffffffffffffffffffffff1673ffffffffffffffffffffffffffffffffffffffff163373ffffffffffffffffffffffffffffffffffffffff167f0f5e74952c2f9259a748f3aa9a6c4534a6f46a5966e5baabdb6bd337f05234a88b84604051808381526020018281526020019250505060405180910390a3505b6003600481111561585b57fe5b8460080160149054906101000a900460ff16600481111561587857fe5b14156159d157836000015442116158da576040517f08c379a00000000000000000000000000000000000000000000000000000000081526004018080602001828103825260248152602001806189e16024913960400191505060405180910390fd5b600061590d670de0b6b3a76400006158ff86600501548561722a90919063ffffffff16565b6172b090919063ffffffff16565b905061593e338660080160009054906101000a900473ffffffffffffffffffffffffffffffffffffffff1683617382565b8460080160009054906101000a900473ffffffffffffffffffffffffffffffffffffffff1673ffffffffffffffffffffffffffffffffffffffff163373ffffffffffffffffffffffffffffffffffffffff167f0f5e74952c2f9259a748f3aa9a6c4534a6f46a5966e5baabdb6bd337f05234a88b84604051808381526020018281526020019250505060405180910390a3505b5050505050506001600081905550505050565b6159ec617222565b73ffffffffffffffffffffffffffffffffffffffff16615a0a6139ff565b73ffffffffffffffffffffffffffffffffffffffff1614615a93576040517f08c379a00000000000000000000000000000000000000000000000000000000081526004018080602001828103825260208152602001807f4f776e61626c653a2063616c6c6572206973206e6f7420746865206f776e657281525060200191505060405180910390fd5b600060088281548110615aa257fe5b90600052602060002090600c02019050600060098381548110615ac157fe5b9060005260206000209060060201905060088381548110615ade57fe5b90600052602060002090600c0201600101544211615b64576040517f08c379a000000000000000000000000000000000000000000000000000000000815260040180806020018281038252601a8152602001807f66696e6973683a206c657373207468616e20656e642074696d6500000000000081525060200191505060405180910390fd5b60016004811115615b7157fe5b8260080160149054906101000a900460ff166004811115615b8e57fe5b14615be4576040517f08c379a0000000000000000000000000000000000000000000000000000000008152600401808060200182810382526024815260200180618bca6024913960400191505060405180910390fd5b6000808360080160009054906101000a900473ffffffffffffffffffffffffffffffffffffffff168460070160009054906101000a900473ffffffffffffffffffffffffffffffffffffffff16915091506000615c7e6305f5e100615c70615c5d6305f5e10089600201546172fa90919063ffffffff16565b876000015461722a90919063ffffffff16565b6172b090919063ffffffff16565b90506000615cc36305f5e100615cb5615ca66305f5e1006006546172fa90919063ffffffff16565b8561722a90919063ffffffff16565b6172b090919063ffffffff16565b9050600080615cf6600360019054906101000a900473ffffffffffffffffffffffffffffffffffffffff1687878661749f565b9150915083811015615d70576040517f08c379a000000000000000000000000000000000000000000000000000000000815260040180806020018281038252601c8152602001807f66696e6973683a20536c69707061676520697320746f6f20686967680000000081525060200191505060405180910390fd5b83811115615e01576000615d8d85836174fe90919063ffffffff16565b9050615de0600460009054906101000a900473ffffffffffffffffffffffffffffffffffffffff168a60070160009054906101000a900473ffffffffffffffffffffffffffffffffffffffff1683617382565b615df381836174fe90919063ffffffff16565b886002018190555050615e0b565b8087600201819055505b6000615e248389600101546174fe90919063ffffffff16565b90506000615e596006548b60080160009054906101000a900473ffffffffffffffffffffffffffffffffffffffff1684617548565b905080896003018190555060028a60080160146101000a81548160ff02191690836004811115615e8557fe5b02179055505050505050505050505050565b615e9f617222565b73ffffffffffffffffffffffffffffffffffffffff16615ebd6139ff565b73ffffffffffffffffffffffffffffffffffffffff1614615f46576040517f08c379a00000000000000000000000000000000000000000000000000000000081526004018080602001828103825260208152602001807f4f776e61626c653a2063616c6c6572206973206e6f7420746865206f776e657281525060200191505060405180910390fd5b600360009054906101000a900460ff1615600360006101000a81548160ff021916908315150217905550565b60026000541415615feb576040517f08c379a000000000000000000000000000000000000000000000000000000000815260040180806020018281038252601f8152602001807f5265656e7472616e637947756172643a207265656e7472616e742063616c6c0081525060200191505060405180910390fd5b600260008190555060001515600360009054906101000a900460ff1615151461607c576040517f08c379a00000000000000000000000000000000000000000000000000000000081526004018080602001828103825260188152602001807f5374616b6520686173206265656e2073757370656e646564000000000000000081525060200191505060405180910390fd5b8060048081111561608957fe5b6008828154811061609657fe5b90600052602060002090600c020160080160149054906101000a900460ff1660048111156160c057fe5b14616133576040517f08c379a000000000000000000000000000000000000000000000000000000000815260040180806020018281038252601b8152602001807f73746174653a207374617465206d75737420626520756e646f6e65000000000081525060200191505060405180910390fd5b60006008838154811061614257fe5b90600052602060002090600c0201905060008160050154116161cc576040517f08c379a000000000000000000000000000000000000000000000000000000000815260040180806020018281038252601f8152602001807f656d657267656e6379426f72726f773a206e6f74207769746864726177616c0081525060200191505060405180910390fd5b6000600a60003373ffffffffffffffffffffffffffffffffffffffff1673ffffffffffffffffffffffffffffffffffffffff16815260200190815260200160002060008581526020019081526020016000209050600081600001541161629a576040517f08c379a00000000000000000000000000000000000000000000000000000000081526004018080602001828103825260198152602001807f726566756e64426f72726f773a206e6f7420706c65646765640000000000000081525060200191505060405180910390fd5b8060020160009054906101000a900460ff161561631f576040517f08c379a000000000000000000000000000000000000000000000000000000000815260040180806020018281038252601a8152602001807f726566756e64426f72726f773a20616761696e20726566756e6400000000000081525060200191505060405180910390fd5b616352338360080160009054906101000a900473ffffffffffffffffffffffffffffffffffffffff168360000154617382565b60018160020160006101000a81548160ff0219169083151502179055508160080160009054906101000a900473ffffffffffffffffffffffffffffffffffffffff1673ffffffffffffffffffffffffffffffffffffffff163373ffffffffffffffffffffffffffffffffffffffff167f5a06c7de92f1dc59e8cba872927d016c80ce5f0fb2295c898dfb7a2f08e43fb183600001546040518082815260200191505060405180910390a3505050600160008190555050565b60075481565b616418617222565b73ffffffffffffffffffffffffffffffffffffffff166164366139ff565b73ffffffffffffffffffffffffffffffffffffffff16146164bf576040517f08c379a00000000000000000000000000000000000000000000000000000000081526004018080602001828103825260208152602001807f4f776e61626c653a2063616c6c6572206973206e6f7420746865206f776e657281525060200191505060405180910390fd5b898911616517576040517f08c379a000000000000000000000000000000000000000000000000000000000815260040180806020018281038252602a815260200180618a2a602a913960400191505060405180910390fd5b600073ffffffffffffffffffffffffffffffffffffffff168273ffffffffffffffffffffffffffffffffffffffff1614156165ba576040517f08c379a000000000000000000000000000000000000000000000000000000000815260040180806020018281038252601a8152602001807f637265617465506f6f6c3a6973207a65726f206164647265737300000000000081525060200191505060405180910390fd5b600073ffffffffffffffffffffffffffffffffffffffff168373ffffffffffffffffffffffffffffffffffffffff16141561665d576040517f08c379a000000000000000000000000000000000000000000000000000000000815260040180806020018281038252601a8152602001807f637265617465506f6f6c3a6973207a65726f206164647265737300000000000081525060200191505060405180910390fd5b6008604051806101a001604052808c81526020018b81526020018a67ffffffffffffffff16815260200189815260200160008152602001600081526020018881526020018773ffffffffffffffffffffffffffffffffffffffff1681526020018673ffffffffffffffffffffffffffffffffffffffff168152602001600060048111156166e657fe5b81526020018573ffffffffffffffffffffffffffffffffffffffff1681526020018473ffffffffffffffffffffffffffffffffffffffff1681526020018381525090806001815401808255809150506001900390600052602060002090600c0201600090919091909150600082015181600001556020820151816001015560408201518160020155606082015181600301556080820151816004015560a0820151816005015560c0820151816006015560e08201518160070160006101000a81548173ffffffffffffffffffffffffffffffffffffffff021916908373ffffffffffffffffffffffffffffffffffffffff1602179055506101008201518160080160006101000a81548173ffffffffffffffffffffffffffffffffffffffff021916908373ffffffffffffffffffffffffffffffffffffffff1602179055506101208201518160080160146101000a81548160ff0219169083600481111561684a57fe5b02179055506101408201518160090160006101000a81548173ffffffffffffffffffffffffffffffffffffffff021916908373ffffffffffffffffffffffffffffffffffffffff16021790555061016082015181600a0160006101000a81548173ffffffffffffffffffffffffffffffffffffffff021916908373ffffffffffffffffffffffffffffffffffffffff16021790555061018082015181600b0155505060096040518060c00160405280600081526020016000815260200160008152602001600081526020016000815260200160008152509080600181540180825580915050600190039060005260206000209060060201600090919091909150600082015181600001556020820151816001015560408201518160020155606082015181600301556080820151816004015560a08201518160050155505050505050505050505050565b60026000541415616a0d576040517f08c379a000000000000000000000000000000000000000000000000000000000815260040180806020018281038252601f8152602001807f5265656e7472616e637947756172643a207265656e7472616e742063616c6c0081525060200191505060405180910390fd5b600260008190555060001515600360009054906101000a900460ff16151514616a9e576040517f08c379a00000000000000000000000000000000000000000000000000000000081526004018080602001828103825260188152602001807f5374616b6520686173206265656e2073757370656e646564000000000000000081525060200191505060405180910390fd5b8060088181548110616aac57fe5b90600052602060002090600c0201600001544211616b32576040517f08c379a00000000000000000000000000000000000000000000000000000000081526004018080602001828103825260158152602001807f477265617465207468616e20746869732074696d65000000000000000000000081525060200191505060405180910390fd5b8160016004811115616b4057fe5b60088281548110616b4d57fe5b90600052602060002090600c020160080160149054906101000a900460ff166004811115616b7757fe5b1480616bc4575060026004811115616b8b57fe5b60088281548110616b9857fe5b90600052602060002090600c020160080160149054906101000a900460ff166004811115616bc257fe5b145b80616c10575060036004811115616bd757fe5b60088281548110616be457fe5b90600052602060002090600c020160080160149054906101000a900460ff166004811115616c0e57fe5b145b616c82576040517f08c379a000000000000000000000000000000000000000000000000000000000815260040180806020018281038252601b8152602001807f73746174653a206e6f74206d6174636820616e6420756e646f6e65000000000081525060200191505060405180910390fd5b600060088481548110616c9157fe5b90600052602060002090600c02019050600060098581548110616cb057fe5b906000526020600020906006020190506000600b60003373ffffffffffffffffffffffffffffffffffffffff1673ffffffffffffffffffffffffffffffffffffffff168152602001908152602001600020600087815260200190815260200160002090506000816000015411616d8e576040517f08c379a00000000000000000000000000000000000000000000000000000000081526004018080602001828103825260178152602001807f726566756e644c656e643a206e6f7420706c656467656400000000000000000081525060200191505060405180910390fd5b6000616dab836000015485600401546174fe90919063ffffffff16565b11616e1e576040517f08c379a00000000000000000000000000000000000000000000000000000000081526004018080602001828103825260168152602001807f726566756e644c656e643a206e6f7420726566756e640000000000000000000081525060200191505060405180910390fd5b8060020160009054906101000a900460ff1615616ea3576040517f08c379a00000000000000000000000000000000000000000000000000000000081526004018080602001828103825260198152602001807f726566756e644c656e643a2072657065617420726566756e640000000000000081525060200191505060405180910390fd5b6000616eda8460040154616ecc670de0b6b3a7640000856000015461722a90919063ffffffff16565b6172b090919063ffffffff16565b90506000616f25670de0b6b3a7640000616f1784616f0988600001548a600401546174fe90919063ffffffff16565b61722a90919063ffffffff16565b6172b090919063ffffffff16565b9050616f56338660070160009054906101000a900473ffffffffffffffffffffffffffffffffffffffff1683617382565b60018360020160006101000a81548160ff021916908315150217905550616f8a8184600101546172fa90919063ffffffff16565b83600101819055508460070160009054906101000a900473ffffffffffffffffffffffffffffffffffffffff1673ffffffffffffffffffffffffffffffffffffffff163373ffffffffffffffffffffffffffffffffffffffff167fc3e20279d41b3ed21d277920877e5e5c6665bf6aca607046a3fe0fd2bd6bda7d836040518082815260200191505060405180910390a350505050505050600160008190555050565b617035617222565b73ffffffffffffffffffffffffffffffffffffffff166170536139ff565b73ffffffffffffffffffffffffffffffffffffffff16146170dc576040517f08c379a00000000000000000000000000000000000000000000000000000000081526004018080602001828103825260208152602001807f4f776e61626c653a2063616c6c6572206973206e6f7420746865206f776e657281525060200191505060405180910390fd5b600073ffffffffffffffffffffffffffffffffffffffff168173ffffffffffffffffffffffffffffffffffffffff161415617162576040517f08c379a0000000000000000000000000000000000000000000000000000000008152600401808060200182810382526026815260200180618a546026913960400191505060405180910390fd5b8073ffffffffffffffffffffffffffffffffffffffff16600160009054906101000a900473ffffffffffffffffffffffffffffffffffffffff1673ffffffffffffffffffffffffffffffffffffffff167f8be0079c531659141344cd1fd0a4f28419497f9722a3daafe3b4186f6b6457e060405160405180910390a380600160006101000a81548173ffffffffffffffffffffffffffffffffffffffff021916908373ffffffffffffffffffffffffffffffffffffffff16021790555050565b600033905090565b60008083141561723d57600090506172aa565b600082840290508284828161724e57fe5b04146172a5576040517f08c379a0000000000000000000000000000000000000000000000000000000008152600401808060200182810382526021815260200180618b886021913960400191505060405180910390fd5b809150505b92915050565b60006172f283836040518060400160405280601a81526020017f536166654d6174683a206469766973696f6e206279207a65726f000000000000815250617646565b905092915050565b600080828401905083811015617378576040517f08c379a000000000000000000000000000000000000000000000000000000000815260040180806020018281038252601b8152602001807f536166654d6174683a206164646974696f6e206f766572666c6f77000000000081525060200191505060405180910390fd5b8091505092915050565b600073ffffffffffffffffffffffffffffffffffffffff168273ffffffffffffffffffffffffffffffffffffffff161415617403578273ffffffffffffffffffffffffffffffffffffffff166108fc829081150290604051600060405180830381858888f193505050501580156173fd573d6000803e3d6000fd5b50617435565b600082905061743384838373ffffffffffffffffffffffffffffffffffffffff1661770c9092919063ffffffff16565b505b8173ffffffffffffffffffffffffffffffffffffffff168373ffffffffffffffffffffffffffffffffffffffff167fd12200efa34901b99367694174c3b0d32c99585fdf37c7c26892136ddd0836d9836040518082815260200191505060405180910390a3505050565b60008060008084116174b25760006174e1565b6174e0600360019054906101000a900473ffffffffffffffffffffffffffffffffffffffff168787876177ae565b5b9050806174f08888888561797a565b925092505094509492505050565b600061754083836040518060400160405280601e81526020017f536166654d6174683a207375627472616374696f6e206f766572666c6f77000081525061806c565b905092915050565b6000806305f5e100617563868561722a90919063ffffffff16565b8161756a57fe5b04905060008111156175a4576175a3600460009054906101000a900473ffffffffffffffffffffffffffffffffffffffff168583617382565b5b6175b781846174fe90919063ffffffff16565b9150509392505050565b60008073ffffffffffffffffffffffffffffffffffffffff168373ffffffffffffffffffffffffffffffffffffffff1614156175ff5734915061763d565b600082111561763c57600083905061763a3330858473ffffffffffffffffffffffffffffffffffffffff1661812c909392919063ffffffff16565b505b5b81905092915050565b600080831182906176f2576040517f08c379a00000000000000000000000000000000000000000000000000000000081526004018080602001828103825283818151815260200191508051906020019080838360005b838110156176b757808201518184015260208101905061769c565b50505050905090810190601f1680156176e45780820380516001836020036101000a031916815260200191505b509250505060405180910390fd5b5060008385816176fe57fe5b049050809150509392505050565b6177a98363a9059cbb60e01b8484604051602401808373ffffffffffffffffffffffffffffffffffffffff16815260200182815260200192505050604051602081830303815290604052907bffffffffffffffffffffffffffffffffffffffffffffffffffffffff19166020820180517bffffffffffffffffffffffffffffffffffffffffffffffffffffffff83818316178352505050506181ed565b505050565b60008085905060606177e3600360019054906101000a900473ffffffffffffffffffffffffffffffffffffffff1687876182dc565b905060608273ffffffffffffffffffffffffffffffffffffffff16631f00ca7486846040518363ffffffff1660e01b81526004018083815260200180602001828103825283818151815260200191508051906020019060200280838360005b8381101561785d578082015181840152602081019050617842565b50505050905001935050505060006040518083038186803b15801561788157600080fd5b505afa158015617895573d6000803e3d6000fd5b505050506040513d6000823e3d601f19601f8201168201806040525060208110156178bf57600080fd5b81019080805160405193929190846401000000008211156178df57600080fd5b838201915060208201858111156178f557600080fd5b825186602082028301116401000000008211171561791257600080fd5b8083526020830192505050908051906020019060200280838360005b8381101561794957808201518184015260208101905061792e565b5050505090500160405250505090508060008151811061796557fe5b60200260200101519350505050949350505050565b60008073ffffffffffffffffffffffffffffffffffffffff168473ffffffffffffffffffffffffffffffffffffffff16146179db576179da84867fffffffffffffffffffffffffffffffffffffffffffffffffffffffffffffffff61853b565b5b600073ffffffffffffffffffffffffffffffffffffffff168373ffffffffffffffffffffffffffffffffffffffff1614617a3b57617a3a83867fffffffffffffffffffffffffffffffffffffffffffffffffffffffffffffffff61853b565b5b60008590506060617a4d8787876182dc565b90506060600073ffffffffffffffffffffffffffffffffffffffff168773ffffffffffffffffffffffffffffffffffffffff161415617c29578273ffffffffffffffffffffffffffffffffffffffff16637ff36ab58660008530601e42016040518663ffffffff1660e01b815260040180858152602001806020018473ffffffffffffffffffffffffffffffffffffffff168152602001838152602001828103825285818151815260200191508051906020019060200280838360005b83811015617b25578082015181840152602081019050617b0a565b50505050905001955050505050506000604051808303818588803b158015617b4c57600080fd5b505af1158015617b60573d6000803e3d6000fd5b50505050506040513d6000823e3d601f19601f820116820180604052506020811015617b8b57600080fd5b8101908080516040519392919084640100000000821115617bab57600080fd5b83820191506020820185811115617bc157600080fd5b8251866020820283011164010000000082111715617bde57600080fd5b8083526020830192505050908051906020019060200280838360005b83811015617c15578082015181840152602081019050617bfa565b505050509050016040525050509050617faf565b600073ffffffffffffffffffffffffffffffffffffffff168673ffffffffffffffffffffffffffffffffffffffff161415617e08578273ffffffffffffffffffffffffffffffffffffffff166318cbafe58660008530601e42016040518663ffffffff1660e01b815260040180868152602001858152602001806020018473ffffffffffffffffffffffffffffffffffffffff168152602001838152602001828103825285818151815260200191508051906020019060200280838360005b83811015617d03578082015181840152602081019050617ce8565b505050509050019650505050505050600060405180830381600087803b158015617d2c57600080fd5b505af1158015617d40573d6000803e3d6000fd5b505050506040513d6000823e3d601f19601f820116820180604052506020811015617d6a57600080fd5b8101908080516040519392919084640100000000821115617d8a57600080fd5b83820191506020820185811115617da057600080fd5b8251866020820283011164010000000082111715617dbd57600080fd5b8083526020830192505050908051906020019060200280838360005b83811015617df4578082015181840152602081019050617dd9565b505050509050016040525050509050617fae565b8273ffffffffffffffffffffffffffffffffffffffff166338ed17398660008530601e42016040518663ffffffff1660e01b815260040180868152602001858152602001806020018473ffffffffffffffffffffffffffffffffffffffff168152602001838152602001828103825285818151815260200191508051906020019060200280838360005b83811015617ead578082015181840152602081019050617e92565b505050509050019650505050505050600060405180830381600087803b158015617ed657600080fd5b505af1158015617eea573d6000803e3d6000fd5b505050506040513d6000823e3d601f19601f820116820180604052506020811015617f1457600080fd5b8101908080516040519392919084640100000000821115617f3457600080fd5b83820191506020820185811115617f4a57600080fd5b8251866020820283011164010000000082111715617f6757600080fd5b8083526020830192505050908051906020019060200280838360005b83811015617f9e578082015181840152602081019050617f83565b5050505090500160405250505090505b5b8573ffffffffffffffffffffffffffffffffffffffff168773ffffffffffffffffffffffffffffffffffffffff167ffa2dda1cc1b86e41239702756b13effbc1a092b5c57e3ad320fbe4f3b13fe2358360008151811061800b57fe5b60200260200101518460018651038151811061802357fe5b6020026020010151604051808381526020018281526020019250505060405180910390a38060018251038151811061805757fe5b60200260200101519350505050949350505050565b6000838311158290618119576040517f08c379a00000000000000000000000000000000000000000000000000000000081526004018080602001828103825283818151815260200191508051906020019080838360005b838110156180de5780820151818401526020810190506180c3565b50505050905090810190601f16801561810b5780820380516001836020036101000a031916815260200191505b509250505060405180910390fd5b5060008385039050809150509392505050565b6181e7846323b872dd60e01b858585604051602401808473ffffffffffffffffffffffffffffffffffffffff1681526020018373ffffffffffffffffffffffffffffffffffffffff1681526020018281526020019350505050604051602081830303815290604052907bffffffffffffffffffffffffffffffffffffffffffffffffffffffff19166020820180517bffffffffffffffffffffffffffffffffffffffffffffffffffffffff83818316178352505050506181ed565b50505050565b606061824f826040518060400160405280602081526020017f5361666545524332303a206c6f772d6c6576656c2063616c6c206661696c65648152508573ffffffffffffffffffffffffffffffffffffffff1661871e9092919063ffffffff16565b90506000815111156182d75780806020019051602081101561827057600080fd5b81019080805190602001909291905050506182d6576040517f08c379a000000000000000000000000000000000000000000000000000000000815260040180806020018281038252602a815260200180618bee602a913960400191505060405180910390fd5b5b505050565b60606000849050600267ffffffffffffffff811180156182fb57600080fd5b5060405190808252806020026020018201604052801561832a5781602001602082028036833780820191505090505b509150600073ffffffffffffffffffffffffffffffffffffffff168473ffffffffffffffffffffffffffffffffffffffff161461836757836183e9565b8073ffffffffffffffffffffffffffffffffffffffff1663ad5c46486040518163ffffffff1660e01b815260040160206040518083038186803b1580156183ad57600080fd5b505afa1580156183c1573d6000803e3d6000fd5b505050506040513d60208110156183d757600080fd5b81019080805190602001909291905050505b826000815181106183f657fe5b602002602001019073ffffffffffffffffffffffffffffffffffffffff16908173ffffffffffffffffffffffffffffffffffffffff1681525050600073ffffffffffffffffffffffffffffffffffffffff168373ffffffffffffffffffffffffffffffffffffffff161461846a57826184ec565b8073ffffffffffffffffffffffffffffffffffffffff1663ad5c46486040518163ffffffff1660e01b815260040160206040518083038186803b1580156184b057600080fd5b505afa1580156184c4573d6000803e3d6000fd5b505050506040513d60208110156184da57600080fd5b81019080805190602001909291905050505b826001815181106184f957fe5b602002602001019073ffffffffffffffffffffffffffffffffffffffff16908173ffffffffffffffffffffffffffffffffffffffff1681525050509392505050565b600060608473ffffffffffffffffffffffffffffffffffffffff1663095ea7b38585604051602401808373ffffffffffffffffffffffffffffffffffffffff168152602001828152602001925050506040516020818303038152906040529060e01b6020820180517bffffffffffffffffffffffffffffffffffffffffffffffffffffffff83818316178352505050506040518082805190602001908083835b602083106185fe57805182526020820191506020810190506020830392506185db565b6001836020036101000a0380198251168184511680821785525050505050509050019150506000604051808303816000865af19150503d8060008114618660576040519150601f19603f3d011682016040523d82523d6000602084013e618665565b606091505b50915091508180156186a557506000815114806186a4575080806020019051602081101561869257600080fd5b81019080805190602001909291905050505b5b618717576040517f08c379a000000000000000000000000000000000000000000000000000000000815260040180806020018281038252600c8152602001807f2173616665417070726f7665000000000000000000000000000000000000000081525060200191505060405180910390fd5b5050505050565b606061872d8484600085618736565b90509392505050565b606082471015618791576040517f08c379a0000000000000000000000000000000000000000000000000000000008152600401808060200182810382526026815260200180618b3a6026913960400191505060405180910390fd5b61879a856188df565b61880c576040517f08c379a000000000000000000000000000000000000000000000000000000000815260040180806020018281038252601d8152602001807f416464726573733a2063616c6c20746f206e6f6e2d636f6e747261637400000081525060200191505060405180910390fd5b600060608673ffffffffffffffffffffffffffffffffffffffff1685876040518082805190602001908083835b6020831061885c5780518252602082019150602081019050602083039250618839565b6001836020036101000a03801982511681845116808217855250505050505090500191505060006040518083038185875af1925050503d80600081146188be576040519150601f19603f3d011682016040523d82523d6000602084013e6188c3565b606091505b50915091506188d38282866188f2565b92505050949350505050565b600080823b905060008111915050919050565b60608315618902578290506189b7565b6000835111156189155782518084602001fd5b816040517f08c379a00000000000000000000000000000000000000000000000000000000081526004018080602001828103825283818151815260200191508051906020019080838360005b8381101561897c578082015181840152602081019050618961565b50505050905090810190601f1680156189a95780820380516001836020036101000a031916815260200191505b509250505060405180910390fd5b9392505050565b604051806040016040528060029060208202803683378082019150509050509056fe7769746864726177426f72726f773a206c657373207468616e206d617463682074696d6577697468647261774c656e643a20776974686472617720616d6f756e74206973207a65726f637265617465506f6f6c3a656e642074696d65206772617465207468616e20736574746c652074696d654f776e61626c653a206e6577206f776e657220697320746865207a65726f20616464726573736465706f7369744c656e643a20746865207175616e74697479206578636565647320746865206c696d69747769746864726177426f72726f773a20776974686472617720616d6f756e74206973207a65726f77697468647261774c656e643a206c657373207468616e206d617463682074696d656465706f736974426f72726f773a206465706f73697420616d6f756e74206973207a65726f6c69717569646174653a20706f6f6c207374617465206d75737420626520657865637574696f6e416464726573733a20696e73756666696369656e742062616c616e636520666f722063616c6c73746174653a20506f6f6c20737461747573206973206e6f7420657175616c20746f206d61746368536166654d6174683a206d756c7469706c69636174696f6e206f766572666c6f776465706f7369744c656e643a206c657373207468616e206d696e20616d6f756e7466696e6973683a20706f6f6c207374617465206d75737420626520657865637574696f6e5361666545524332303a204552433230206f7065726174696f6e20646964206e6f7420737563636565647769746864726177426f72726f773a206c657373207468616e20656e642074696d65a264697066735822122059f40bad59fcb8b54a3aabe9b0707271fcb53229be0720a451e33176f4b71a7d64736f6c634300060c0033",
  "linkReferences": {},
  "deployedLinkReferences": {}
}