{
  "_format": "hh-sol-artifact-1",
  "contractName": "BscPledgeOracle",
  "sourceName": "contracts/pledge/BscPledgeOracle.sol",
  "abi": [
    {
      "inputs": [
        {
          "internalType": "address",
          "name": "multiSignature",
          "type": "address"
        }
      ],
      "stateMutability": "nonpayable",
      "type": "constructor"
    },
    {
      "inputs": [
        {
          "internalType": "address",
          "name": "asset",
          "type": "address"
        }
      ],
      "name": "getAssetsAggregator",
      "outputs": [
        {
          "internalType": "address",
          "name": "",
          "type": "address"
        },
        {
          "internalType": "uint256",
          "name": "",
          "type": "uint256"
        }
      ],
      "stateMutability": "view",
      "type": "function"
    },
    {
      "inputs": [],
      "name": "getMultiSignatureAddress",
      "outputs": [
        {
          "internalType": "address",
          "name": "",
          "type": "address"
        }
      ],
      "stateMutability": "view",
      "type": "function"
    },
    {
      "inputs": [
        {
          "internalType": "address",
          "name": "asset",
          "type": "address"
        }
      ],
      "name": "getPrice",
      "outputs": [
        {
          "internalType": "uint256",
          "name": "",
          "type": "uint256"
        }
      ],
      "stateMutability": "view",
      "type": "function"
    },
    {
      "inputs": [
        {
          "internalType": "uint256[]",
          "name": "assets",
          "type": "uint256[]"
        }
      ],
      "name": "getPrices",
      "outputs": [
        {
          "internalType": "uint256[]",
          "name": "",
          "type": "uint256[]"
        }
      ],
      "stateMutability": "view",
      "type": "function"
    },
    {
      "inputs": [
        {
          "internalType": "uint256",
          "name": "underlying",
          "type": "uint256"
        }
      ],
      "name": "getUnderlyingAggregator",
      "outputs": [
        {
          "internalType": "address",
          "name": "",
          "type": "address"
        },
        {
          "internalType": "uint256",
          "name": "",
          "type": "uint256"
        }
      ],
      "stateMutability": "view",
      "type": "function"
    },
    {
      "inputs": [
        {
          "internalType": "uint256",
          "name": "underlying",
          "type": "uint256"
        }
      ],
      "name": "getUnderlyingPrice",
      "outputs": [
        {
          "internalType": "uint256",
          "name": "",
          "type": "uint256"
        }
      ],
      "stateMutability": "view",
      "type": "function"
    },
    {
      "inputs": [
        {
          "internalType": "address",
          "name": "asset",
          "type": "address"
        },
        {
          "internalType": "address",
          "name": "aggergator",
          "type": "address"
        },
        {
          "internalType": "uint256",
          "name": "_decimals",
          "type": "uint256"
        }
      ],
      "name": "setAssetsAggregator",
      "outputs": [],
      "stateMutability": "nonpayable",
      "type": "function"
    },
    {
      "inputs": [
        {
          "internalType": "uint256",
          "name": "newDecimals",
          "type": "uint256"
        }
      ],
      "name": "setDecimals",
      "outputs": [],
      "stateMutability": "nonpayable",
      "type": "function"
    },
    {
      "inputs": [
        {
          "internalType": "address",
          "name": "asset",
          "type": "address"
        },
        {
          "internalType": "uint256",
          "name": "price",
          "type": "uint256"
        }
      ],
      "name": "setPrice",
      "outputs": [],
      "stateMutability": "nonpayable",
      "type": "function"
    },
    {
      "inputs": [
        {
          "internalType": "uint256[]",
          "name": "assets",
          "type": "uint256[]"
        },
        {
          "internalType": "uint256[]",
          "name": "prices",
          "type": "uint256[]"
        }
      ],
      "name": "setPrices",
      "outputs": [],
      "stateMutability": "nonpayable",
      "type": "function"
    },
    {
      "inputs": [
        {
          "internalType": "uint256",
          "name": "underlying",
          "type": "uint256"
        },
        {
          "internalType": "address",
          "name": "aggergator",
          "type": "address"
        },
        {
          "internalType": "uint256",
          "name": "_decimals",
          "type": "uint256"
        }
      ],
      "name": "setUnderlyingAggregator",
      "outputs": [],
      "stateMutability": "nonpayable",
      "type": "function"
    },
    {
      "inputs": [
        {
          "internalType": "uint256",
          "name": "underlying",
          "type": "uint256"
        },
        {
          "internalType": "uint256",
          "name": "price",
          "type": "uint256"
        }
      ],
      "name": "setUnderlyingPrice",
      "outputs": [],
      "stateMutability": "nonpayable",
      "type": "function"
    }
  ],
  "bytecode": "0x6080604052600160035534801561001557600080fd5b5060405161105e38038061105e8339818101604052602081101561003857600080fd5b810190808051906020019092919050505080600073ffffffffffffffffffffffffffffffffffffffff168173ffffffffffffffffffffffffffffffffffffffff1614156100d0576040517f08c379a000000000000000000000000000000000000000000000000000000000815260040180806020018281038252604381526020018061101b6043913960600191505060405180910390fd5b6101197f8dddb57468cf5338ee155397ad1400a7a564308824f517d20a8a7c516523bb4760001c8273ffffffffffffffffffffffffffffffffffffffff1661012060201b60201c565b5050610127565b8082555050565b610ee5806101366000396000f3fe608060405234801561001057600080fd5b50600436106100b35760003560e01c8063835326671161007157806383532667146103565780638c8885c81461038e578063b889a989146103bc578063cd9ffa0b14610431578063d05eaae01461049f578063da663257146105eb576100b3565b8062e4768b146100b857806309cb3a4e1461010657806341976e0914610213578063434b33ac1461026b578063638c7e17146102c357806375e443aa146102f7575b600080fd5b610104600480360360408110156100ce57600080fd5b81019080803573ffffffffffffffffffffffffffffffffffffffff1690602001909291908035906020019092919050505061062d565b005b6101bc6004803603602081101561011c57600080fd5b810190808035906020019064010000000081111561013957600080fd5b82018360208201111561014b57600080fd5b8035906020019184602083028401116401000000008311171561016d57600080fd5b919080806020026020016040519081016040528093929190818152602001838360200280828437600081840152601f19601f820116905080830192505050505050509192919290505050610667565b6040518080602001828103825283818151815260200191508051906020019060200280838360005b838110156101ff5780820151818401526020810190506101e4565b505050509050019250505060405180910390f35b6102556004803603602081101561022957600080fd5b81019080803573ffffffffffffffffffffffffffffffffffffffff169060200190929190505050610711565b6040518082815260200191505060405180910390f35b6102c16004803603606081101561028157600080fd5b8101908080359060200190929190803573ffffffffffffffffffffffffffffffffffffffff16906020019092919080359060200190929190505050610739565b005b6102cb610825565b604051808273ffffffffffffffffffffffffffffffffffffffff16815260200191505060405180910390f35b6103236004803603602081101561030d57600080fd5b8101908080359060200190929190505050610858565b604051808373ffffffffffffffffffffffffffffffffffffffff1681526020018281526020019250505060405180910390f35b61038c6004803603604081101561036c57600080fd5b8101908080359060200190929190803590602001909291905050506108ab565b005b6103ba600480360360208110156103a457600080fd5b8101908080359060200190929190505050610945565b005b6103fe600480360360208110156103d257600080fd5b81019080803573ffffffffffffffffffffffffffffffffffffffff169060200190929190505050610957565b604051808373ffffffffffffffffffffffffffffffffffffffff1681526020018281526020019250505060405180910390f35b61049d6004803603606081101561044757600080fd5b81019080803573ffffffffffffffffffffffffffffffffffffffff169060200190929190803573ffffffffffffffffffffffffffffffffffffffff169060200190929190803590602001909291905050506109d6565b005b6105e9600480360360408110156104b557600080fd5b81019080803590602001906401000000008111156104d257600080fd5b8201836020820111156104e457600080fd5b8035906020019184602083028401116401000000008311171561050657600080fd5b919080806020026020016040519081016040528093929190818152602001838360200280828437600081840152601f19601f8201169050808301925050505050505091929192908035906020019064010000000081111561056657600080fd5b82018360208201111561057857600080fd5b8035906020019184602083028401116401000000008311171561059a57600080fd5b919080806020026020016040519081016040528093929190818152602001838360200280828437600081840152601f19601f820116905080830192505050505050509192919290505050610a78565b005b6106176004803603602081101561060157600080fd5b8101908080359060200190929190505050610b29565b6040518082815260200191505060405180910390f35b610635610ce6565b80600260008473ffffffffffffffffffffffffffffffffffffffff168152602001908152602001600020819055505050565b606060008251905060608167ffffffffffffffff8111801561068857600080fd5b506040519080825280602002602001820160405280156106b75781602001602082028036833780820191505090505b50905060005b82811015610706576106e18582815181106106d457fe5b6020026020010151610b29565b8282815181106106ed57fe5b60200260200101818152505080806001019150506106bd565b508092505050919050565b60006107328273ffffffffffffffffffffffffffffffffffffffff16610b29565b9050919050565b610741610ce6565b600083116107b7576040517f08c379a00000000000000000000000000000000000000000000000000000000081526004018080602001828103825260198152602001807f756e6465726c79696e672063616e6e6f74206265207a65726f0000000000000081525060200191505060405180910390fd5b8160008085815260200190815260200160002060006101000a81548173ffffffffffffffffffffffffffffffffffffffff021916908373ffffffffffffffffffffffffffffffffffffffff160217905550806001600085815260200190815260200160002081905550505050565b60006108537f8dddb57468cf5338ee155397ad1400a7a564308824f517d20a8a7c516523bb4760001c610e54565b905090565b60008060008084815260200190815260200160002060009054906101000a900473ffffffffffffffffffffffffffffffffffffffff16600160008581526020019081526020016000205491509150915091565b6108b3610ce6565b60008211610929576040517f08c379a00000000000000000000000000000000000000000000000000000000081526004018080602001828103825260198152602001807f756e6465726c79696e672063616e6e6f74206265207a65726f0000000000000081525060200191505060405180910390fd5b8060026000848152602001908152602001600020819055505050565b61094d610ce6565b8060038190555050565b6000806000808473ffffffffffffffffffffffffffffffffffffffff16815260200190815260200160002060009054906101000a900473ffffffffffffffffffffffffffffffffffffffff16600160008573ffffffffffffffffffffffffffffffffffffffff1681526020019081526020016000205491509150915091565b6109de610ce6565b816000808573ffffffffffffffffffffffffffffffffffffffff16815260200190815260200160002060006101000a81548173ffffffffffffffffffffffffffffffffffffffff021916908373ffffffffffffffffffffffffffffffffffffffff16021790555080600160008573ffffffffffffffffffffffffffffffffffffffff16815260200190815260200160002081905550505050565b610a80610ce6565b8051825114610ada576040517f08c379a0000000000000000000000000000000000000000000000000000000008152600401808060200182810382526022815260200180610e8e6022913960400191505060405180910390fd5b60008251905060005b81811015610b2357828181518110610af757fe5b602002602001015160026000838152602001908152602001600020819055508080600101915050610ae3565b50505050565b60008060008084815260200190815260200160002060009054906101000a900473ffffffffffffffffffffffffffffffffffffffff169050600073ffffffffffffffffffffffffffffffffffffffff168173ffffffffffffffffffffffffffffffffffffffff1614610cc95760008173ffffffffffffffffffffffffffffffffffffffff1663feaf968c6040518163ffffffff1660e01b815260040160a06040518083038186803b158015610bdd57600080fd5b505afa158015610bf1573d6000803e3d6000fd5b505050506040513d60a0811015610c0757600080fd5b8101908080519060200190929190805190602001909291908051906020019092919080519060200190929190805190602001909291905050505050509150506000600160008681526020019081526020016000205490506012811015610c855780601203600a0a6003548381610c7957fe5b04029350505050610ce1565b6012811115610cb35780601203600a0a6003548381610ca057fe5b0481610ca857fe5b049350505050610ce1565b6003548281610cbe57fe5b049350505050610ce1565b60026000848152602001908152602001600020549150505b919050565b600034905060003330604051602001808373ffffffffffffffffffffffffffffffffffffffff1660601b81526014018273ffffffffffffffffffffffffffffffffffffffff1660601b8152601401925050506040516020818303038152906040528051906020012090506000610d5a610825565b905060008173ffffffffffffffffffffffffffffffffffffffff16631ebaa1668460006040518363ffffffff1660e01b8152600401808381526020018281526020019250505060206040518083038186803b158015610db857600080fd5b505afa158015610dcc573d6000803e3d6000fd5b505050506040513d6020811015610de257600080fd5b8101908080519060200190929190505050905060008111610e4e576040517f08c379a000000000000000000000000000000000000000000000000000000000815260040180806020018281038252602e815260200180610e60602e913960400191505060405180910390fd5b50505050565b60008154905091905056fe6d756c74695369676e6174757265436c69656e74203a2054686973207478206973206e6f7420617072726f766564696e7075742061727261797327206c656e67746820617265206e6f7420657175616ca2646970667358221220ba5fe5f67fac9c85f6b537fa180d69c3f120fa7e730501d4bb076c580e0f4a8d64736f6c634300060c00336d756c74695369676e6174757265436c69656e74203a204d756c7469706c65207369676e617475726520636f6e74726163742061646472657373206973207a65726f21",
  "linkReferences": {},
  "deployedLinkReferences": {}
}