{
  "_format": "hh-sol-artifact-1",
  "contractName": "PledgePool",
  "sourceName": "contracts/pledge/PledgePool.sol",
  "abi": [
    {
      "inputs": [
        {
          "internalType": "address",
          "name": "_oracle",
          "type": "address"
        },
        {
          "internalType": "address",
          "name": "_swapRouter",
          "type": "address"
        },
        {
          "internalType": "address payable",
          "name": "_feeAddress",
          "type": "address"
        },
        {
          "internalType": "address",
          "name": "_multiSignature",
          "type": "address"
        }
      ],
      "stateMutability": "nonpayable",
      "type": "constructor"
    },
    {
      "anonymous": false,
      "inputs": [
        {
          "indexed": true,
          "internalType": "address",
          "name": "from",
          "type": "address"
        },
        {
          "indexed": true,
          "internalType": "address",
          "name": "token",
          "type": "address"
        },
        {
          "indexed": false,
          "internalType": "uint256",
          "name": "amount",
          "type": "uint256"
        }
      ],
      "name": "ClaimBorrow",
      "type": "event"
    },
    {
      "anonymous": false,
      "inputs": [
        {
          "indexed": true,
          "internalType": "address",
          "name": "from",
          "type": "address"
        },
        {
          "indexed": true,
          "internalType": "address",
          "name": "token",
          "type": "address"
        },
        {
          "indexed": false,
          "internalType": "uint256",
          "name": "amount",
          "type": "uint256"
        }
      ],
      "name": "ClaimLend",
      "type": "event"
    },
    {
      "anonymous": false,
      "inputs": [
        {
          "indexed": true,
          "internalType": "address",
          "name": "from",
          "type": "address"
        },
        {
          "indexed": true,
          "internalType": "address",
          "name": "token",
          "type": "address"
        },
        {
          "indexed": false,
          "internalType": "uint256",
          "name": "amount",
          "type": "uint256"
        },
        {
          "indexed": false,
          "internalType": "uint256",
          "name": "mintAmount",
          "type": "uint256"
        }
      ],
      "name": "DepositBorrow",
      "type": "event"
    },
    {
      "anonymous": false,
      "inputs": [
        {
          "indexed": true,
          "internalType": "address",
          "name": "from",
          "type": "address"
        },
        {
          "indexed": true,
          "internalType": "address",
          "name": "token",
          "type": "address"
        },
        {
          "indexed": false,
          "internalType": "uint256",
          "name": "amount",
          "type": "uint256"
        },
        {
          "indexed": false,
          "internalType": "uint256",
          "name": "mintAmount",
          "type": "uint256"
        }
      ],
      "name": "DepositLend",
      "type": "event"
    },
    {
      "anonymous": false,
      "inputs": [
        {
          "indexed": true,
          "internalType": "address",
          "name": "from",
          "type": "address"
        },
        {
          "indexed": true,
          "internalType": "address",
          "name": "token",
          "type": "address"
        },
        {
          "indexed": false,
          "internalType": "uint256",
          "name": "amount",
          "type": "uint256"
        }
      ],
      "name": "EmergencyBorrowWithdrawal",
      "type": "event"
    },
    {
      "anonymous": false,
      "inputs": [
        {
          "indexed": true,
          "internalType": "address",
          "name": "from",
          "type": "address"
        },
        {
          "indexed": true,
          "internalType": "address",
          "name": "token",
          "type": "address"
        },
        {
          "indexed": false,
          "internalType": "uint256",
          "name": "amount",
          "type": "uint256"
        }
      ],
      "name": "EmergencyLendWithdrawal",
      "type": "event"
    },
    {
      "anonymous": false,
      "inputs": [
        {
          "indexed": true,
          "internalType": "address",
          "name": "recieptor",
          "type": "address"
        },
        {
          "indexed": true,
          "internalType": "address",
          "name": "token",
          "type": "address"
        },
        {
          "indexed": false,
          "internalType": "uint256",
          "name": "amount",
          "type": "uint256"
        }
      ],
      "name": "Redeem",
      "type": "event"
    },
    {
      "anonymous": false,
      "inputs": [
        {
          "indexed": true,
          "internalType": "address",
          "name": "from",
          "type": "address"
        },
        {
          "indexed": true,
          "internalType": "address",
          "name": "token",
          "type": "address"
        },
        {
          "indexed": false,
          "internalType": "uint256",
          "name": "refund",
          "type": "uint256"
        }
      ],
      "name": "RefundBorrow",
      "type": "event"
    },
    {
      "anonymous": false,
      "inputs": [
        {
          "indexed": true,
          "internalType": "address",
          "name": "from",
          "type": "address"
        },
        {
          "indexed": true,
          "internalType": "address",
          "name": "token",
          "type": "address"
        },
        {
          "indexed": false,
          "internalType": "uint256",
          "name": "refund",
          "type": "uint256"
        }
      ],
      "name": "RefundLend",
      "type": "event"
    },
    {
      "anonymous": false,
      "inputs": [
        {
          "indexed": true,
          "internalType": "uint256",
          "name": "newLendFee",
          "type": "uint256"
        },
        {
          "indexed": true,
          "internalType": "uint256",
          "name": "newBorrowFee",
          "type": "uint256"
        }
      ],
      "name": "SetFee",
      "type": "event"
    },
    {
      "anonymous": false,
      "inputs": [
        {
          "indexed": true,
          "internalType": "address",
          "name": "oldFeeAddress",
          "type": "address"
        },
        {
          "indexed": true,
          "internalType": "address",
          "name": "newFeeAddress",
          "type": "address"
        }
      ],
      "name": "SetFeeAddress",
      "type": "event"
    },
    {
      "anonymous": false,
      "inputs": [
        {
          "indexed": true,
          "internalType": "uint256",
          "name": "oldMinAmount",
          "type": "uint256"
        },
        {
          "indexed": true,
          "internalType": "uint256",
          "name": "newMinAmount",
          "type": "uint256"
        }
      ],
      "name": "SetMinAmount",
      "type": "event"
    },
    {
      "anonymous": false,
      "inputs": [
        {
          "indexed": true,
          "internalType": "address",
          "name": "oldSwapAddress",
          "type": "address"
        },
        {
          "indexed": true,
          "internalType": "address",
          "name": "newSwapAddress",
          "type": "address"
        }
      ],
      "name": "SetSwapRouterAddress",
      "type": "event"
    },
    {
      "anonymous": false,
      "inputs": [
        {
          "indexed": true,
          "internalType": "uint256",
          "name": "pid",
          "type": "uint256"
        },
        {
          "indexed": true,
          "internalType": "uint256",
          "name": "beforeState",
          "type": "uint256"
        },
        {
          "indexed": true,
          "internalType": "uint256",
          "name": "afterState",
          "type": "uint256"
        }
      ],
      "name": "StateChange",
      "type": "event"
    },
    {
      "anonymous": false,
      "inputs": [
        {
          "indexed": true,
          "internalType": "address",
          "name": "fromCoin",
          "type": "address"
        },
        {
          "indexed": true,
          "internalType": "address",
          "name": "toCoin",
          "type": "address"
        },
        {
          "indexed": false,
          "internalType": "uint256",
          "name": "fromValue",
          "type": "uint256"
        },
        {
          "indexed": false,
          "internalType": "uint256",
          "name": "toValue",
          "type": "uint256"
        }
      ],
      "name": "Swap",
      "type": "event"
    },
    {
      "anonymous": false,
      "inputs": [
        {
          "indexed": true,
          "internalType": "address",
          "name": "from",
          "type": "address"
        },
        {
          "indexed": true,
          "internalType": "address",
          "name": "token",
          "type": "address"
        },
        {
          "indexed": false,
          "internalType": "uint256",
          "name": "amount",
          "type": "uint256"
        },
        {
          "indexed": false,
          "internalType": "uint256",
          "name": "burnAmount",
          "type": "uint256"
        }
      ],
      "name": "WithdrawBorrow",
      "type": "event"
    },
    {
      "anonymous": false,
      "inputs": [
        {
          "indexed": true,
          "internalType": "address",
          "name": "from",
          "type": "address"
        },
        {
          "indexed": true,
          "internalType": "address",
          "name": "token",
          "type": "address"
        },
        {
          "indexed": false,
          "internalType": "uint256",
          "name": "amount",
          "type": "uint256"
        },
        {
          "indexed": false,
          "internalType": "uint256",
          "name": "burnAmount",
          "type": "uint256"
        }
      ],
      "name": "WithdrawLend",
      "type": "event"
    },
    {
      "inputs": [],
      "name": "borrowFee",
      "outputs": [
        {
          "internalType": "uint256",
          "name": "",
          "type": "uint256"
        }
      ],
      "stateMutability": "view",
      "type": "function"
    },
    {
      "inputs": [
        {
          "internalType": "uint256",
          "name": "_pid",
          "type": "uint256"
        }
      ],
      "name": "checkoutFinish",
      "outputs": [
        {
          "internalType": "bool",
          "name": "",
          "type": "bool"
        }
      ],
      "stateMutability": "view",
      "type": "function"
    },
    {
      "inputs": [
        {
          "internalType": "uint256",
          "name": "_pid",
          "type": "uint256"
        }
      ],
      "name": "checkoutLiquidate",
      "outputs": [
        {
          "internalType": "bool",
          "name": "",
          "type": "bool"
        }
      ],
      "stateMutability": "view",
      "type": "function"
    },
    {
      "inputs": [
        {
          "internalType": "uint256",
          "name": "_pid",
          "type": "uint256"
        }
      ],
      "name": "checkoutSettle",
      "outputs": [
        {
          "internalType": "bool",
          "name": "",
          "type": "bool"
        }
      ],
      "stateMutability": "view",
      "type": "function"
    },
    {
      "inputs": [
        {
          "internalType": "uint256",
          "name": "_pid",
          "type": "uint256"
        }
      ],
      "name": "claimBorrow",
      "outputs": [],
      "stateMutability": "nonpayable",
      "type": "function"
    },
    {
      "inputs": [
        {
          "internalType": "uint256",
          "name": "_pid",
          "type": "uint256"
        }
      ],
      "name": "claimLend",
      "outputs": [],
      "stateMutability": "nonpayable",
      "type": "function"
    },
    {
      "inputs": [
        {
          "internalType": "uint256",
          "name": "_settleTime",
          "type": "uint256"
        },
        {
          "internalType": "uint256",
          "name": "_endTime",
          "type": "uint256"
        },
        {
          "internalType": "uint64",
          "name": "_interestRate",
          "type": "uint64"
        },
        {
          "internalType": "uint256",
          "name": "_maxSupply",
          "type": "uint256"
        },
        {
          "internalType": "uint256",
          "name": "_martgageRate",
          "type": "uint256"
        },
        {
          "internalType": "address",
          "name": "_lendToken",
          "type": "address"
        },
        {
          "internalType": "address",
          "name": "_borrowToken",
          "type": "address"
        },
        {
          "internalType": "address",
          "name": "_spToken",
          "type": "address"
        },
        {
          "internalType": "address",
          "name": "_jpToken",
          "type": "address"
        },
        {
          "internalType": "uint256",
          "name": "_autoLiquidateThreshold",
          "type": "uint256"
        }
      ],
      "name": "createPoolInfo",
      "outputs": [],
      "stateMutability": "nonpayable",
      "type": "function"
    },
    {
      "inputs": [
        {
          "internalType": "uint256",
          "name": "_pid",
          "type": "uint256"
        },
        {
          "internalType": "uint256",
          "name": "_stakeAmount",
          "type": "uint256"
        }
      ],
      "name": "depositBorrow",
      "outputs": [],
      "stateMutability": "payable",
      "type": "function"
    },
    {
      "inputs": [
        {
          "internalType": "uint256",
          "name": "_pid",
          "type": "uint256"
        },
        {
          "internalType": "uint256",
          "name": "_stakeAmount",
          "type": "uint256"
        }
      ],
      "name": "depositLend",
      "outputs": [],
      "stateMutability": "payable",
      "type": "function"
    },
    {
      "inputs": [
        {
          "internalType": "uint256",
          "name": "_pid",
          "type": "uint256"
        }
      ],
      "name": "emergencyBorrowWithdrawal",
      "outputs": [],
      "stateMutability": "nonpayable",
      "type": "function"
    },
    {
      "inputs": [
        {
          "internalType": "uint256",
          "name": "_pid",
          "type": "uint256"
        }
      ],
      "name": "emergencyLendWithdrawal",
      "outputs": [],
      "stateMutability": "nonpayable",
      "type": "function"
    },
    {
      "inputs": [],
      "name": "feeAddress",
      "outputs": [
        {
          "internalType": "address payable",
          "name": "",
          "type": "address"
        }
      ],
      "stateMutability": "view",
      "type": "function"
    },
    {
      "inputs": [
        {
          "internalType": "uint256",
          "name": "_pid",
          "type": "uint256"
        }
      ],
      "name": "finish",
      "outputs": [],
      "stateMutability": "nonpayable",
      "type": "function"
    },
    {
      "inputs": [],
      "name": "getMultiSignatureAddress",
      "outputs": [
        {
          "internalType": "address",
          "name": "",
          "type": "address"
        }
      ],
      "stateMutability": "view",
      "type": "function"
    },
    {
      "inputs": [
        {
          "internalType": "uint256",
          "name": "_pid",
          "type": "uint256"
        }
      ],
      "name": "getPoolState",
      "outputs": [
        {
          "internalType": "uint256",
          "name": "",
          "type": "uint256"
        }
      ],
      "stateMutability": "view",
      "type": "function"
    },
    {
      "inputs": [
        {
          "internalType": "uint256",
          "name": "_pid",
          "type": "uint256"
        }
      ],
      "name": "getUnderlyingPriceView",
      "outputs": [
        {
          "internalType": "uint256[2]",
          "name": "",
          "type": "uint256[2]"
        }
      ],
      "stateMutability": "view",
      "type": "function"
    },
    {
      "inputs": [],
      "name": "globalPaused",
      "outputs": [
        {
          "internalType": "bool",
          "name": "",
          "type": "bool"
        }
      ],
      "stateMutability": "view",
      "type": "function"
    },
    {
      "inputs": [],
      "name": "lendFee",
      "outputs": [
        {
          "internalType": "uint256",
          "name": "",
          "type": "uint256"
        }
      ],
      "stateMutability": "view",
      "type": "function"
    },
    {
      "inputs": [
        {
          "internalType": "uint256",
          "name": "_pid",
          "type": "uint256"
        }
      ],
      "name": "liquidate",
      "outputs": [],
      "stateMutability": "nonpayable",
      "type": "function"
    },
    {
      "inputs": [],
      "name": "minAmount",
      "outputs": [
        {
          "internalType": "uint256",
          "name": "",
          "type": "uint256"
        }
      ],
      "stateMutability": "view",
      "type": "function"
    },
    {
      "inputs": [],
      "name": "oracle",
      "outputs": [
        {
          "internalType": "contract IBscPledgeOracle",
          "name": "",
          "type": "address"
        }
      ],
      "stateMutability": "view",
      "type": "function"
    },
    {
      "inputs": [
        {
          "internalType": "uint256",
          "name": "",
          "type": "uint256"
        }
      ],
      "name": "poolBaseInfo",
      "outputs": [
        {
          "internalType": "uint256",
          "name": "settleTime",
          "type": "uint256"
        },
        {
          "internalType": "uint256",
          "name": "endTime",
          "type": "uint256"
        },
        {
          "internalType": "uint256",
          "name": "interestRate",
          "type": "uint256"
        },
        {
          "internalType": "uint256",
          "name": "maxSupply",
          "type": "uint256"
        },
        {
          "internalType": "uint256",
          "name": "lendSupply",
          "type": "uint256"
        },
        {
          "internalType": "uint256",
          "name": "borrowSupply",
          "type": "uint256"
        },
        {
          "internalType": "uint256",
          "name": "martgageRate",
          "type": "uint256"
        },
        {
          "internalType": "address",
          "name": "lendToken",
          "type": "address"
        },
        {
          "internalType": "address",
          "name": "borrowToken",
          "type": "address"
        },
        {
          "internalType": "enum PledgePool.PoolState",
          "name": "state",
          "type": "uint8"
        },
        {
          "internalType": "contract IDebtToken",
          "name": "spCoin",
          "type": "address"
        },
        {
          "internalType": "contract IDebtToken",
          "name": "jpCoin",
          "type": "address"
        },
        {
          "internalType": "uint256",
          "name": "autoLiquidateThreshold",
          "type": "uint256"
        }
      ],
      "stateMutability": "view",
      "type": "function"
    },
    {
      "inputs": [
        {
          "internalType": "uint256",
          "name": "",
          "type": "uint256"
        }
      ],
      "name": "poolDataInfo",
      "outputs": [
        {
          "internalType": "uint256",
          "name": "settleAmountLend",
          "type": "uint256"
        },
        {
          "internalType": "uint256",
          "name": "settleAmountBorrow",
          "type": "uint256"
        },
        {
          "internalType": "uint256",
          "name": "finishAmountLend",
          "type": "uint256"
        },
        {
          "internalType": "uint256",
          "name": "finishAmountBorrow",
          "type": "uint256"
        },
        {
          "internalType": "uint256",
          "name": "liquidationAmountLend",
          "type": "uint256"
        },
        {
          "internalType": "uint256",
          "name": "liquidationAmounBorrow",
          "type": "uint256"
        }
      ],
      "stateMutability": "view",
      "type": "function"
    },
    {
      "inputs": [],
      "name": "poolLength",
      "outputs": [
        {
          "internalType": "uint256",
          "name": "",
          "type": "uint256"
        }
      ],
      "stateMutability": "view",
      "type": "function"
    },
    {
      "inputs": [
        {
          "internalType": "uint256",
          "name": "_pid",
          "type": "uint256"
        }
      ],
      "name": "refundBorrow",
      "outputs": [],
      "stateMutability": "nonpayable",
      "type": "function"
    },
    {
      "inputs": [
        {
          "internalType": "uint256",
          "name": "_pid",
          "type": "uint256"
        }
      ],
      "name": "refundLend",
      "outputs": [],
      "stateMutability": "nonpayable",
      "type": "function"
    },
    {
      "inputs": [
        {
          "internalType": "uint256",
          "name": "_lendFee",
          "type": "uint256"
        },
        {
          "internalType": "uint256",
          "name": "_borrowFee",
          "type": "uint256"
        }
      ],
      "name": "setFee",
      "outputs": [],
      "stateMutability": "nonpayable",
      "type": "function"
    },
    {
      "inputs": [
        {
          "internalType": "address payable",
          "name": "_feeAddress",
          "type": "address"
        }
      ],
      "name": "setFeeAddress",
      "outputs": [],
      "stateMutability": "nonpayable",
      "type": "function"
    },
    {
      "inputs": [
        {
          "internalType": "uint256",
          "name": "_minAmount",
          "type": "uint256"
        }
      ],
      "name": "setMinAmount",
      "outputs": [],
      "stateMutability": "nonpayable",
      "type": "function"
    },
    {
      "inputs": [],
      "name": "setPause",
      "outputs": [],
      "stateMutability": "nonpayable",
      "type": "function"
    },
    {
      "inputs": [
        {
          "internalType": "address",
          "name": "_swapRouter",
          "type": "address"
        }
      ],
      "name": "setSwapRouterAddress",
      "outputs": [],
      "stateMutability": "nonpayable",
      "type": "function"
    },
    {
      "inputs": [
        {
          "internalType": "uint256",
          "name": "_pid",
          "type": "uint256"
        }
      ],
      "name": "settle",
      "outputs": [],
      "stateMutability": "nonpayable",
      "type": "function"
    },
    {
      "inputs": [],
      "name": "swapRouter",
      "outputs": [
        {
          "internalType": "address",
          "name": "",
          "type": "address"
        }
      ],
      "stateMutability": "view",
      "type": "function"
    },
    {
      "inputs": [
        {
          "internalType": "address",
          "name": "",
          "type": "address"
        },
        {
          "internalType": "uint256",
          "name": "",
          "type": "uint256"
        }
      ],
      "name": "userBorrowInfo",
      "outputs": [
        {
          "internalType": "uint256",
          "name": "stakeAmount",
          "type": "uint256"
        },
        {
          "internalType": "uint256",
          "name": "refundAmount",
          "type": "uint256"
        },
        {
          "internalType": "bool",
          "name": "hasNoRefund",
          "type": "bool"
        },
        {
          "internalType": "bool",
          "name": "hasNoClaim",
          "type": "bool"
        }
      ],
      "stateMutability": "view",
      "type": "function"
    },
    {
      "inputs": [
        {
          "internalType": "address",
          "name": "",
          "type": "address"
        },
        {
          "internalType": "uint256",
          "name": "",
          "type": "uint256"
        }
      ],
      "name": "userLendInfo",
      "outputs": [
        {
          "internalType": "uint256",
          "name": "stakeAmount",
          "type": "uint256"
        },
        {
          "internalType": "uint256",
          "name": "refundAmount",
          "type": "uint256"
        },
        {
          "internalType": "bool",
          "name": "hasNoRefund",
          "type": "bool"
        },
        {
          "internalType": "bool",
          "name": "hasNoClaim",
          "type": "bool"
        }
      ],
      "stateMutability": "view",
      "type": "function"
    },
    {
      "inputs": [
        {
          "internalType": "uint256",
          "name": "_pid",
          "type": "uint256"
        },
        {
          "internalType": "uint256",
          "name": "_jpAmount",
          "type": "uint256"
        }
      ],
      "name": "withdrawBorrow",
      "outputs": [],
      "stateMutability": "nonpayable",
      "type": "function"
    },
    {
      "inputs": [
        {
          "internalType": "uint256",
          "name": "_pid",
          "type": "uint256"
        },
        {
          "internalType": "uint256",
          "name": "_spAmount",
          "type": "uint256"
        }
      ],
      "name": "withdrawLend",
      "outputs": [],
      "stateMutability": "nonpayable",
      "type": "function"
    }
  ],
  "bytecode": "0x608060405268056bc75e2d631000006001556000600260006101000a81548160ff0219169083151502179055503480156200003957600080fd5b506040516200853c3803806200853c833981810160405260808110156200005f57600080fd5b8101908080519060200190929190805190602001909291908051906020019092919080519060200190929190505050806001600081905550600073ffffffffffffffffffffffffffffffffffffffff168173ffffffffffffffffffffffffffffffffffffffff1614156200011f576040517f08c379a0000000000000000000000000000000000000000000000000000000008152600401808060200182810382526043815260200180620084f96043913960600191505060405180910390fd5b6200016a7f8dddb57468cf5338ee155397ad1400a7a564308824f517d20a8a7c516523bb4760001c8273ffffffffffffffffffffffffffffffffffffffff166200043460201b60201c565b50600073ffffffffffffffffffffffffffffffffffffffff168473ffffffffffffffffffffffffffffffffffffffff1614156200020f576040517f08c379a000000000000000000000000000000000000000000000000000000000815260040180806020018281038252600f8152602001807f4973207a65726f2061646472657373000000000000000000000000000000000081525060200191505060405180910390fd5b600073ffffffffffffffffffffffffffffffffffffffff168373ffffffffffffffffffffffffffffffffffffffff161415620002b3576040517f08c379a000000000000000000000000000000000000000000000000000000000815260040180806020018281038252600f8152602001807f4973207a65726f2061646472657373000000000000000000000000000000000081525060200191505060405180910390fd5b600073ffffffffffffffffffffffffffffffffffffffff168273ffffffffffffffffffffffffffffffffffffffff16141562000357576040517f08c379a000000000000000000000000000000000000000000000000000000000815260040180806020018281038252600f8152602001807f4973207a65726f2061646472657373000000000000000000000000000000000081525060200191505060405180910390fd5b83600460006101000a81548173ffffffffffffffffffffffffffffffffffffffff021916908373ffffffffffffffffffffffffffffffffffffffff16021790555082600260016101000a81548173ffffffffffffffffffffffffffffffffffffffff021916908373ffffffffffffffffffffffffffffffffffffffff16021790555081600360006101000a81548173ffffffffffffffffffffffffffffffffffffffff021916908373ffffffffffffffffffffffffffffffffffffffff16021790555060006005819055506000600681905550505050506200043b565b8082555050565b6180ae806200044b6000396000f3fe60806040526004361061021a5760003560e01c80636c42fed211610123578063bb176a64116100ab578063d431b1ac1161006f578063d431b1ac14610bcb578063e271fa0c14610be2578063e626648a14610c1d578063ebded01714610c48578063eec8d50614610d405761021a565b8063bb176a6414610a15578063bf38b8f614610a9d578063c31c9c0714610ad8578063c933375614610b19578063d353a1cb14610b905761021a565b80638df82800116100f25780638df82800146108ed57806390590da0146109285780639b2cb5d814610960578063a62ff1641461098b578063b1597517146109c65761021a565b80636c42fed2146107e55780637dc0d1d0146108205780638705fcd414610861578063897b0637146108b25761021a565b806341275358116101a657806352f7c9881161017557806352f7c988146105db5780635a5a971e1461062057806361a552dc14610726578063638c7e17146107535780636abd7f29146107945761021a565b806341275358146104e3578063415f1240146105245780634aea0aec1461055f5780635249961b1461058a5761021a565b806316f941b5116101ed57806316f941b51461035e5780631e1079791461039657806338f2aa76146103db5780633ab4a445146104205780633c9fadc31461045b5761021a565b80630177b68c1461021f578063081e3eda1461029157806308e7305f146102bc57806314c090cc1461030d575b600080fd5b34801561022b57600080fd5b506102586004803603602081101561024257600080fd5b8101908080359060200190929190505050610d7b565b60405180878152602001868152602001858152602001848152602001838152602001828152602001965050505050505060405180910390f35b34801561029d57600080fd5b506102a6610dc4565b6040518082815260200191505060405180910390f35b3480156102c857600080fd5b506102f5600480360360208110156102df57600080fd5b8101908080359060200190929190505050610dd1565b60405180821515815260200191505060405180910390f35b34801561031957600080fd5b506103466004803603602081101561033057600080fd5b8101908080359060200190929190505050610f00565b60405180821515815260200191505060405180910390f35b6103946004803603604081101561037457600080fd5b810190808035906020019092919080359060200190929190505050610f2a565b005b3480156103a257600080fd5b506103d9600480360360408110156103b957600080fd5b810190808035906020019092919080359060200190929190505050611418565b005b3480156103e757600080fd5b5061041e600480360360408110156103fe57600080fd5b8101908080359060200190929190803590602001909291905050506119f1565b005b34801561042c57600080fd5b506104596004803603602081101561044357600080fd5b81019080803590602001909291905050506120eb565b005b34801561046757600080fd5b506104b46004803603604081101561047e57600080fd5b81019080803573ffffffffffffffffffffffffffffffffffffffff169060200190929190803590602001909291905050506127b7565b604051808581526020018481526020018315158152602001821515815260200194505050505060405180910390f35b3480156104ef57600080fd5b506104f861280e565b604051808273ffffffffffffffffffffffffffffffffffffffff16815260200191505060405180910390f35b34801561053057600080fd5b5061055d6004803603602081101561054757600080fd5b8101908080359060200190929190505050612834565b005b34801561056b57600080fd5b50610574612c41565b6040518082815260200191505060405180910390f35b34801561059657600080fd5b506105d9600480360360208110156105ad57600080fd5b81019080803573ffffffffffffffffffffffffffffffffffffffff169060200190929190505050612c47565b005b3480156105e757600080fd5b5061061e600480360360408110156105fe57600080fd5b810190808035906020019092919080359060200190929190505050612db2565b005b34801561062c57600080fd5b506106596004803603602081101561064357600080fd5b8101908080359060200190929190505050612dfa565b604051808e81526020018d81526020018c81526020018b81526020018a81526020018981526020018881526020018773ffffffffffffffffffffffffffffffffffffffff1681526020018673ffffffffffffffffffffffffffffffffffffffff1681526020018560048111156106cb57fe5b81526020018473ffffffffffffffffffffffffffffffffffffffff1681526020018373ffffffffffffffffffffffffffffffffffffffff1681526020018281526020019d505050505050505050505050505060405180910390f35b34801561073257600080fd5b5061073b612efa565b60405180821515815260200191505060405180910390f35b34801561075f57600080fd5b50610768612f0d565b604051808273ffffffffffffffffffffffffffffffffffffffff16815260200191505060405180910390f35b3480156107a057600080fd5b506107cd600480360360208110156107b757600080fd5b8101908080359060200190929190505050612f40565b60405180821515815260200191505060405180910390f35b3480156107f157600080fd5b5061081e6004803603602081101561080857600080fd5b8101908080359060200190929190505050612f6a565b005b34801561082c57600080fd5b506108356135c2565b604051808273ffffffffffffffffffffffffffffffffffffffff16815260200191505060405180910390f35b34801561086d57600080fd5b506108b06004803603602081101561088457600080fd5b81019080803573ffffffffffffffffffffffffffffffffffffffff1690602001909291905050506135e8565b005b3480156108be57600080fd5b506108eb600480360360208110156108d557600080fd5b8101908080359060200190929190505050613753565b005b3480156108f957600080fd5b506109266004803603602081101561091057600080fd5b8101908080359060200190929190505050613795565b005b61095e6004803603604081101561093e57600080fd5b810190808035906020019092919080359060200190929190505050613b87565b005b34801561096c57600080fd5b50610975614123565b6040518082815260200191505060405180910390f35b34801561099757600080fd5b506109c4600480360360208110156109ae57600080fd5b8101908080359060200190929190505050614129565b005b3480156109d257600080fd5b506109ff600480360360208110156109e957600080fd5b81019080803590602001909291905050506147c2565b6040518082815260200191505060405180910390f35b348015610a2157600080fd5b50610a6e60048036036040811015610a3857600080fd5b81019080803573ffffffffffffffffffffffffffffffffffffffff16906020019092919080359060200190929190505050614807565b604051808581526020018481526020018315158152602001821515815260200194505050505060405180910390f35b348015610aa957600080fd5b50610ad660048036036020811015610ac057600080fd5b810190808035906020019092919050505061485e565b005b348015610ae457600080fd5b50610aed614cf6565b604051808273ffffffffffffffffffffffffffffffffffffffff16815260200191505060405180910390f35b348015610b2557600080fd5b50610b5260048036036020811015610b3c57600080fd5b8101908080359060200190929190505050614d1c565b6040518082600260200280838360005b83811015610b7d578082015181840152602081019050610b62565b5050505090500191505060405180910390f35b348015610b9c57600080fd5b50610bc960048036036020811015610bb357600080fd5b810190808035906020019092919050505061500b565b005b348015610bd757600080fd5b50610be06154c5565b005b348015610bee57600080fd5b50610c1b60048036036020811015610c0557600080fd5b81019080803590602001909291905050506154f9565b005b348015610c2957600080fd5b50610c32615991565b6040518082815260200191505060405180910390f35b348015610c5457600080fd5b50610d3e6004803603610140811015610c6c57600080fd5b810190808035906020019092919080359060200190929190803567ffffffffffffffff1690602001909291908035906020019092919080359060200190929190803573ffffffffffffffffffffffffffffffffffffffff169060200190929190803573ffffffffffffffffffffffffffffffffffffffff169060200190929190803573ffffffffffffffffffffffffffffffffffffffff169060200190929190803573ffffffffffffffffffffffffffffffffffffffff16906020019092919080359060200190929190505050615997565b005b348015610d4c57600080fd5b50610d7960048036036020811015610d6357600080fd5b8101908080359060200190929190505050615e74565b005b60088181548110610d8857fe5b90600052602060002090600602016000915090508060000154908060010154908060020154908060030154908060040154908060050154905086565b6000600780549050905090565b60008060078381548110610de157fe5b90600052602060002090600c02019050600060088481548110610e0057fe5b90600052602060002090600602019050610e18617e1a565b610e2185614d1c565b90506000610ea4670de0b6b3a7640000610e96610e8385600060028110610e4457fe5b6020020151610e75670de0b6b3a764000088600160028110610e6257fe5b602002015161650d90919063ffffffff16565b61659390919063ffffffff16565b866001015461650d90919063ffffffff16565b61659390919063ffffffff16565b90506000610eef6305f5e100610ee1610ece88600b01546305f5e1006165dd90919063ffffffff16565b876000015461650d90919063ffffffff16565b61659390919063ffffffff16565b905080821095505050505050919050565b600060078281548110610f0f57fe5b90600052602060002090600c02016000015442119050919050565b60026000541415610fa3576040517f08c379a000000000000000000000000000000000000000000000000000000000815260040180806020018281038252601f8152602001807f5265656e7472616e637947756172643a207265656e7472616e742063616c6c0081525060200191505060405180910390fd5b600260008190555060001515600260009054906101000a900460ff16151514611034576040517f08c379a00000000000000000000000000000000000000000000000000000000081526004018080602001828103825260188152602001807f5374616b6520686173206265656e2073757370656e646564000000000000000081525060200191505060405180910390fd5b816007818154811061104257fe5b90600052602060002090600c02016000015442106110c8576040517f08c379a00000000000000000000000000000000000000000000000000000000081526004018080602001828103825260138152602001807f4c657373207468616e20746869732074696d650000000000000000000000000081525060200191505060405180910390fd5b82600060048111156110d657fe5b600782815481106110e357fe5b90600052602060002090600c020160080160149054906101000a900460ff16600481111561110d57fe5b14611163576040517f08c379a0000000000000000000000000000000000000000000000000000000008152600401808060200182810382526028815260200180617f916028913960400191505060405180910390fd5b60006007858154811061117257fe5b90600052602060002090600c020190506000600960003373ffffffffffffffffffffffffffffffffffffffff1673ffffffffffffffffffffffffffffffffffffffff1681526020019081526020016000206000878152602001908152602001600020905060006112068360080160009054906101000a900473ffffffffffffffffffffffffffffffffffffffff1687616665565b905060008111611261576040517f08c379a0000000000000000000000000000000000000000000000000000000008152600401808060200182810382526025815260200180617ef56025913960400191505060405180910390fd5b60008260020160016101000a81548160ff02191690831515021790555060008260020160006101000a81548160ff021916908315150217905550600073ffffffffffffffffffffffffffffffffffffffff168360080160009054906101000a900473ffffffffffffffffffffffffffffffffffffffff1673ffffffffffffffffffffffffffffffffffffffff1614156113375761130b3483600001546165dd90919063ffffffff16565b826000018190555061132a3484600501546165dd90919063ffffffff16565b8360050181905550611376565b61134e8683600001546165dd90919063ffffffff16565b826000018190555061136d8684600501546165dd90919063ffffffff16565b83600501819055505b8260080160009054906101000a900473ffffffffffffffffffffffffffffffffffffffff1673ffffffffffffffffffffffffffffffffffffffff163373ffffffffffffffffffffffffffffffffffffffff167f1d7b72e666a0b6217efe7cfa1b604ea5c7b39219563ce48b30c9da77045247a58884604051808381526020018281526020019250505060405180910390a3505050505060016000819055505050565b60026000541415611491576040517f08c379a000000000000000000000000000000000000000000000000000000000815260040180806020018281038252601f8152602001807f5265656e7472616e637947756172643a207265656e7472616e742063616c6c0081525060200191505060405180910390fd5b600260008190555060001515600260009054906101000a900460ff16151514611522576040517f08c379a00000000000000000000000000000000000000000000000000000000081526004018080602001828103825260188152602001807f5374616b6520686173206265656e2073757370656e646564000000000000000081525060200191505060405180910390fd5b816002600481111561153057fe5b6007828154811061153d57fe5b90600052602060002090600c020160080160149054906101000a900460ff16600481111561156757fe5b14806115b457506003600481111561157b57fe5b6007828154811061158857fe5b90600052602060002090600c020160080160149054906101000a900460ff1660048111156115b257fe5b145b611626576040517f08c379a00000000000000000000000000000000000000000000000000000000081526004018080602001828103825260198152602001807f73746174653a2066696e697368206c69717569646174696f6e0000000000000081525060200191505060405180910390fd5b60006007848154811061163557fe5b90600052602060002090600c0201905060006008858154811061165457fe5b90600052602060002090600602019050600084116116bd576040517f08c379a0000000000000000000000000000000000000000000000000000000008152600401808060200182810382526027815260200180617ece6027913960400191505060405180910390fd5b81600a0160009054906101000a900473ffffffffffffffffffffffffffffffffffffffff1673ffffffffffffffffffffffffffffffffffffffff16639dc29fac33866040518363ffffffff1660e01b8152600401808373ffffffffffffffffffffffffffffffffffffffff16815260200182815260200192505050600060405180830381600087803b15801561175257600080fd5b505af1158015611766573d6000803e3d6000fd5b50505050600061179d6305f5e10061178f8560060154856000015461650d90919063ffffffff16565b61659390919063ffffffff16565b905060006117ce826117c0670de0b6b3a76400008961650d90919063ffffffff16565b61659390919063ffffffff16565b9050600260048111156117dd57fe5b8460080160149054906101000a900460ff1660048111156117fa57fe5b1415611953578360010154421161185c576040517f08c379a00000000000000000000000000000000000000000000000000000000081526004018080602001828103825260228152602001806180286022913960400191505060405180910390fd5b600061188f670de0b6b3a764000061188186600301548561650d90919063ffffffff16565b61659390919063ffffffff16565b90506118c0338660080160009054906101000a900473ffffffffffffffffffffffffffffffffffffffff16836166ea565b8460080160009054906101000a900473ffffffffffffffffffffffffffffffffffffffff1673ffffffffffffffffffffffffffffffffffffffff163373ffffffffffffffffffffffffffffffffffffffff167f0f5e74952c2f9259a748f3aa9a6c4534a6f46a5966e5baabdb6bd337f05234a88984604051808381526020018281526020019250505060405180910390a3505b6003600481111561196057fe5b8460080160149054906101000a900460ff16600481111561197d57fe5b14156119e057836000015442116119df576040517f08c379a0000000000000000000000000000000000000000000000000000000008152600401808060200182810382526024815260200180617e3d6024913960400191505060405180910390fd5b5b505050505060016000819055505050565b60026000541415611a6a576040517f08c379a000000000000000000000000000000000000000000000000000000000815260040180806020018281038252601f8152602001807f5265656e7472616e637947756172643a207265656e7472616e742063616c6c0081525060200191505060405180910390fd5b600260008190555060001515600260009054906101000a900460ff16151514611afb576040517f08c379a00000000000000000000000000000000000000000000000000000000081526004018080602001828103825260188152602001807f5374616b6520686173206265656e2073757370656e646564000000000000000081525060200191505060405180910390fd5b8160026004811115611b0957fe5b60078281548110611b1657fe5b90600052602060002090600c020160080160149054906101000a900460ff166004811115611b4057fe5b1480611b8d575060036004811115611b5457fe5b60078281548110611b6157fe5b90600052602060002090600c020160080160149054906101000a900460ff166004811115611b8b57fe5b145b611bff576040517f08c379a00000000000000000000000000000000000000000000000000000000081526004018080602001828103825260198152602001807f73746174653a2066696e697368206c69717569646174696f6e0000000000000081525060200191505060405180910390fd5b600060078481548110611c0e57fe5b90600052602060002090600c02019050600060088581548110611c2d57fe5b9060005260206000209060060201905060008411611cb3576040517f08c379a00000000000000000000000000000000000000000000000000000000081526004018080602001828103825260208152602001807f77697468647261774c656e643a20e58f96e6acbee98791e9a29de4b8bae99bb681525060200191505060405180910390fd5b8160090160009054906101000a900473ffffffffffffffffffffffffffffffffffffffff1673ffffffffffffffffffffffffffffffffffffffff16639dc29fac33866040518363ffffffff1660e01b8152600401808373ffffffffffffffffffffffffffffffffffffffff16815260200182815260200192505050600060405180830381600087803b158015611d4857600080fd5b505af1158015611d5c573d6000803e3d6000fd5b505050506000816000015490506000611d9882611d8a670de0b6b3a76400008961650d90919063ffffffff16565b61659390919063ffffffff16565b905060026004811115611da757fe5b8460080160149054906101000a900460ff166004811115611dc457fe5b1415611f3a5783600101544211611e43576040517f08c379a00000000000000000000000000000000000000000000000000000000081526004018080602001828103825260208152602001807f77697468647261774c656e643a20e5b091e4ba8ee7bb93e69d9fe697b6e997b481525060200191505060405180910390fd5b6000611e76670de0b6b3a7640000611e6884876002015461650d90919063ffffffff16565b61659390919063ffffffff16565b9050611ea7338660070160009054906101000a900473ffffffffffffffffffffffffffffffffffffffff16836166ea565b8460070160009054906101000a900473ffffffffffffffffffffffffffffffffffffffff1673ffffffffffffffffffffffffffffffffffffffff163373ffffffffffffffffffffffffffffffffffffffff167f690f32ccf3e832d5ff975d781039bc2affebee9c973939c9b710091b87954c9d838a604051808381526020018281526020019250505060405180910390a3505b60036004811115611f4757fe5b8460080160149054906101000a900460ff166004811115611f6457fe5b14156120da5783600001544211611fe3576040517f08c379a00000000000000000000000000000000000000000000000000000000081526004018080602001828103825260208152602001807f77697468647261774c656e643a20e5b091e4ba8ee6b885e7ae97e697b6e997b481525060200191505060405180910390fd5b6000612016670de0b6b3a764000061200884876004015461650d90919063ffffffff16565b61659390919063ffffffff16565b9050612047338660070160009054906101000a900473ffffffffffffffffffffffffffffffffffffffff16836166ea565b8460070160009054906101000a900473ffffffffffffffffffffffffffffffffffffffff1673ffffffffffffffffffffffffffffffffffffffff163373ffffffffffffffffffffffffffffffffffffffff167f690f32ccf3e832d5ff975d781039bc2affebee9c973939c9b710091b87954c9d838a604051808381526020018281526020019250505060405180910390a3505b505050505060016000819055505050565b60026000541415612164576040517f08c379a000000000000000000000000000000000000000000000000000000000815260040180806020018281038252601f8152602001807f5265656e7472616e637947756172643a207265656e7472616e742063616c6c0081525060200191505060405180910390fd5b600260008190555060001515600260009054906101000a900460ff161515146121f5576040517f08c379a00000000000000000000000000000000000000000000000000000000081526004018080602001828103825260188152602001807f5374616b6520686173206265656e2073757370656e646564000000000000000081525060200191505060405180910390fd5b806007818154811061220357fe5b90600052602060002090600c0201600001544211612289576040517f08c379a00000000000000000000000000000000000000000000000000000000081526004018080602001828103825260158152602001807f477265617465207468616e20746869732074696d65000000000000000000000081525060200191505060405180910390fd5b816001600481111561229757fe5b600782815481106122a457fe5b90600052602060002090600c020160080160149054906101000a900460ff1660048111156122ce57fe5b148061231b5750600260048111156122e257fe5b600782815481106122ef57fe5b90600052602060002090600c020160080160149054906101000a900460ff16600481111561231957fe5b145b8061236757506003600481111561232e57fe5b6007828154811061233b57fe5b90600052602060002090600c020160080160149054906101000a900460ff16600481111561236557fe5b145b6123d9576040517f08c379a000000000000000000000000000000000000000000000000000000000815260040180806020018281038252601b8152602001807f73746174653a206e6f74206d6174636820616e6420756e646f6e65000000000081525060200191505060405180910390fd5b6000600784815481106123e857fe5b90600052602060002090600c0201905060006008858154811061240757fe5b906000526020600020906006020190506000600960003373ffffffffffffffffffffffffffffffffffffffff1673ffffffffffffffffffffffffffffffffffffffff1681526020019081526020016000206000878152602001908152602001600020905060008160000154116124c8576040517f08c379a0000000000000000000000000000000000000000000000000000000008152600401808060200182810382526022815260200180617e616022913960400191505060405180910390fd5b8060020160019054906101000a900460ff161561254d576040517f08c379a00000000000000000000000000000000000000000000000000000000081526004018080602001828103825260198152602001807f636c61696d426f72726f773a20e5868de6aca1e7b4a2e58f960000000000000081525060200191505060405180910390fd5b60006125806305f5e1006125728660060154866000015461650d90919063ffffffff16565b61659390919063ffffffff16565b905060006125b985600501546125ab670de0b6b3a7640000866000015461650d90919063ffffffff16565b61659390919063ffffffff16565b905060006125ea670de0b6b3a76400006125dc848661650d90919063ffffffff16565b61659390919063ffffffff16565b905085600a0160009054906101000a900473ffffffffffffffffffffffffffffffffffffffff1673ffffffffffffffffffffffffffffffffffffffff166340c10f1933836040518363ffffffff1660e01b8152600401808373ffffffffffffffffffffffffffffffffffffffff16815260200182815260200192505050600060405180830381600087803b15801561268157600080fd5b505af1158015612695573d6000803e3d6000fd5b5050505060006126cc670de0b6b3a76400006126be85896000015461650d90919063ffffffff16565b61659390919063ffffffff16565b90506126fd338860070160009054906101000a900473ffffffffffffffffffffffffffffffffffffffff16836166ea565b60018560020160016101000a81548160ff0219169083151502179055508660080160009054906101000a900473ffffffffffffffffffffffffffffffffffffffff1673ffffffffffffffffffffffffffffffffffffffff163373ffffffffffffffffffffffffffffffffffffffff167f3ddafe3ebb4d0c818317027aabfa82dc9983942ceeb80523167e2de047b17fbd846040518082815260200191505060405180910390a3505050505050505050600160008190555050565b6009602052816000526040600020602052806000526040600020600091509150508060000154908060010154908060020160009054906101000a900460ff16908060020160019054906101000a900460ff16905084565b600360009054906101000a900473ffffffffffffffffffffffffffffffffffffffff1681565b61283c616807565b60006008828154811061284b57fe5b9060005260206000209060060201905060006007838154811061286a57fe5b90600052602060002090600c02019050806000015442116128d6576040517f08c379a0000000000000000000000000000000000000000000000000000000008152600401808060200182810382526021815260200180617ead6021913960400191505060405180910390fd5b600160048111156128e357fe5b8160080160149054906101000a900460ff16600481111561290057fe5b14612956576040517f08c379a000000000000000000000000000000000000000000000000000000000815260040180806020018281038252602f81526020018061804a602f913960400191505060405180910390fd5b6000808260080160009054906101000a900473ffffffffffffffffffffffffffffffffffffffff168360070160009054906101000a900473ffffffffffffffffffffffffffffffffffffffff169150915060006129f06301e133806129e26305f5e1006129d48860000154896001015461697590919063ffffffff16565b61650d90919063ffffffff16565b61659390919063ffffffff16565b90506000612a3a662386f26fc10000612a2c612a1d8960000154896002015461650d90919063ffffffff16565b8561650d90919063ffffffff16565b61659390919063ffffffff16565b90506000612a558288600001546165dd90919063ffffffff16565b90506000612a9a6305f5e100612a8c612a7d6305f5e1006005546165dd90919063ffffffff16565b8561650d90919063ffffffff16565b61659390919063ffffffff16565b9050600080612acd600260019054906101000a900473ffffffffffffffffffffffffffffffffffffffff168989866169bf565b9150915083811115612b62576000612aee858361697590919063ffffffff16565b9050612b41600360009054906101000a900473ffffffffffffffffffffffffffffffffffffffff168b60070160009054906101000a900473ffffffffffffffffffffffffffffffffffffffff16836166ea565b612b54818361697590919063ffffffff16565b8b6004018190555050612b6c565b808a600401819055505b6000612b85838c6001015461697590919063ffffffff16565b90506000612bba6006548c60080160009054906101000a900473ffffffffffffffffffffffffffffffffffffffff1684616a1e565b9050808c6005018190555060038b60080160146101000a81548160ff02191690836004811115612be657fe5b021790555060036004811115612bf857fe5b60016004811115612c0557fe5b8e7f516112f3bf06e373fcea44db364769c04cc7ef4392e6de95d2b250720bcacefb60405160405180910390a450505050505050505050505050565b60055481565b612c4f616807565b600073ffffffffffffffffffffffffffffffffffffffff168173ffffffffffffffffffffffffffffffffffffffff161415612cf2576040517f08c379a000000000000000000000000000000000000000000000000000000000815260040180806020018281038252600f8152602001807f4973207a65726f2061646472657373000000000000000000000000000000000081525060200191505060405180910390fd5b8073ffffffffffffffffffffffffffffffffffffffff16600260019054906101000a900473ffffffffffffffffffffffffffffffffffffffff1673ffffffffffffffffffffffffffffffffffffffff167f4558149b3c5427365f76d4ff19bef30aba41f17e5e601d4661330d8d2b68762760405160405180910390a380600260016101000a81548173ffffffffffffffffffffffffffffffffffffffff021916908373ffffffffffffffffffffffffffffffffffffffff16021790555050565b612dba616807565b816005819055508060068190555080827f032dc6a2d839eb179729a55633fdf1c41a1fc4739394154117005db2b354b9b560405160405180910390a35050565b60078181548110612e0757fe5b90600052602060002090600c02016000915090508060000154908060010154908060020154908060030154908060040154908060050154908060060154908060070160009054906101000a900473ffffffffffffffffffffffffffffffffffffffff16908060080160009054906101000a900473ffffffffffffffffffffffffffffffffffffffff16908060080160149054906101000a900460ff16908060090160009054906101000a900473ffffffffffffffffffffffffffffffffffffffff169080600a0160009054906101000a900473ffffffffffffffffffffffffffffffffffffffff169080600b015490508d565b600260009054906101000a900460ff1681565b6000612f3b7f8dddb57468cf5338ee155397ad1400a7a564308824f517d20a8a7c516523bb4760001c616a97565b905090565b600060078281548110612f4f57fe5b90600052602060002090600c02016001015442119050919050565b60026000541415612fe3576040517f08c379a000000000000000000000000000000000000000000000000000000000815260040180806020018281038252601f8152602001807f5265656e7472616e637947756172643a207265656e7472616e742063616c6c0081525060200191505060405180910390fd5b600260008190555060001515600260009054906101000a900460ff16151514613074576040517f08c379a00000000000000000000000000000000000000000000000000000000081526004018080602001828103825260188152602001807f5374616b6520686173206265656e2073757370656e646564000000000000000081525060200191505060405180910390fd5b806007818154811061308257fe5b90600052602060002090600c0201600001544211613108576040517f08c379a00000000000000000000000000000000000000000000000000000000081526004018080602001828103825260158152602001807f477265617465207468616e20746869732074696d65000000000000000000000081525060200191505060405180910390fd5b816001600481111561311657fe5b6007828154811061312357fe5b90600052602060002090600c020160080160149054906101000a900460ff16600481111561314d57fe5b148061319a57506002600481111561316157fe5b6007828154811061316e57fe5b90600052602060002090600c020160080160149054906101000a900460ff16600481111561319857fe5b145b806131e65750600360048111156131ad57fe5b600782815481106131ba57fe5b90600052602060002090600c020160080160149054906101000a900460ff1660048111156131e457fe5b145b613258576040517f08c379a000000000000000000000000000000000000000000000000000000000815260040180806020018281038252601b8152602001807f73746174653a206e6f74206d6174636820616e6420756e646f6e65000000000081525060200191505060405180910390fd5b60006007848154811061326757fe5b90600052602060002090600c0201905060006008858154811061328657fe5b906000526020600020906006020190506000600a60003373ffffffffffffffffffffffffffffffffffffffff1673ffffffffffffffffffffffffffffffffffffffff168152602001908152602001600020600087815260200190815260200160002090506000816000015411613364576040517f08c379a00000000000000000000000000000000000000000000000000000000081526004018080602001828103825260208152602001807f636c61696d4c656e643a20e4b88de883bde9a286e58f962073705f746f6b656e81525060200191505060405180910390fd5b8060020160019054906101000a900460ff16156133e9576040517f08c379a000000000000000000000000000000000000000000000000000000000815260040180806020018281038252601d8152602001807f636c61696d4c656e643a20e4b88de883bde5868de6aca1e9a286e58f9600000081525060200191505060405180910390fd5b60006134208460040154613412670de0b6b3a7640000856000015461650d90919063ffffffff16565b61659390919063ffffffff16565b9050600083600001549050600061345a670de0b6b3a764000061344c858561650d90919063ffffffff16565b61659390919063ffffffff16565b90508560090160009054906101000a900473ffffffffffffffffffffffffffffffffffffffff1673ffffffffffffffffffffffffffffffffffffffff166340c10f1933836040518363ffffffff1660e01b8152600401808373ffffffffffffffffffffffffffffffffffffffff16815260200182815260200192505050600060405180830381600087803b1580156134f157600080fd5b505af1158015613505573d6000803e3d6000fd5b5050505060018460020160016101000a81548160ff0219169083151502179055508560070160009054906101000a900473ffffffffffffffffffffffffffffffffffffffff1673ffffffffffffffffffffffffffffffffffffffff163373ffffffffffffffffffffffffffffffffffffffff167f6f4dd2687b3c3bfa99d39742b01d6e0ad9604c48559791d5df4ff5df44b41dfd836040518082815260200191505060405180910390a35050505050505050600160008190555050565b600460009054906101000a900473ffffffffffffffffffffffffffffffffffffffff1681565b6135f0616807565b600073ffffffffffffffffffffffffffffffffffffffff168173ffffffffffffffffffffffffffffffffffffffff161415613693576040517f08c379a000000000000000000000000000000000000000000000000000000000815260040180806020018281038252600f8152602001807f4973207a65726f2061646472657373000000000000000000000000000000000081525060200191505060405180910390fd5b8073ffffffffffffffffffffffffffffffffffffffff16600360009054906101000a900473ffffffffffffffffffffffffffffffffffffffff1673ffffffffffffffffffffffffffffffffffffffff167fd44190acf9d04bdb5d3a1aafff7e6dee8b40b93dfb8c5d3f0eea4b9f4539c3f760405160405180910390a380600360006101000a81548173ffffffffffffffffffffffffffffffffffffffff021916908373ffffffffffffffffffffffffffffffffffffffff16021790555050565b61375b616807565b806001547ffa6189b739625142c695478e9d0095a1cb9e6fad92ad8a727e0055a5cc85b06b60405160405180910390a38060018190555050565b61379d616807565b6000600782815481106137ac57fe5b90600052602060002090600c020190506000600883815481106137cb57fe5b90600052602060002090600602019050600783815481106137e857fe5b90600052602060002090600c020160000154421161386e576040517f08c379a000000000000000000000000000000000000000000000000000000000815260040180806020018281038252601a8152602001807f736574746c653a20e5b08fe4ba8ee7bb93e7ae97e697b6e997b400000000000081525060200191505060405180910390fd5b6000600481111561387b57fe5b8260080160149054906101000a900460ff16600481111561389857fe5b146138ee576040517f08c379a0000000000000000000000000000000000000000000000000000000008152600401808060200182810382526023815260200180617f1a6023913960400191505060405180910390fd5b60008260040154118015613906575060008260050154115b15613afb57613913617e1a565b61391c84614d1c565b9050600061399f670de0b6b3a764000061399161397e8560006002811061393f57fe5b6020020151613970670de0b6b3a76400008860016002811061395d57fe5b602002015161650d90919063ffffffff16565b61659390919063ffffffff16565b876005015461650d90919063ffffffff16565b61659390919063ffffffff16565b905060006139d085600601546139c26305f5e1008561650d90919063ffffffff16565b61659390919063ffffffff16565b905080856004015411156139f95780846000018190555084600501548460010181905550613a86565b84600401548460000181905550613a7d613a5484600060028110613a1957fe5b6020020151613a466305f5e10087600160028110613a3357fe5b602002015161650d90919063ffffffff16565b61659390919063ffffffff16565b613a6f8760060154886004015461650d90919063ffffffff16565b61659390919063ffffffff16565b84600101819055505b60018560080160146101000a81548160ff02191690836004811115613aa757fe5b021790555060016004811115613ab957fe5b60006004811115613ac657fe5b877f516112f3bf06e373fcea44db364769c04cc7ef4392e6de95d2b250720bcacefb60405160405180910390a4505050613b82565b60048260080160146101000a81548160ff02191690836004811115613b1c57fe5b02179055508160040154816000018190555081600501548160010181905550600480811115613b4757fe5b60006004811115613b5457fe5b847f516112f3bf06e373fcea44db364769c04cc7ef4392e6de95d2b250720bcacefb60405160405180910390a45b505050565b60026000541415613c00576040517f08c379a000000000000000000000000000000000000000000000000000000000815260040180806020018281038252601f8152602001807f5265656e7472616e637947756172643a207265656e7472616e742063616c6c0081525060200191505060405180910390fd5b600260008190555060001515600260009054906101000a900460ff16151514613c91576040517f08c379a00000000000000000000000000000000000000000000000000000000081526004018080602001828103825260188152602001807f5374616b6520686173206265656e2073757370656e646564000000000000000081525060200191505060405180910390fd5b8160078181548110613c9f57fe5b90600052602060002090600c0201600001544210613d25576040517f08c379a00000000000000000000000000000000000000000000000000000000081526004018080602001828103825260138152602001807f4c657373207468616e20746869732074696d650000000000000000000000000081525060200191505060405180910390fd5b8260006004811115613d3357fe5b60078281548110613d4057fe5b90600052602060002090600c020160080160149054906101000a900460ff166004811115613d6a57fe5b14613dc0576040517f08c379a0000000000000000000000000000000000000000000000000000000008152600401808060200182810382526028815260200180617f916028913960400191505060405180910390fd5b600060078581548110613dcf57fe5b90600052602060002090600c020190506000600a60003373ffffffffffffffffffffffffffffffffffffffff1673ffffffffffffffffffffffffffffffffffffffff16815260200190815260200160002060008781526020019081526020016000209050613e4e8260040154836003015461697590919063ffffffff16565b851115613ec3576040517f08c379a000000000000000000000000000000000000000000000000000000000815260040180806020018281038252601f8152602001807f6465706f7369744c656e643a20e695b0e9878fe8b685e8bf87e99990e588b60081525060200191505060405180910390fd5b6000613ef38360070160009054906101000a900473ffffffffffffffffffffffffffffffffffffffff1687616665565b90506001548111613f6c576040517f08c379a000000000000000000000000000000000000000000000000000000000815260040180806020018281038252601f8152602001807f6465706f7369744c656e643a20e5b091e4ba8ee69c80e5b08fe98791e9a29d0081525060200191505060405180910390fd5b60008260020160016101000a81548160ff02191690831515021790555060008260020160006101000a81548160ff021916908315150217905550600073ffffffffffffffffffffffffffffffffffffffff168360070160009054906101000a900473ffffffffffffffffffffffffffffffffffffffff1673ffffffffffffffffffffffffffffffffffffffff161415614042576140163483600001546165dd90919063ffffffff16565b82600001819055506140353484600401546165dd90919063ffffffff16565b8360040181905550614081565b6140598683600001546165dd90919063ffffffff16565b82600001819055506140788684600401546165dd90919063ffffffff16565b83600401819055505b8260070160009054906101000a900473ffffffffffffffffffffffffffffffffffffffff1673ffffffffffffffffffffffffffffffffffffffff163373ffffffffffffffffffffffffffffffffffffffff167f129e8c18c2f7baf99c7eb257934c21f038c72412803512dcf0a942a4562a82ea8884604051808381526020018281526020019250505060405180910390a3505050505060016000819055505050565b60015481565b600260005414156141a2576040517f08c379a000000000000000000000000000000000000000000000000000000000815260040180806020018281038252601f8152602001807f5265656e7472616e637947756172643a207265656e7472616e742063616c6c0081525060200191505060405180910390fd5b600260008190555060001515600260009054906101000a900460ff16151514614233576040517f08c379a00000000000000000000000000000000000000000000000000000000081526004018080602001828103825260188152602001807f5374616b6520686173206265656e2073757370656e646564000000000000000081525060200191505060405180910390fd5b806007818154811061424157fe5b90600052602060002090600c02016000015442116142c7576040517f08c379a00000000000000000000000000000000000000000000000000000000081526004018080602001828103825260158152602001807f477265617465207468616e20746869732074696d65000000000000000000000081525060200191505060405180910390fd5b81600160048111156142d557fe5b600782815481106142e257fe5b90600052602060002090600c020160080160149054906101000a900460ff16600481111561430c57fe5b148061435957506002600481111561432057fe5b6007828154811061432d57fe5b90600052602060002090600c020160080160149054906101000a900460ff16600481111561435757fe5b145b806143a557506003600481111561436c57fe5b6007828154811061437957fe5b90600052602060002090600c020160080160149054906101000a900460ff1660048111156143a357fe5b145b614417576040517f08c379a000000000000000000000000000000000000000000000000000000000815260040180806020018281038252601b8152602001807f73746174653a206e6f74206d6174636820616e6420756e646f6e65000000000081525060200191505060405180910390fd5b60006007848154811061442657fe5b90600052602060002090600c0201905060006008858154811061444557fe5b906000526020600020906006020190506000600960003373ffffffffffffffffffffffffffffffffffffffff1673ffffffffffffffffffffffffffffffffffffffff1681526020019081526020016000206000878152602001908152602001600020905060006144c68360010154856005015461697590919063ffffffff16565b11614539576040517f08c379a00000000000000000000000000000000000000000000000000000000081526004018080602001828103825260188152602001807f726566756e64426f72726f773a206e6f7420726566756e64000000000000000081525060200191505060405180910390fd5b60008160000154116145b3576040517f08c379a00000000000000000000000000000000000000000000000000000000081526004018080602001828103825260198152602001807f726566756e64426f72726f773a206e6f7420706c65646765640000000000000081525060200191505060405180910390fd5b8060020160009054906101000a900460ff1615614638576040517f08c379a000000000000000000000000000000000000000000000000000000000815260040180806020018281038252601a8152602001807f726566756e64426f72726f773a20616761696e20726566756e6400000000000081525060200191505060405180910390fd5b600061466f8460050154614661670de0b6b3a7640000856000015461650d90919063ffffffff16565b61659390919063ffffffff16565b905060006146ba670de0b6b3a76400006146ac8461469e88600101548a6005015461697590919063ffffffff16565b61650d90919063ffffffff16565b61659390919063ffffffff16565b90506146eb338660080160009054906101000a900473ffffffffffffffffffffffffffffffffffffffff16836166ea565b6147028184600101546165dd90919063ffffffff16565b836001018190555060018360020160006101000a81548160ff0219169083151502179055508460080160009054906101000a900473ffffffffffffffffffffffffffffffffffffffff1673ffffffffffffffffffffffffffffffffffffffff163373ffffffffffffffffffffffffffffffffffffffff167f732816f48de550f238bd0d4f5b79819c7b24a49d6132928978e3cd36568dd5db836040518082815260200191505060405180910390a350505050505050600160008190555050565b600080600783815481106147d257fe5b90600052602060002090600c020190508060080160149054906101000a900460ff1660048111156147ff57fe5b915050919050565b600a602052816000526040600020602052806000526040600020600091509150508060000154908060010154908060020160009054906101000a900460ff16908060020160019054906101000a900460ff16905084565b600260005414156148d7576040517f08c379a000000000000000000000000000000000000000000000000000000000815260040180806020018281038252601f8152602001807f5265656e7472616e637947756172643a207265656e7472616e742063616c6c0081525060200191505060405180910390fd5b600260008190555060001515600260009054906101000a900460ff16151514614968576040517f08c379a00000000000000000000000000000000000000000000000000000000081526004018080602001828103825260188152602001807f5374616b6520686173206265656e2073757370656e646564000000000000000081525060200191505060405180910390fd5b8060048081111561497557fe5b6007828154811061498257fe5b90600052602060002090600c020160080160149054906101000a900460ff1660048111156149ac57fe5b14614a1f576040517f08c379a000000000000000000000000000000000000000000000000000000000815260040180806020018281038252601b8152602001807f73746174653a207374617465206d75737420626520756e646f6e65000000000081525060200191505060405180910390fd5b600060078381548110614a2e57fe5b90600052602060002090600c020190506000816004015411614ab8576040517f08c379a000000000000000000000000000000000000000000000000000000000815260040180806020018281038252601c8152602001807f656d657267656e634c656e643a206e6f74207769746864726177616c0000000081525060200191505060405180910390fd5b6000600a60003373ffffffffffffffffffffffffffffffffffffffff1673ffffffffffffffffffffffffffffffffffffffff168152602001908152602001600020600085815260200190815260200160002090506000816000015411614b86576040517f08c379a00000000000000000000000000000000000000000000000000000000081526004018080602001828103825260178152602001807f726566756e644c656e643a206e6f7420706c656467656400000000000000000081525060200191505060405180910390fd5b8060020160009054906101000a900460ff1615614c0b576040517f08c379a00000000000000000000000000000000000000000000000000000000081526004018080602001828103825260188152602001807f726566756e644c656e643a20616761696e20726566756e64000000000000000081525060200191505060405180910390fd5b614c3e338360070160009054906101000a900473ffffffffffffffffffffffffffffffffffffffff1683600001546166ea565b60018160020160006101000a81548160ff0219169083151502179055508160070160009054906101000a900473ffffffffffffffffffffffffffffffffffffffff1673ffffffffffffffffffffffffffffffffffffffff163373ffffffffffffffffffffffffffffffffffffffff167f71d14c5f08cb34cbfb59c06ea5151aafbf742d0b6ed00fdb83addd9afb5c0fd083600001546040518082815260200191505060405180910390a3505050600160008190555050565b600260019054906101000a900473ffffffffffffffffffffffffffffffffffffffff1681565b614d24617e1a565b600060078381548110614d3357fe5b90600052602060002090600c020190506060600267ffffffffffffffff81118015614d5d57600080fd5b50604051908082528060200260200182016040528015614d8c5781602001602082028036833780820191505090505b5090508160070160009054906101000a900473ffffffffffffffffffffffffffffffffffffffff1673ffffffffffffffffffffffffffffffffffffffff1681600081518110614dd757fe5b6020026020010181815250508160080160009054906101000a900473ffffffffffffffffffffffffffffffffffffffff1673ffffffffffffffffffffffffffffffffffffffff1681600181518110614e2b57fe5b6020026020010181815250506060600460009054906101000a900473ffffffffffffffffffffffffffffffffffffffff1673ffffffffffffffffffffffffffffffffffffffff166309cb3a4e836040518263ffffffff1660e01b81526004018080602001828103825283818151815260200191508051906020019060200280838360005b83811015614eca578082015181840152602081019050614eaf565b505050509050019250505060006040518083038186803b158015614eed57600080fd5b505afa158015614f01573d6000803e3d6000fd5b505050506040513d6000823e3d601f19601f820116820180604052506020811015614f2b57600080fd5b8101908080516040519392919084640100000000821115614f4b57600080fd5b83820191506020820185811115614f6157600080fd5b8251866020820283011164010000000082111715614f7e57600080fd5b8083526020830192505050908051906020019060200280838360005b83811015614fb5578082015181840152602081019050614f9a565b505050509050016040525050509050604051806040016040528082600081518110614fdc57fe5b6020026020010151815260200182600181518110614ff657fe5b60200260200101518152509350505050919050565b615013616807565b60006007828154811061502257fe5b90600052602060002090600c0201905060006008838154811061504157fe5b906000526020600020906006020190506007838154811061505e57fe5b90600052602060002090600c02016001015442116150e4576040517f08c379a000000000000000000000000000000000000000000000000000000000815260040180806020018281038252601a8152602001807f66696e6973683a206c657373207468616e20656e642074696d6500000000000081525060200191505060405180910390fd5b600160048111156150f157fe5b8260080160149054906101000a900460ff16600481111561510e57fe5b14615164576040517f08c379a0000000000000000000000000000000000000000000000000000000008152600401808060200182810382526024815260200180617fda6024913960400191505060405180910390fd5b6000808360080160009054906101000a900473ffffffffffffffffffffffffffffffffffffffff168460070160009054906101000a900473ffffffffffffffffffffffffffffffffffffffff169150915060006151fe6301e133806151f06305f5e1006151e289600001548a6001015461697590919063ffffffff16565b61650d90919063ffffffff16565b61659390919063ffffffff16565b90506000615248662386f26fc1000061523a61522b88600001548a6002015461650d90919063ffffffff16565b8561650d90919063ffffffff16565b61659390919063ffffffff16565b905060006152638287600001546165dd90919063ffffffff16565b905060006152a86305f5e10061529a61528b6305f5e1006005546165dd90919063ffffffff16565b8561650d90919063ffffffff16565b61659390919063ffffffff16565b90506000806152db600260019054906101000a900473ffffffffffffffffffffffffffffffffffffffff168989866169bf565b9150915083811015615355576040517f08c379a000000000000000000000000000000000000000000000000000000000815260040180806020018281038252601c8152602001807f66696e6973683a20536c69707061676520697320746f6f20686967680000000081525060200191505060405180910390fd5b838111156153e6576000615372858361697590919063ffffffff16565b90506153c5600360009054906101000a900473ffffffffffffffffffffffffffffffffffffffff168c60070160009054906101000a900473ffffffffffffffffffffffffffffffffffffffff16836166ea565b6153d8818361697590919063ffffffff16565b8a60020181905550506153f0565b8089600201819055505b6000615409838b6001015461697590919063ffffffff16565b9050600061543e6006548d60080160009054906101000a900473ffffffffffffffffffffffffffffffffffffffff1684616a1e565b9050808b6003018190555060028c60080160146101000a81548160ff0219169083600481111561546a57fe5b02179055506002600481111561547c57fe5b6001600481111561548957fe5b8e7f516112f3bf06e373fcea44db364769c04cc7ef4392e6de95d2b250720bcacefb60405160405180910390a450505050505050505050505050565b6154cd616807565b600260009054906101000a900460ff1615600260006101000a81548160ff021916908315150217905550565b60026000541415615572576040517f08c379a000000000000000000000000000000000000000000000000000000000815260040180806020018281038252601f8152602001807f5265656e7472616e637947756172643a207265656e7472616e742063616c6c0081525060200191505060405180910390fd5b600260008190555060001515600260009054906101000a900460ff16151514615603576040517f08c379a00000000000000000000000000000000000000000000000000000000081526004018080602001828103825260188152602001807f5374616b6520686173206265656e2073757370656e646564000000000000000081525060200191505060405180910390fd5b8060048081111561561057fe5b6007828154811061561d57fe5b90600052602060002090600c020160080160149054906101000a900460ff16600481111561564757fe5b146156ba576040517f08c379a000000000000000000000000000000000000000000000000000000000815260040180806020018281038252601b8152602001807f73746174653a207374617465206d75737420626520756e646f6e65000000000081525060200191505060405180910390fd5b6000600783815481106156c957fe5b90600052602060002090600c020190506000816005015411615753576040517f08c379a000000000000000000000000000000000000000000000000000000000815260040180806020018281038252601f8152602001807f656d657267656e6379426f72726f773a206e6f74207769746864726177616c0081525060200191505060405180910390fd5b6000600960003373ffffffffffffffffffffffffffffffffffffffff1673ffffffffffffffffffffffffffffffffffffffff168152602001908152602001600020600085815260200190815260200160002090506000816000015411615821576040517f08c379a00000000000000000000000000000000000000000000000000000000081526004018080602001828103825260198152602001807f726566756e64426f72726f773a206e6f7420706c65646765640000000000000081525060200191505060405180910390fd5b8060020160009054906101000a900460ff16156158a6576040517f08c379a000000000000000000000000000000000000000000000000000000000815260040180806020018281038252601a8152602001807f726566756e64426f72726f773a20616761696e20726566756e6400000000000081525060200191505060405180910390fd5b6158d9338360080160009054906101000a900473ffffffffffffffffffffffffffffffffffffffff1683600001546166ea565b60018160020160006101000a81548160ff0219169083151502179055508160080160009054906101000a900473ffffffffffffffffffffffffffffffffffffffff1673ffffffffffffffffffffffffffffffffffffffff163373ffffffffffffffffffffffffffffffffffffffff167f5a06c7de92f1dc59e8cba872927d016c80ce5f0fb2295c898dfb7a2f08e43fb183600001546040518082815260200191505060405180910390a3505050600160008190555050565b60065481565b61599f616807565b8989116159f7576040517f08c379a000000000000000000000000000000000000000000000000000000000815260040180806020018281038252602a815260200180617e83602a913960400191505060405180910390fd5b600073ffffffffffffffffffffffffffffffffffffffff168273ffffffffffffffffffffffffffffffffffffffff161415615a9a576040517f08c379a000000000000000000000000000000000000000000000000000000000815260040180806020018281038252601a8152602001807f637265617465506f6f6c3a6973207a65726f206164647265737300000000000081525060200191505060405180910390fd5b600073ffffffffffffffffffffffffffffffffffffffff168373ffffffffffffffffffffffffffffffffffffffff161415615b3d576040517f08c379a000000000000000000000000000000000000000000000000000000000815260040180806020018281038252601a8152602001807f637265617465506f6f6c3a6973207a65726f206164647265737300000000000081525060200191505060405180910390fd5b6007604051806101a001604052808c81526020018b81526020018a67ffffffffffffffff16815260200189815260200160008152602001600081526020018881526020018773ffffffffffffffffffffffffffffffffffffffff1681526020018673ffffffffffffffffffffffffffffffffffffffff16815260200160006004811115615bc657fe5b81526020018573ffffffffffffffffffffffffffffffffffffffff1681526020018473ffffffffffffffffffffffffffffffffffffffff1681526020018381525090806001815401808255809150506001900390600052602060002090600c0201600090919091909150600082015181600001556020820151816001015560408201518160020155606082015181600301556080820151816004015560a0820151816005015560c0820151816006015560e08201518160070160006101000a81548173ffffffffffffffffffffffffffffffffffffffff021916908373ffffffffffffffffffffffffffffffffffffffff1602179055506101008201518160080160006101000a81548173ffffffffffffffffffffffffffffffffffffffff021916908373ffffffffffffffffffffffffffffffffffffffff1602179055506101208201518160080160146101000a81548160ff02191690836004811115615d2a57fe5b02179055506101408201518160090160006101000a81548173ffffffffffffffffffffffffffffffffffffffff021916908373ffffffffffffffffffffffffffffffffffffffff16021790555061016082015181600a0160006101000a81548173ffffffffffffffffffffffffffffffffffffffff021916908373ffffffffffffffffffffffffffffffffffffffff16021790555061018082015181600b0155505060086040518060c00160405280600081526020016000815260200160008152602001600081526020016000815260200160008152509080600181540180825580915050600190039060005260206000209060060201600090919091909150600082015181600001556020820151816001015560408201518160020155606082015181600301556080820151816004015560a08201518160050155505050505050505050505050565b60026000541415615eed576040517f08c379a000000000000000000000000000000000000000000000000000000000815260040180806020018281038252601f8152602001807f5265656e7472616e637947756172643a207265656e7472616e742063616c6c0081525060200191505060405180910390fd5b600260008190555060001515600260009054906101000a900460ff16151514615f7e576040517f08c379a00000000000000000000000000000000000000000000000000000000081526004018080602001828103825260188152602001807f5374616b6520686173206265656e2073757370656e646564000000000000000081525060200191505060405180910390fd5b8060078181548110615f8c57fe5b90600052602060002090600c0201600001544211616012576040517f08c379a00000000000000000000000000000000000000000000000000000000081526004018080602001828103825260158152602001807f477265617465207468616e20746869732074696d65000000000000000000000081525060200191505060405180910390fd5b816001600481111561602057fe5b6007828154811061602d57fe5b90600052602060002090600c020160080160149054906101000a900460ff16600481111561605757fe5b14806160a457506002600481111561606b57fe5b6007828154811061607857fe5b90600052602060002090600c020160080160149054906101000a900460ff1660048111156160a257fe5b145b806160f05750600360048111156160b757fe5b600782815481106160c457fe5b90600052602060002090600c020160080160149054906101000a900460ff1660048111156160ee57fe5b145b616162576040517f08c379a000000000000000000000000000000000000000000000000000000000815260040180806020018281038252601b8152602001807f73746174653a206e6f74206d6174636820616e6420756e646f6e65000000000081525060200191505060405180910390fd5b60006007848154811061617157fe5b90600052602060002090600c0201905060006008858154811061619057fe5b906000526020600020906006020190506000600a60003373ffffffffffffffffffffffffffffffffffffffff1673ffffffffffffffffffffffffffffffffffffffff16815260200190815260200160002060008781526020019081526020016000209050600081600001541161626e576040517f08c379a00000000000000000000000000000000000000000000000000000000081526004018080602001828103825260178152602001807f726566756e644c656e643a206e6f7420706c656467656400000000000000000081525060200191505060405180910390fd5b600061628b8360000154856004015461697590919063ffffffff16565b116162fe576040517f08c379a00000000000000000000000000000000000000000000000000000000081526004018080602001828103825260168152602001807f726566756e644c656e643a206e6f7420726566756e640000000000000000000081525060200191505060405180910390fd5b8060020160009054906101000a900460ff1615616383576040517f08c379a00000000000000000000000000000000000000000000000000000000081526004018080602001828103825260198152602001807f726566756e644c656e643a2072657065617420726566756e640000000000000081525060200191505060405180910390fd5b60006163ba84600401546163ac670de0b6b3a7640000856000015461650d90919063ffffffff16565b61659390919063ffffffff16565b90506000616405670de0b6b3a76400006163f7846163e988600001548a6004015461697590919063ffffffff16565b61650d90919063ffffffff16565b61659390919063ffffffff16565b9050616436338660070160009054906101000a900473ffffffffffffffffffffffffffffffffffffffff16836166ea565b60018360020160006101000a81548160ff02191690831515021790555061646a8184600101546165dd90919063ffffffff16565b83600101819055508460070160009054906101000a900473ffffffffffffffffffffffffffffffffffffffff1673ffffffffffffffffffffffffffffffffffffffff163373ffffffffffffffffffffffffffffffffffffffff167fc3e20279d41b3ed21d277920877e5e5c6665bf6aca607046a3fe0fd2bd6bda7d836040518082815260200191505060405180910390a350505050505050600160008190555050565b600080831415616520576000905061658d565b600082840290508284828161653157fe5b0414616588576040517f08c379a0000000000000000000000000000000000000000000000000000000008152600401808060200182810382526021815260200180617fb96021913960400191505060405180910390fd5b809150505b92915050565b60006165d583836040518060400160405280601a81526020017f536166654d6174683a206469766973696f6e206279207a65726f000000000000815250616aa2565b905092915050565b60008082840190508381101561665b576040517f08c379a000000000000000000000000000000000000000000000000000000000815260040180806020018281038252601b8152602001807f536166654d6174683a206164646974696f6e206f766572666c6f77000000000081525060200191505060405180910390fd5b8091505092915050565b60008073ffffffffffffffffffffffffffffffffffffffff168373ffffffffffffffffffffffffffffffffffffffff1614156166a3573491506166e1565b60008211156166e05760008390506166de3330858473ffffffffffffffffffffffffffffffffffffffff16616b68909392919063ffffffff16565b505b5b81905092915050565b600073ffffffffffffffffffffffffffffffffffffffff168273ffffffffffffffffffffffffffffffffffffffff16141561676b578273ffffffffffffffffffffffffffffffffffffffff166108fc829081150290604051600060405180830381858888f19350505050158015616765573d6000803e3d6000fd5b5061679d565b600082905061679b84838373ffffffffffffffffffffffffffffffffffffffff16616c299092919063ffffffff16565b505b8173ffffffffffffffffffffffffffffffffffffffff168373ffffffffffffffffffffffffffffffffffffffff167fd12200efa34901b99367694174c3b0d32c99585fdf37c7c26892136ddd0836d9836040518082815260200191505060405180910390a3505050565b600034905060003330604051602001808373ffffffffffffffffffffffffffffffffffffffff1660601b81526014018273ffffffffffffffffffffffffffffffffffffffff1660601b815260140192505050604051602081830303815290604052805190602001209050600061687b612f0d565b905060008173ffffffffffffffffffffffffffffffffffffffff16631ebaa1668460006040518363ffffffff1660e01b8152600401808381526020018281526020019250505060206040518083038186803b1580156168d957600080fd5b505afa1580156168ed573d6000803e3d6000fd5b505050506040513d602081101561690357600080fd5b810190808051906020019092919050505090506000811161696f576040517f08c379a000000000000000000000000000000000000000000000000000000000815260040180806020018281038252602e815260200180617f3d602e913960400191505060405180910390fd5b50505050565b60006169b783836040518060400160405280601e81526020017f536166654d6174683a207375627472616374696f6e206f766572666c6f770000815250616ccb565b905092915050565b60008060008084116169d2576000616a01565b616a00600260019054906101000a900473ffffffffffffffffffffffffffffffffffffffff16878787616d8b565b5b905080616a1088888885616f57565b925092505094509492505050565b6000806305f5e100616a39868561650d90919063ffffffff16565b81616a4057fe5b0490506000811115616a7a57616a79600360009054906101000a900473ffffffffffffffffffffffffffffffffffffffff1685836166ea565b5b616a8d818461697590919063ffffffff16565b9150509392505050565b600081549050919050565b60008083118290616b4e576040517f08c379a00000000000000000000000000000000000000000000000000000000081526004018080602001828103825283818151815260200191508051906020019080838360005b83811015616b13578082015181840152602081019050616af8565b50505050905090810190601f168015616b405780820380516001836020036101000a031916815260200191505b509250505060405180910390fd5b506000838581616b5a57fe5b049050809150509392505050565b616c23846323b872dd60e01b858585604051602401808473ffffffffffffffffffffffffffffffffffffffff1681526020018373ffffffffffffffffffffffffffffffffffffffff1681526020018281526020019350505050604051602081830303815290604052907bffffffffffffffffffffffffffffffffffffffffffffffffffffffff19166020820180517bffffffffffffffffffffffffffffffffffffffffffffffffffffffff8381831617835250505050617649565b50505050565b616cc68363a9059cbb60e01b8484604051602401808373ffffffffffffffffffffffffffffffffffffffff16815260200182815260200192505050604051602081830303815290604052907bffffffffffffffffffffffffffffffffffffffffffffffffffffffff19166020820180517bffffffffffffffffffffffffffffffffffffffffffffffffffffffff8381831617835250505050617649565b505050565b6000838311158290616d78576040517f08c379a00000000000000000000000000000000000000000000000000000000081526004018080602001828103825283818151815260200191508051906020019080838360005b83811015616d3d578082015181840152602081019050616d22565b50505050905090810190601f168015616d6a5780820380516001836020036101000a031916815260200191505b509250505060405180910390fd5b5060008385039050809150509392505050565b6000808590506060616dc0600260019054906101000a900473ffffffffffffffffffffffffffffffffffffffff168787617738565b905060608273ffffffffffffffffffffffffffffffffffffffff16631f00ca7486846040518363ffffffff1660e01b81526004018083815260200180602001828103825283818151815260200191508051906020019060200280838360005b83811015616e3a578082015181840152602081019050616e1f565b50505050905001935050505060006040518083038186803b158015616e5e57600080fd5b505afa158015616e72573d6000803e3d6000fd5b505050506040513d6000823e3d601f19601f820116820180604052506020811015616e9c57600080fd5b8101908080516040519392919084640100000000821115616ebc57600080fd5b83820191506020820185811115616ed257600080fd5b8251866020820283011164010000000082111715616eef57600080fd5b8083526020830192505050908051906020019060200280838360005b83811015616f26578082015181840152602081019050616f0b565b50505050905001604052505050905080600081518110616f4257fe5b60200260200101519350505050949350505050565b60008073ffffffffffffffffffffffffffffffffffffffff168473ffffffffffffffffffffffffffffffffffffffff1614616fb857616fb784867fffffffffffffffffffffffffffffffffffffffffffffffffffffffffffffffff617997565b5b600073ffffffffffffffffffffffffffffffffffffffff168373ffffffffffffffffffffffffffffffffffffffff16146170185761701783867fffffffffffffffffffffffffffffffffffffffffffffffffffffffffffffffff617997565b5b6000859050606061702a878787617738565b90506060600073ffffffffffffffffffffffffffffffffffffffff168773ffffffffffffffffffffffffffffffffffffffff161415617206578273ffffffffffffffffffffffffffffffffffffffff16637ff36ab58660008530601e42016040518663ffffffff1660e01b815260040180858152602001806020018473ffffffffffffffffffffffffffffffffffffffff168152602001838152602001828103825285818151815260200191508051906020019060200280838360005b838110156171025780820151818401526020810190506170e7565b50505050905001955050505050506000604051808303818588803b15801561712957600080fd5b505af115801561713d573d6000803e3d6000fd5b50505050506040513d6000823e3d601f19601f82011682018060405250602081101561716857600080fd5b810190808051604051939291908464010000000082111561718857600080fd5b8382019150602082018581111561719e57600080fd5b82518660208202830111640100000000821117156171bb57600080fd5b8083526020830192505050908051906020019060200280838360005b838110156171f25780820151818401526020810190506171d7565b50505050905001604052505050905061758c565b600073ffffffffffffffffffffffffffffffffffffffff168673ffffffffffffffffffffffffffffffffffffffff1614156173e5578273ffffffffffffffffffffffffffffffffffffffff166318cbafe58660008530601e42016040518663ffffffff1660e01b815260040180868152602001858152602001806020018473ffffffffffffffffffffffffffffffffffffffff168152602001838152602001828103825285818151815260200191508051906020019060200280838360005b838110156172e05780820151818401526020810190506172c5565b505050509050019650505050505050600060405180830381600087803b15801561730957600080fd5b505af115801561731d573d6000803e3d6000fd5b505050506040513d6000823e3d601f19601f82011682018060405250602081101561734757600080fd5b810190808051604051939291908464010000000082111561736757600080fd5b8382019150602082018581111561737d57600080fd5b825186602082028301116401000000008211171561739a57600080fd5b8083526020830192505050908051906020019060200280838360005b838110156173d15780820151818401526020810190506173b6565b50505050905001604052505050905061758b565b8273ffffffffffffffffffffffffffffffffffffffff166338ed17398660008530601e42016040518663ffffffff1660e01b815260040180868152602001858152602001806020018473ffffffffffffffffffffffffffffffffffffffff168152602001838152602001828103825285818151815260200191508051906020019060200280838360005b8381101561748a57808201518184015260208101905061746f565b505050509050019650505050505050600060405180830381600087803b1580156174b357600080fd5b505af11580156174c7573d6000803e3d6000fd5b505050506040513d6000823e3d601f19601f8201168201806040525060208110156174f157600080fd5b810190808051604051939291908464010000000082111561751157600080fd5b8382019150602082018581111561752757600080fd5b825186602082028301116401000000008211171561754457600080fd5b8083526020830192505050908051906020019060200280838360005b8381101561757b578082015181840152602081019050617560565b5050505090500160405250505090505b5b8573ffffffffffffffffffffffffffffffffffffffff168773ffffffffffffffffffffffffffffffffffffffff167ffa2dda1cc1b86e41239702756b13effbc1a092b5c57e3ad320fbe4f3b13fe235836000815181106175e857fe5b60200260200101518460018651038151811061760057fe5b6020026020010151604051808381526020018281526020019250505060405180910390a38060018251038151811061763457fe5b60200260200101519350505050949350505050565b60606176ab826040518060400160405280602081526020017f5361666545524332303a206c6f772d6c6576656c2063616c6c206661696c65648152508573ffffffffffffffffffffffffffffffffffffffff16617b7a9092919063ffffffff16565b9050600081511115617733578080602001905160208110156176cc57600080fd5b8101908080519060200190929190505050617732576040517f08c379a000000000000000000000000000000000000000000000000000000000815260040180806020018281038252602a815260200180617ffe602a913960400191505060405180910390fd5b5b505050565b60606000849050600267ffffffffffffffff8111801561775757600080fd5b506040519080825280602002602001820160405280156177865781602001602082028036833780820191505090505b509150600073ffffffffffffffffffffffffffffffffffffffff168473ffffffffffffffffffffffffffffffffffffffff16146177c35783617845565b8073ffffffffffffffffffffffffffffffffffffffff1663ad5c46486040518163ffffffff1660e01b815260040160206040518083038186803b15801561780957600080fd5b505afa15801561781d573d6000803e3d6000fd5b505050506040513d602081101561783357600080fd5b81019080805190602001909291905050505b8260008151811061785257fe5b602002602001019073ffffffffffffffffffffffffffffffffffffffff16908173ffffffffffffffffffffffffffffffffffffffff1681525050600073ffffffffffffffffffffffffffffffffffffffff168373ffffffffffffffffffffffffffffffffffffffff16146178c65782617948565b8073ffffffffffffffffffffffffffffffffffffffff1663ad5c46486040518163ffffffff1660e01b815260040160206040518083038186803b15801561790c57600080fd5b505afa158015617920573d6000803e3d6000fd5b505050506040513d602081101561793657600080fd5b81019080805190602001909291905050505b8260018151811061795557fe5b602002602001019073ffffffffffffffffffffffffffffffffffffffff16908173ffffffffffffffffffffffffffffffffffffffff1681525050509392505050565b600060608473ffffffffffffffffffffffffffffffffffffffff1663095ea7b38585604051602401808373ffffffffffffffffffffffffffffffffffffffff168152602001828152602001925050506040516020818303038152906040529060e01b6020820180517bffffffffffffffffffffffffffffffffffffffffffffffffffffffff83818316178352505050506040518082805190602001908083835b60208310617a5a5780518252602082019150602081019050602083039250617a37565b6001836020036101000a0380198251168184511680821785525050505050509050019150506000604051808303816000865af19150503d8060008114617abc576040519150601f19603f3d011682016040523d82523d6000602084013e617ac1565b606091505b5091509150818015617b015750600081511480617b005750808060200190516020811015617aee57600080fd5b81019080805190602001909291905050505b5b617b73576040517f08c379a000000000000000000000000000000000000000000000000000000000815260040180806020018281038252600c8152602001807f2173616665417070726f7665000000000000000000000000000000000000000081525060200191505060405180910390fd5b5050505050565b6060617b898484600085617b92565b90509392505050565b606082471015617bed576040517f08c379a0000000000000000000000000000000000000000000000000000000008152600401808060200182810382526026815260200180617f6b6026913960400191505060405180910390fd5b617bf685617d3b565b617c68576040517f08c379a000000000000000000000000000000000000000000000000000000000815260040180806020018281038252601d8152602001807f416464726573733a2063616c6c20746f206e6f6e2d636f6e747261637400000081525060200191505060405180910390fd5b600060608673ffffffffffffffffffffffffffffffffffffffff1685876040518082805190602001908083835b60208310617cb85780518252602082019150602081019050602083039250617c95565b6001836020036101000a03801982511681845116808217855250505050505090500191505060006040518083038185875af1925050503d8060008114617d1a576040519150601f19603f3d011682016040523d82523d6000602084013e617d1f565b606091505b5091509150617d2f828286617d4e565b92505050949350505050565b600080823b905060008111915050919050565b60608315617d5e57829050617e13565b600083511115617d715782518084602001fd5b816040517f08c379a00000000000000000000000000000000000000000000000000000000081526004018080602001828103825283818151815260200191508051906020019080838360005b83811015617dd8578082015181840152602081019050617dbd565b50505050905090810190601f168015617e055780820380516001836020036101000a031916815260200191505b509250505060405180910390fd5b9392505050565b604051806040016040528060029060208202803683378082019150509050509056fe7769746864726177426f72726f773a206c657373207468616e206d617463682074696d65636c61696d426f72726f773a20e6b2a1e69c89e7b4a2e58f96206a705f746f6b656e637265617465506f6f6c3a656e642074696d65206772617465207468616e20736574746c652074696d65e78eb0e59ca8e79a84e697b6e997b4e5b08fe4ba8ee58cb9e9858de697b6e997b47769746864726177426f72726f773a20776974686472617720616d6f756e74206973207a65726f6465706f736974426f72726f773a206465706f73697420616d6f756e74206973207a65726f736574746c653a20e6b1a0e5ad90e78ab6e68081e5bf85e9a1bbe698afe58cb9e9858d6d756c74695369676e6174757265436c69656e74203a2054686973207478206973206e6f7420617072726f766564416464726573733a20696e73756666696369656e742062616c616e636520666f722063616c6c73746174653a20506f6f6c20737461747573206973206e6f7420657175616c20746f206d61746368536166654d6174683a206d756c7469706c69636174696f6e206f766572666c6f7766696e6973683a20706f6f6c207374617465206d75737420626520657865637574696f6e5361666545524332303a204552433230206f7065726174696f6e20646964206e6f7420737563636565647769746864726177426f72726f773a206c657373207468616e20656e642074696d656c69717569646174653a20e6b1a0e5ad90e79a84e78ab6e68081e5bf85e9a1bbe698afe689a7e8a18ce78ab6e68081a2646970667358221220a9a2dbfcfb7752120b074da7f5462f56f6a25b12488cb20497b13d64848c06b964736f6c634300060c00336d756c74695369676e6174757265436c69656e74203a204d756c7469706c65207369676e617475726520636f6e74726163742061646472657373206973207a65726f21",
  "linkReferences": {},
  "deployedLinkReferences": {}
}