{
  "_format": "hh-sol-artifact-1",
  "contractName": "AddressPrivileges",
  "sourceName": "contracts/pledge/AddressPrivileges.sol",
  "abi": [
    {
      "inputs": [
        {
          "internalType": "address",
          "name": "multiSignature",
          "type": "address"
        }
      ],
      "stateMutability": "nonpayable",
      "type": "constructor"
    },
    {
      "inputs": [
        {
          "internalType": "address",
          "name": "_addMinter",
          "type": "address"
        }
      ],
      "name": "addMinter",
      "outputs": [
        {
          "internalType": "bool",
          "name": "",
          "type": "bool"
        }
      ],
      "stateMutability": "nonpayable",
      "type": "function"
    },
    {
      "inputs": [
        {
          "internalType": "address",
          "name": "_delMinter",
          "type": "address"
        }
      ],
      "name": "delMinter",
      "outputs": [
        {
          "internalType": "bool",
          "name": "",
          "type": "bool"
        }
      ],
      "stateMutability": "nonpayable",
      "type": "function"
    },
    {
      "inputs": [
        {
          "internalType": "uint256",
          "name": "_index",
          "type": "uint256"
        }
      ],
      "name": "getMinter",
      "outputs": [
        {
          "internalType": "address",
          "name": "",
          "type": "address"
        }
      ],
      "stateMutability": "view",
      "type": "function"
    },
    {
      "inputs": [],
      "name": "getMinterLength",
      "outputs": [
        {
          "internalType": "uint256",
          "name": "",
          "type": "uint256"
        }
      ],
      "stateMutability": "view",
      "type": "function"
    },
    {
      "inputs": [],
      "name": "getMultiSignatureAddress",
      "outputs": [
        {
          "internalType": "address",
          "name": "",
          "type": "address"
        }
      ],
      "stateMutability": "view",
      "type": "function"
    },
    {
      "inputs": [
        {
          "internalType": "address",
          "name": "account",
          "type": "address"
        }
      ],
      "name": "isMinter",
      "outputs": [
        {
          "internalType": "bool",
          "name": "",
          "type": "bool"
        }
      ],
      "stateMutability": "view",
      "type": "function"
    }
  ],
  "bytecode": "0x608060405234801561001057600080fd5b50604051610ada380380610ada8339818101604052602081101561003357600080fd5b810190808051906020019092919050505080600073ffffffffffffffffffffffffffffffffffffffff168173ffffffffffffffffffffffffffffffffffffffff1614156100cb576040517f08c379a0000000000000000000000000000000000000000000000000000000008152600401808060200182810382526043815260200180610a976043913960600191505060405180910390fd5b6101147f8dddb57468cf5338ee155397ad1400a7a564308824f517d20a8a7c516523bb4760001c8273ffffffffffffffffffffffffffffffffffffffff1661011b60201b60201c565b5050610122565b8082555050565b610966806101316000396000f3fe608060405234801561001057600080fd5b50600436106100625760003560e01c80630323aac71461006757806323338b88146100855780635b7121f8146100df578063638c7e1714610137578063983b2d561461016b578063aa271e1a146101c5575b600080fd5b61006f61021f565b6040518082815260200191505060405180910390f35b6100c76004803603602081101561009b57600080fd5b81019080803573ffffffffffffffffffffffffffffffffffffffff169060200190929190505050610230565b60405180821515815260200191505060405180910390f35b61010b600480360360208110156100f557600080fd5b81019080803590602001909291905050506102d2565b604051808273ffffffffffffffffffffffffffffffffffffffff16815260200191505060405180910390f35b61013f610366565b604051808273ffffffffffffffffffffffffffffffffffffffff16815260200191505060405180910390f35b6101ad6004803603602081101561018157600080fd5b81019080803573ffffffffffffffffffffffffffffffffffffffff169060200190929190505050610399565b60405180821515815260200191505060405180910390f35b610207600480360360208110156101db57600080fd5b81019080803573ffffffffffffffffffffffffffffffffffffffff16906020019092919050505061043b565b60405180821515815260200191505060405180910390f35b600061022b600061044f565b905090565b600061023a610464565b600073ffffffffffffffffffffffffffffffffffffffff168273ffffffffffffffffffffffffffffffffffffffff1614156102c0576040517f08c379a00000000000000000000000000000000000000000000000000000000081526004018080602001828103825260258152602001806108b96025913960400191505060405180910390fd5b6102cb6000836105d2565b9050919050565b600060016102de61021f565b03821115610354576040517f08c379a000000000000000000000000000000000000000000000000000000000815260040180806020018281038252601a8152602001807f546f6b656e3a20696e646578206f7574206f6620626f756e647300000000000081525060200191505060405180910390fd5b61035f600083610602565b9050919050565b60006103947f8dddb57468cf5338ee155397ad1400a7a564308824f517d20a8a7c516523bb4760001c61061c565b905090565b60006103a3610464565b600073ffffffffffffffffffffffffffffffffffffffff168273ffffffffffffffffffffffffffffffffffffffff161415610429576040517f08c379a000000000000000000000000000000000000000000000000000000000815260040180806020018281038252602581526020018061090c6025913960400191505060405180910390fd5b610434600083610627565b9050919050565b6000610448600083610657565b9050919050565b600061045d82600001610687565b9050919050565b600034905060003330604051602001808373ffffffffffffffffffffffffffffffffffffffff1660601b81526014018273ffffffffffffffffffffffffffffffffffffffff1660601b81526014019250505060405160208183030381529060405280519060200120905060006104d8610366565b905060008173ffffffffffffffffffffffffffffffffffffffff16631ebaa1668460006040518363ffffffff1660e01b8152600401808381526020018281526020019250505060206040518083038186803b15801561053657600080fd5b505afa15801561054a573d6000803e3d6000fd5b505050506040513d602081101561056057600080fd5b81019080805190602001909291905050509050600081116105cc576040517f08c379a000000000000000000000000000000000000000000000000000000000815260040180806020018281038252602e8152602001806108de602e913960400191505060405180910390fd5b50505050565b60006105fa836000018373ffffffffffffffffffffffffffffffffffffffff1660001b610698565b905092915050565b60006106118360000183610780565b60001c905092915050565b600081549050919050565b600061064f836000018373ffffffffffffffffffffffffffffffffffffffff1660001b610803565b905092915050565b600061067f836000018373ffffffffffffffffffffffffffffffffffffffff1660001b610873565b905092915050565b600081600001805490509050919050565b6000808360010160008481526020019081526020016000205490506000811461077457600060018203905060006001866000018054905003905060008660000182815481106106e357fe5b906000526020600020015490508087600001848154811061070057fe5b906000526020600020018190555060018301876001016000838152602001908152602001600020819055508660000180548061073857fe5b6001900381819060005260206000200160009055905586600101600087815260200190815260200160002060009055600194505050505061077a565b60009150505b92915050565b6000818360000180549050116107e1576040517f08c379a00000000000000000000000000000000000000000000000000000000081526004018080602001828103825260228152602001806108976022913960400191505060405180910390fd5b8260000182815481106107f057fe5b9060005260206000200154905092915050565b600061080f8383610873565b61086857826000018290806001815401808255809150506001900390600052602060002001600090919091909150558260000180549050836001016000848152602001908152602001600020819055506001905061086d565b600090505b92915050565b60008083600101600084815260200190815260200160002054141590509291505056fe456e756d657261626c655365743a20696e646578206f7574206f6620626f756e6473546f6b656e3a205f64656c4d696e74657220697320746865207a65726f20616464726573736d756c74695369676e6174757265436c69656e74203a2054686973207478206973206e6f7420617072726f766564546f6b656e3a205f6164644d696e74657220697320746865207a65726f2061646472657373a264697066735822122084e90d348fef211c34c577cbb17548069cbaef95c86ba20356e3034f4a16755364736f6c634300060c00336d756c74695369676e6174757265436c69656e74203a204d756c7469706c65207369676e617475726520636f6e74726163742061646472657373206973207a65726f21",
  "linkReferences": {},
  "deployedLinkReferences": {}
}